:020000040800F2
:10000000A0060020490100088D240008872100086F
:100010000124000895090008612B00080000000079
:10002000000000000000000000000000E1250008C2
:100030009709000800000000DF250008E3250008FC
:100040006301000863010008630100086301000800
:1000500063010008630100086301000863010008F0
:1000600063010008630100086301000863010008E0
:1000700063010008630100086301000863010008D0
:1000800063010008630100086301000863010008C0
:1000900063010008630100086301000863010008B0
:1000A00063010008630100086301000863010008A0
:1000B000492600085526000861260008630100084B
:1000C0006301000863010008630100086301000880
:1000D00063010008552B0008630100086301000854
:1000E0006301000863010008630100086301000860
:1000F0006301000863010008630100086301000850
:10010000630100086301000863010008630100083F
:10011000630100086301000863010008630100082F
:10012000630100086301000863010008630100081F
:10013000DFF810D000F01CFC00480047FD35000837
:10014000AFF30080A006002006488047064800471D
:10015000FEE7FEE7FEE7FEE7FEE7FEE7FEE7FEE777
:10016000FEE7FEE74526000831010008202A04DBEF
:10017000203A21FA02F00021704721FA02F3D04020
:10018000C2F120029140084319467047D2B201E003
:1001900000F8012B491EFBD270470022F6E710B58C
:1001A00013460A4604461946FFF7F0FF204610BDE5
:1001B000F0B480EA0102D40F4200B2EB410F02D248
:1001C0000246084611464A0042D0C30DDDB2C1F3D3
:1001D000C752AD1A202D35DAC1F3160141F40002E1
:1001E00004B15242C5F1200602FA06F12A41104438
:1001F000B3EBD05F23D0C4B1012DA0EBC35009DC19
:10020000F0BC4FF0004202EAC352DBB200F500003E
:1002100000F083BA400000F1807000EBC350A0F101
:10022000807040EAD170490009E0490841EAC07194
:10023000A0EBC35000F50000400800EBC350F0BC39
:1002400000F062BA6142012202EB4101001BF6E7B5
:10025000F0BC704781F00041AAE780F00040A7E7BA
:1002600080EA010210B502F00043400022D04A00AB
:100270001FD0010E01EB1261C0F35600C2F356020B
:1002800040F4000042F40002A0FB022000047F3989
:10029000140400D0401C50EA124001D44000491E12
:1002A000C2B20C0604EBD010401C4008802A02D0D9
:1002B00003E0002010BD20F00100002900DA00203A
:1002C000184310BD30B480EA010202F0004530F05E
:1002D000004221F0004013D090B1C30DD40DC2F301
:1002E0001601C0F31600E41A41F4000140F40002C4
:1002F0007D34914201D3641C00E04900002C02DAF5
:1003000030BC002070474FF400000023914201D31D
:10031000891A034340084FEA4101F7D151B1914294
:1003200002D14FF0004105E002D24FF0010101E09F
:100330006FF0010103EBC450284430BC00F0E4B975
:10034000420005D0C0F3C7525242914201DC002066
:10035000704700EBC15070472DE9FE4F804681EA9F
:100360000300C00F0C46009021F0004123F000452F
:10037000B8EB0200A94105D24046214690461C46F2
:100380000B46024623F00040104347D0270DC7F329
:100390000A00C3F30A510290401A019040286BDA18
:1003A000C3F3130040F4801B0098924620B1002351
:1003B000D2EB030A63EB0B0B01985946C0F14002E4
:1003C000504600F080F906460D4650465946019ABF
:1003D00000F088F910EB08006141002487EA11520F
:1003E00084EAE7731A4340D0009A62B3019A012A63
:1003F0004FEA075215DC001B61EB02014FF000428F
:1004000002EA0752CDE90042001C41F58011324654
:100410002B4600F0BFF903B0BDE8F08F40462146FF
:10042000F9E7001B61EB0201001C41F58013001885
:100430005B412018A2F5001747EB030140EAD57095
:10044000B6196D4111E06D084FEA360645EAC075F0
:100450004FEA0752001B61EB0201001C41F58011BD
:1004600049084FEA30000019514132462B4603B08B
:10047000BDE8F04F00F07FB9009801224000002352
:10048000D0EB020263EBE073009821464FEAE07480
:10049000B8EB000061EB0401E9E783F000435BE7A0
:1004A00081F0004158E72DE9FE4F81EA030404F092
:1004B000004421F0004100944FF0000B23F0004372
:1004C00050EA01045ED052EA03045BD0C3F30A543D
:1004D000C1F30A552C44A4F2F3340194A0FB025456
:1004E000C1F3130141F48011C3F3130343F48013E8
:1004F00001FB024400FB034E840A970A44EA81543C
:1005000047EA8357A4FB076802958D0A05FB078518
:100510004FEA932C04FB0C542705029D4FEA065822
:1005200047EA1637B5EB08056EEB070C870E920EFF
:1005300047EA811742EA8312A7FB0201B6EB0B01DF
:1005400064EB00042B0D43EA0C335E1844EB1C50A3
:10055000DA465146E7FB0201C5F313044FEA0B33B9
:1005600043EA14534FEA0432019C43EA0603A4F120
:100570000C040294009CCDE900B400F00BF903B028
:10058000BDE8F08F00200146F9E7C10F80EAE07076
:100590000844CA079623002100F0BFB820F00040AD
:1005A000C10DC0F3160040F400007F2901DA0020DD
:1005B0007047962903DCC1F19601C840704796390F
:1005C0008840704700F0004230F000400AD0C10D72
:1005D00001F56071C0F3160042EA0151C2084007FC
:1005E0001143704700200146704701F0004330B4CA
:1005F00021F0004150EA010206D00A0DA2F5607216
:10060000C1F31301002A02DC30BC00207047440F04
:1006100044EAC104C100E01830BC00EBC25000F055
:1006200073B80000002801DBC0F10040002901DBA5
:10063000C1F100418842704730B50B4601460020A9
:100640002022012409E021FA02F59D4205D303FA94
:1006500002F5491B04FA02F52844151EA2F1010215
:10066000F1DC30BD2DE9F05F0546002092469B4647
:1006700088460646814640241BE0284641464746B8
:100680002246FFF773FD53465A46C01A914110D3D4
:1006900011461846224600F016F82D1A67EB01089D
:1006A0004F4622460120002100F00DF817EB00090B
:1006B0004E41201EA4F10104DFDC484631462A46A3
:1006C0004346BDE8F09F202A04DB203A00FA02F1FD
:1006D000002070479140C2F1200320FA03F3194330
:1006E00090407047202A06DBCB17203A41FA02F0EF
:1006F00043EAE07306E041FA02F3D040C2F120027F
:1007000091400843194670470029A8BF7047401C14
:10071000490008BF20F00100704710B4B0FA80FC17
:1007200000FA0CF050EA010404BF10BC704749B154
:10073000CCF1200421FA04F411FA0CF118BF0121C4
:1007400021430843A3EB0C01CB1D4FEA00614FEAA4
:10075000102042BF002010BC704700EBC350104473
:100760000029A4BF10BC7047401C490008BF20F0FE
:10077000010010BC704710B5141E73F1000408DAB4
:10078000401C41F1000192185B411A4301D120F055
:10079000010010BD2DE9F04D92469B4611B1B1FA12
:1007A00081F202E0B0FA80F220329046FFF78BFF30
:1007B00004460F4640EA0A0041EA0B0153465A46F6
:1007C000084313D0114653EA010019D0C8F1400282
:1007D0005046FFF7CBFC05460E465046594642466A
:1007E000FFF771FF084305D0012004E02046394699
:1007F000BDE8F08D0020054346EAE0762C43374300
:100800000A986305E40AA0EB08000022FD0A44EA06
:1008100047540A3002D500200146E9E701051019C6
:100820006941DDE9084500196941BDE8F04DA2E7DD
:100830002DE9F04D81EA030404F0004B21F000455E
:1008400014464FF0000A23F0004150EA050220D080
:1008500054EA01021DD0C5F30A570246C5F313033B
:10086000C1F31300C1F30A5640F4801543F480131A
:10087000A7EB0608101BD64608F2FD3873EB0500FF
:1008800002D308F1010801E092185B41B8F1000FB2
:1008900003DA00200146BDE8F08D00204FF48011FE
:1008A000064684460EE0171B73EB050705D3121BA3
:1008B00063EB050306434CEA010C49084FEA30009C
:1008C00092185B4150EA0107EDD152EA030012D0C1
:1008D00082EA040083EA0501084305D0101BAB41FE
:1008E00006D20122002306E000224FF0004302E07E
:1008F0006FF0010253101AEB06004CEB085110EB9D
:100900000A0041EB0B01BDE8F04DFFF734BFC1F326
:100910000A52C1F3130140F2FF3341F480119A42AD
:1009200002DA00200146704740F233439A42A2F2B5
:10093000334202DC5242FFF719BCFFF7C4BE00008D
:1009400030B5041E71F1000404DB4FF00044404256
:1009500064EB0101141E73F1000405DB1C464FF02B
:100960000043524263EB0403994208BF904230BDFA
:10097000064C074D06E0E06840F0010394E80700EC
:1009800098471034AC42F6D3FFF7D6FB083800087E
:1009900028380008FEE7704772B6FEE710B590F8F9
:1009A00021100022022905D00421816380F8202033
:1009B000012010BD01680B6823F00E030B60016875
:1009C0000B6823F001030B6090F84030C46B0121E9
:1009D00001FA03F3636080F8211080F820201046AC
:1009E00010BD00002DE9F05F90F8211000240229CD
:1009F00003D004218163012485E001680A6822F0A4
:100A00000E020A6001680A6822F001020A603F4E85
:100A10003E4FB215DFF8F4C0DFF8F090DFF8ECA03D
:100A2000DFF8E8B0DFF8E4E00168783F1301150271
:100A3000ACF1640CA9F15009AAF13C0AABF1280B06
:100A4000AEF1140E4FF48018B14227D9B9420ED03E
:100A5000614512D049451DD0514518D0594518D08F
:100A6000714501D1424615E0294EB14201D1012222
:100A700010E0274E1436B14201D110220AE0244E74
:100A80002836B14206D0224A3C32914201D11A4660
:100A900000E02A461E49091F0A602BE0B94213D024
:100AA000614517D0494522D051451DD059451DD02B
:100AB000714501D142461AE0B14202D14FF0807235
:100AC00015E0134EB14201D1012210E0104E143650
:100AD000B14201D110220AE00D4E2836B14206D0B3
:100AE0000B4A3C32914201D11A4600E02A4607499E
:100AF00080394A60012180F82110002180F82010FF
:100B0000416B01B188472046BDE8F09F800002405C
:100B1000080402402DE9F84FDFF8C8910024A9F13C
:100B2000040B23460F2709F1040AABF1040ED1E0B0
:100B30000125A54006EA0502AA4276D1DFF8A8C140
:100B40004E68A6EB0C0866452BD00DDC032E34D086
:100B500005DC36B3012E19D0022E2FD11BE0112E49
:100B600016D0122E2AD119E0B8F5881F19D006DC4C
:100B7000B8F5803F15D0B8F5801F1FD111E0B8F54A
:100B8000001F0ED0B8F5041F18D10AE0CB6815E09D
:100B9000CB681B1D12E0CB6808330FE0CB680C3329
:100BA0000CE08B682BB1012B4FF0080303D045619B
:100BB00004E0042302E0056100E00023FF2A01D8DD
:100BC000064601E000F104064FEA840501D9A5F1CB
:100BD0002005D6F8008007FA05FC28EA0C0803FA7D
:100BE00005F548EA0508C6F800804D68ED0070D5A7
:100BF0003E4DAE6946F00106AE61AD6924F00306D4
:100C000005F0010500953A4D06EB050CDCF808509F
:100C1000A607360F07FA06F825EA0805DFF8D4809C
:100C2000404503D14FF0000825E052E0DFF8C880CE
:100C3000404502D14FF001081DE0DFF8C08040457B
:100C400002D14FF0020816E0DFF8B480404502D12F
:100C50004FF003080FE0DFF8AC80404502D14FF0C1
:100C6000040808E0DFF8A080404502D14FF00508F5
:100C700001E04FF0060808FA06F848EA0508CCF843
:100C800008804D68D9F80060ED024D4601D5164345
:100C900000E096432E604D68DAF80060AD025546DC
:100CA00001D5164300E096432E604D68DBF80060E6
:100CB000AD035D4601D5164300E096432E604D68B6
:100CC000DEF80060ED03754601D5164300E096435B
:100CD0002E60641C0A681646E2407FF429AFBDE826
:100CE000F88F0000080401400000111000100240BD
:100CF0000000014000080140000C014000100140CC
:100D00000014014000180140001C01400AB10161BB
:100D100070470904FBE70000014880687047000045
:100D20000000002070B5040025D094F83D00002597
:100D300020B984F83C50204600F0B8F8242084F80C
:100D40003D002068016821F0010101602068016810
:100D500041F4004101602068016821F40041016014
:100D600000F002FA4D4A6168914201D84C4900E016
:100D70004C49884201D2012070BD4B492368B0FB29
:100D8000F1F15E6826F03F060E435E6063689342B1
:100D900006D94FF4967359434FF47A73B1FBF3F1CC
:100DA0002368491C1E6A26F03F06314319626168B8
:100DB000914210D84900401EB0FBF1F2521CC2F320
:100DC0000B02042A01D2042022E0B0FBF1F0401C07
:100DD000C0F30B001CE0A268F2B301EBC10303EB0C
:100DE0000116431EB3FBF6F35B1C43F480431B0563
:100DF00049D092B301EBC10202EB0111401EB0FBDE
:100E0000F1F0401CC0F30B0040F4804040F400407F
:100E10002168CA694CF6FF739A431043C861D4E94C
:100E2000071001432068026822F0C00211430160EC
:100E3000D4E9030101432068826848F2FF339A43F2
:100E400011438160D4E9050108432168CA6822F092
:100E5000FF021043C86001E00EE016E02068016860
:100E600041F0010101602564202084F83D002563E4
:100E700084F83E50002070BD01EB4106431EB3FBD9
:100E8000F6F35B1CB3E70120C2E701EB4101401E12
:100E9000B0FBF1F0401CC0F30B00B7E7A0860100E7
:100EA00080841E0000093D0040420F0010B586B04E
:100EB000002100910191029103910068104988423C
:100EC0001BD1104CA06940F00800A061A0696946E0
:100ED00000F0080004904FF4406000901220019050
:100EE000032003900848FFF715FEE06940F48000F6
:100EF000E061E06900F48000049006B010BD0000DD
:100F00000058004000100240000C01400248816877
:100F1000027811448160704700000020074810B536
:100F2000016841F010010160032000F075F80F2006
:100F300000F006F800F024F8002010BD0020024068
:100F400070B50D4D04464FF47A712878B1FBF0F07E
:100F50000A490968B1FBF0F000F0DCFA48B9102C3E
:100F600007D200222146501E00F036F800206C60A7
:100F700070BD012070BD0000000000200C000020AA
:100F80000C4808B5816941F001018161816901F076
:100F900001010091C16941F08051C161C06900F057
:100FA000805000900448416821F0E06141F00071F8
:100FB000416008BD0010024000000140002809DB2C
:100FC00000F01F02012191404009800000F1E02063
:100FD000C0F8001170470000F0B40E4B1B680C46BF
:100FE000C3F30223C3F10705042D00D90425191DFD
:100FF000072901D2002300E0DB1E012606FA05F1D5
:10100000491E214099409E40761E16403143F0BC57
:1010100001F0B8BD0CED00E0064900F007020868D9
:101020004FF6FF03184040EA0220034A10430860CD
:10103000704700000CED00E00000FA052DE9F047D4
:101040000F46050061D0434E306800F00700B842FB
:1010500009D2306820F0070038433060306800F073
:101060000700B84251D128683B4C810712D5400790
:1010700003D5606840F4E06060602878000703D51D
:10108000606840F4605060606068A96820F0F0001B
:10109000084360602878C00728D06868012810D00D
:1010A0002168022810D0890700292EDA616821F012
:1010B000030101436160FFF72FFE804641F288394A
:1010C0000DE021688903EFE78901EDE7FFF724FED2
:1010D000A0EB0801494502D90320BDE8F08760680C
:1010E000696800F00C00B0EB810FEFD1306800F0C0
:1010F0000700B8420BD9306820F007003843306051
:10110000306800F00700B84201D00120E5E72878F8
:10111000400705D56068E96820F4E0600843606036
:101120002878000706D56068296920F4605040EAF5
:10113000C100606000F038F86168084AC1F303112B
:10114000515CC8400649086006480068FFF7F8FE91
:101150000020C2E70020024000100240EE370008E5
:101160000C0000200400002004480549006849687C
:10117000044AC1F30221515CC84070470C000020B2
:1011800000100240FE37000804480549006849681D
:10119000044AC1F3C221515CC84070470C000020D2
:1011A00000100240FE3700080E4A51680E4801F058
:1011B0000C03042B11D0082B0FD10C48C1F383432F
:1011C000C903C05C0AD55168084AC1F34041921E68
:1011D000515C054A5043B0FBF1F070470449484365
:1011E000704700000010024000127A00DE3700084D
:1011F00000093D002DE9F84F040070D02078C04D63
:10120000C00749D06868C0F38100012807D068682A
:10121000C0F38100022809D16868C00306D5286898
:10122000800339D560680028E7D035E06068B0F504
:10123000803F0BD010B1B0F5A02F11D0286820F45A
:1012400080302860286820F4802002E0286840F47C
:1012500080302860606890B1FFF75EFD06460AE0C6
:10126000286840F480202860F0E700BFFFF754FDB5
:10127000801B642873D828688003F7D50CE0FFF73B
:101280004BFD064605E000BFFFF746FD801B6428C6
:10129000F0D828688003F7D420789A4E80074FF062
:1012A00001094FF0000839D5686810F00C0F07D01D
:1012B0006868C0F38100022809D16868C00306D4B9
:1012C0002868800714D52069012808D110E020691A
:1012D000B0B1C6F80090FFF71FFD074605E00AE130
:1012E000FFF71AFDC01B0228C4D828688007F7D56D
:1012F0002868616920F0F80040EAC10028600DE02C
:10130000C6F80080FFF708FD074604E0FFF704FD7C
:10131000C01B022823D828688007F7D4207800074C
:101320002CD57948A169D9B1C0F80090FFF7F4FC39
:10133000074604E0FFF7F0FCC01B02280FD8686ADC
:101340008007F7D571484FF4FA510068B0FBF1F00F
:10135000009000BF0098411E0091FAD20EE080E09C
:10136000C0F80080FFF7D8FC074604E0FFF7D4FC84
:10137000C01B022875D8686A8007F7D42078400718
:1013800060D5E8690027C00008D4E86940F08050C3
:10139000E861E869012700F0805000905C4801682E
:1013A000C90513D40168834641F480710160FFF7D9
:1013B000B3FC824606E000BFFFF7AEFCA0EB0A00DC
:1013C00064284ED8DBF80000C005F5D5E068012898
:1013D0000AD008B1052813D0286A20F0010028623D
:1013E000286A20F0040002E0286A40F00100286228
:1013F000E06841F2883B98B1FFF78EFC82460BE033
:10140000286A40F004002862EEE700BFFFF784FC82
:10141000A0EB0A0159455AD8286A8007F6D50CE096
:10142000FFF77AFC824605E0FFF776FCA0EB0A01A5
:1014300059454CD8286A8007F6D41FB1E86920F0D6
:101440008050E861E06988B36968C1F381010229CD
:1014500044D00228C6F8608004D0FFF75DFC044643
:1014600038E034E0FFF758FC074604E0FFF754FC8F
:10147000C01B02282BD828688001F7D4206AB0F559
:10148000803F05D16868A16820F400300843686097
:10149000D4E908010843696821F4741108436860BD
:1014A000C6F86090FFF738FC044606E025E000BF70
:1014B000FFF732FC001B022809D828688001F7D505
:1014C0001BE000BFFFF728FC001B022802D9032005
:1014D000BDE8F88F28688001F4D40EE00128F7D029
:1014E0006868226A00F48031914204D1616A00F494
:1014F0007010884201D00120EAE70020E8E70000F0
:101500000010024000004242800442420C000020D1
:101510000070004010B5401EB0F1807F01D3012063
:1015200010BD4FF0E02460610F21601701F02AFB2D
:101530000020A06107202061002010BD7047704787
:1015400070B590F83C20012A2CD0012480F83C4052
:10155000022280F83D2003685A689D6822F07006D8
:101560000A6832435A60104B02689A420ED00F4B01
:101570009A420BD0B2F1804F08D00D4B9A4205D061
:101580000C4B9A4202D00C4B9A4204D1496825F088
:1015900080031943916080F83D40002180F83C10A1
:1015A000084670BD022070BD002C0140003401408F
:1015B0000004004000080040000C004010B504008A
:1015C00003D094F83D0010B107E0012010BD0020C9
:1015D00084F83C00204600F01FF8022084F83D000B
:1015E000211D206801F042F8012084F8460084F8AB
:1015F0003E0084F83F0084F8400084F8410084F8FD
:10160000420084F8430084F8440084F8450084F8DC
:101610003D00002010BD000008B500680B4988425D
:1016200012D10B48C16941F00201C161C0690022B9
:1016300000F00200009001211D20FFF7CDFCBDE865
:1016400008401D20FFF7BABC08BD000000040040A0
:101650000010024090F83D10012901D00120704790
:10166000022180F83D100168CA6842F00102CA6098
:1016700000680E4988420ED00D4988420BD0B0F167
:10168000804F08D00B49884205D00B49884202D0D0
:101690000A49884204D1816801F00701062903D074
:1016A000016841F00101016000207047002C0140F9
:1016B000003401400004004000080040000C0040DD
:1016C00070B5044690F83C000025012817D001268B
:1016D00084F83C60022084F83D002068826822F093
:1016E000770222F47F4282600868502838D00DDCEF
:1016F00020284FD005DC90B3102811D14AE00220F9
:1017000070BD302846D040280AD13BE060282FD059
:1017100070280DD0B0F5805F03D0B0F5005F12D017
:10172000012584F83D60002084F83C00284670BD07
:10173000CB68D1E90121206800F0EBFF20688168C7
:1017400041F0770109E0CB68D1E90121206800F080
:10175000E0FF2068816841F480418160E1E719E0A1
:10176000CA684968206801F0A9F85021206806E09D
:10177000CA684968206801F0B2F86021206800F06A
:10178000D2FFCEE7CA684968206801F097F8402187
:101790002068F4E7226801461046F0E72DE9F041A1
:1017A0000D46040003D094F83D0018B108E0012074
:1017B000BDE8F081002084F83C00204600F040F8AD
:1017C000022084F83D002068816844F207029143BA
:1017D0008160211D206800F049FF226890689169AE
:1017E000166A2B68AF69034340F20330814341EA34
:1017F0000721A868EF6908434FF6FC418843E96870
:1018000040EA0720014328692F6A000140EA0730B7
:10181000084369686D6926F0220646EA05152943E2
:1018200093602268906154F8460B0162012004F82D
:101830001F09E0752076E0762077A0750020B7E7D5
:1018400000B585B0002100910191029103910168DA
:101850002648B1F1804F2BD0254A914226D1C1694B
:1018600041F00401C161C16901F004010491816981
:1018700041F0200181618069694600F020000490F8
:101880004FF4405000901B48FFF744F91A48416854
:1018900041F0E06141F480514160002211461E2078
:1018A000FFF79AFB5FF01E00FFF788FB05B000BD55
:1018B000C16941F00101C161C16901F001010491F7
:1018C000816941F0040181618069694600F004008A
:1018D0000490032000900948FFF71CF900221146EC
:1018E0001C20FFF779FB1C20DEE7000000100240FF
:1018F00000080040001401400000014000080140C1
:1019000070B590F83E60044690F83F5090F8423031
:1019100090F84320022021B104290ED0012E1BD1C2
:1019200014E0012E18D1012B16D184F83E0084F862
:10193000420001220021206820E0012D0CD1012A63
:101940000AD184F83F0084F8430014E0012D03D14C
:10195000012B01D1012A01D0012070BD84F83E0085
:1019600084F83F0084F8420084F8430001220021FB
:10197000206800F0C1FE01220421206800F0BCFEB6
:101980002068016841F001010160002070BD7047CE
:1019900070B50446006801694FF00005C943890726
:1019A00015D4C168C943890711D4E91E016101201A
:1019B0002077206880698007204602D0FFF7E7FF84
:1019C00004E000F0BFF8204600F051F925772068C8
:1019D0000169C943490717D4C168C943490713D4EA
:1019E0006FF004010161022020772068806910F403
:1019F000407F204602D0FFF7CAFF04E000F0A2F8C3
:101A0000204600F034F9257720680169C9430907A9
:101A100016D4C168C943090712D46FF008010161E7
:101A2000042020772068C0698007204602D0FFF795
:101A3000AEFF04E000F086F8204600F018F92577A4
:101A400020680169C943C90617D4C168C943C906DA
:101A500013D46FF010010161082020772068C0695D
:101A600010F4407F204602D0FFF791FF04E000F021
:101A700069F8204600F0FBF8257720680169C94322
:101A8000C90708D1C168C943C90704D1891E0161CA
:101A9000204600F047F920680169C943090609D4C6
:101AA000C168C943090605D46FF080010161204671
:101AB000FFF744FD20680169C943490609D4C1689C
:101AC000C943490605D46FF040010161204600F08A
:101AD0005FF920680169C94389060BD4C168C9430D
:101AE000890607D46FF0200101612046BDE87040EF
:101AF000FFF725BD70BD000000B585B00021009145
:101B000001910291039100680B49884211D10B4861
:101B1000816941F0040181618069694600F0040037
:101B20000490C02000900220019003900448FEF72A
:101B3000F1FF05B000BD00000004004000100240AD
:101B400000080140704770B5044690F83C0000263C
:101B50000D4601280FD0012084F83C006AB1042A08
:101B60001DD0082A2FD00C2A3FD00126002084F84F
:101B70003C00304670BD022070BD206800F0DCFDE6
:101B80002068816941F0080181612068816921F044
:101B900004018161206881692A69114311E020688C
:101BA00000F0FAFD2068816941F4006181612068DC
:101BB000816921F480618161206881692A6941EA33
:101BC00002218161D2E7206800F01CFE2068C16913
:101BD00041F00801C1612068C16921F00401C161BF
:101BE0002068C1692A69114311E0206800F03EFEB7
:101BF0002068C16941F40061C1612068C16921F4B4
:101C00008061C1612068C1692A6941EA0221C1611C
:101C1000ACE710B5040003D094F83D0010B107E024
:101C2000012010BD002084F83C00204600F01EF882
:101C3000022084F83D00211D206800F017FD0120DE
:101C400084F8460084F83E0084F83F0084F84000A1
:101C500084F8410084F8420084F8430084F844008A
:101C600084F8450084F83D00002010BD704770479F
:101C700010B50446022249B104290ED0082913D018
:101C800094F84100012816D0012010BD94F83E00C0
:101C90000128F9D184F83E200FE094F83F00012894
:101CA000F2D184F83F2008E094F840000128EBD1FD
:101CB00084F8402001E084F841200122206800F0EF
:101CC0001BFD13492068134A884201D0904203D17A
:101CD000436C43F400434364206888420DD0904233
:101CE0000BD0B0F1804F08D00B49884205D00B498A
:101CF000884202D00A49884204D1816801F0070174
:101D0000062903D0016841F001010160002010BDE7
:101D1000002C014000340140000400400008004055
:101D2000000C004070B5154900680968884224D14C
:101D300001F0A4FB124D134C1348A969226800F06E
:101D4000A6FB124E60601048B169226800F09FFB4C
:101D5000A0600D48E9684838626800F098FBE060D0
:101D60000948F1684838A26800F091FB01462061FB
:101D7000E068BDE8704001F0B7BC70BDF400002021
:101D80005C020020180000201402002078020020CD
:101D90007047704770470000F8B50168044608684E
:101DA000CA684B6910F00F0F4FF0000559D003F0CF
:101DB000010602F49077374365D0C10705D0D105FD
:101DC00003D5616C41F001016164410705D5D90774
:101DD00003D0616C41F002016164810705D5D90728
:101DE00003D0616C41F004016164010707D502F082
:101DF0002001314303D0616C41F008016164616CE2
:101E000000293AD0800604D5900602D5204600F07D
:101E1000A7FD20684069616CC0F38010090700D4F9
:101E200060B3204600F075FD20684069400621D56A
:101E30002068143050E8001F21F0400140E80012F3
:101E4000002AF5D1E06BA8B16D494163E06BFEF764
:101E5000C9FD002811D0E06B416B01B0BDE8F04036
:101E6000084783060FD593060DD52046BDE8F840F8
:101E700000F076BD2046FFF78DFFF8BD2046FFF746
:101E800089FF6564F8BD266B2023012E7CD1C60630
:101E90007AD5D60678D508684868009048694FF02A
:101EA0000206400640D5E16B086840680004000C5B
:101EB000E8D0A28D8242E5D9E085886920282DD01E
:101EC00020680C3050E8001F21F4807140E80012B7
:101ED000002AF5D12068143050E8001F21F00101DC
:101EE00040E80012002AF5D12068143050E8001FA5
:101EF00021F0400140E80012002AF5D184F8423078
:101F0000256320680C3050E8001F21F0100140E8E4
:101F10000012002AF5D1E06BFEF740FD6663A08D4C
:101F2000E18D401A81B22AE0A08DE18D401A81B284
:101F3000E08D0028A6D00029A4D022680C3252E8F7
:101F4000000F20F4907042E80007002FF5D12068C0
:101F5000143050E8002F22F0010240E80027002F43
:101F6000F5D184F84230256320680C3050E8002F0A
:101F700022F0100240E80023002BF5D166632046D2
:101F8000FFF707FFF8BDFFE705062BD5150629D596
:101F900094F841002128F5D1A068B0F5805F01D107
:101FA0002069B0B1206A411C216221680078486034
:101FB000E08C401E0004000CE084E3D12068C1687E
:101FC00021F08001C1602068C16841F04001C1601A
:101FD000D8E7206A0088C0F308004860206A801CA7
:101FE0002062E5E74006CDD55006CBD5CA6820462D
:101FF00022F04002CA6084F8413000F0C3F8C1E723
:102000000329000870B5040004D094F841000025AD
:1020100010B106E0012070BD84F84050204600F069
:1020200023F8242084F841002068C16821F400517D
:10203000C160204600F0F6FC2068016921F490415F
:1020400001612068416921F02A0141612068C1686D
:1020500041F40051C1606564202084F8410084F897
:1020600042006563002070BD30B585B00024009447
:102070000194029403940068184988422CD11848AE
:10208000816941F480418161816901F48041049159
:10209000816941F0040181618069124D00F0040002
:1020A00004904FF4007000900220019003200390F0
:1020B00069462846FEF72EFD2815CDE9000469463D
:1020C00028460294FEF726FD002211462520FEF741
:1020D00083FF2520FEF772FF05B030BD00380140B8
:1020E000001002400008014070472DE9F843044603
:1020F00090F841001F4616460D46202802D00220C7
:10210000BDE8F8837DB176B100206064212084F8B9
:102110004100FEF701FEA6848046E684A068B0F583
:10212000805F02D003E00120EAE7206910B12E466B
:1021300000250EE000260CE08021204600F0CEFCB9
:10214000A0B9AEB116F8010B21684860E08C401EC2
:10215000E084E08C43464FF0000200970028EBD16A
:102160004FF04001204600F0B9FC30B10320C7E732
:1021700035F8020BC0F30800E6E7202084F84100A0
:102180000020BDE77047FEE770B586B000241C480C
:102190000094019402940394816941F010018161DB
:1021A000816901F010010491816941F004018161AC
:1021B000816901F004010491816941F008018161A4
:1021C000816901F008010491816941F02001816178
:1021D00080690C4E00F020004FF4704504900022FE
:1021E00029463046FEF792FD01200095CDE9010415
:1021F0000220039069463046FEF78CFC06B070BDA5
:1022000000100240000C01400D4810B50B49016060
:102210000C49416000214FF480428160C0E9031203
:1022200041618161C1610162FEF77CFD002803D03C
:10223000BDE81040FEF7B0BB10BD000000580040E4
:1022400058000020801A060010B58CB02421684682
:10225000FDF7A3FF0024164809944FF080410A942B
:10226000C0E900144FF6FF71C0E9024104618461C6
:102270000320CDE900040120CDE902040F210491DF
:10228000CDE90540CDE9074169460948FFF786FADF
:1022900008B1FEF781FB099409A905480A94FFF7E4
:1022A0004FF9002801D0FEF777FB0CB010BD0000FD
:1022B000AC00002010B58EB0002407940894099457
:1022C0000A940B941C2168460C94FDF766FF224883
:1022D000204901604721C0E9011442F20F71C0E9B1
:1022E00003148461FFF76AF908B1FEF755FB4FF458
:1022F0008050079007A91848FFF7E2F908B1FEF7E8
:102300004BFB1548FFF785FC08B1FEF745FB0B9426
:102310000BA911480C94FFF713F908B1FEF73CFB29
:102320006020CDE900040294002269460A48049422
:10233000FFF709FC08B1FEF72FFB042269460648A7
:10234000FFF701FC08B1FEF727FB0348FFF7D4FBBA
:102350000EB010BD00040040F400002010B58CB099
:1023600024216846FDF719FF0024164809941449F2
:102370000A94C0E900144FF6FF71C0E902410461FC
:1023800084610320CDE900040120CDE902040F217E
:102390000491CDE90540CDE9074169460948FFF7B9
:1023A000FDF908B1FEF7F8FA099409A905480A945D
:1023B000FFF7C6F8002801D0FEF7EEFA0CB010BD0A
:1023C000000800403C0100200C4810B50A4901609B
:1023D0004FF4E1314160002181600C22C160C0E90D
:1023E00004128161C161FFF70DFE002803D0BDE832
:1023F0001040FEF7D1BA10BD003801408401002022
:10240000FEE7000070B53C211C48FFF779FA3C213B
:102410001B48FFF775FA194C2068C16841F00101AB
:10242000C160174D2868C16841F00101C1601548BD
:10243000FFF710F904211348FFF71AFC0021114897
:10244000FFF716FC216847F6FF704862296848626A
:102450000D494FF4827001F11C024861FA2050616D
:102460000020086048600881C860087488611060B6
:1024700050601081D0601074906170BDAC0000207D
:102480003C010020F40000205C020020FEE72DE962
:10249000F047040011D0206C60648146E06B20643A
:1024A000C4E9062180461046FDF7D4FE0546E063E8
:1024B000207828B101283BD038E00020BDE8F08723
:1024C00029466068FDF7CCFE60622946A068FDF7EA
:1024D000C7FEA16AFDF76CFE0646A062606BA063B2
:1024E000206B606341462846FDF7B4FE0146206339
:1024F000E068FDF7B5FEE06230466169FEF792F8EC
:10250000606908D380F00040A16AFEF78BF803D21F
:10251000606980F00040A062D4E90901FDF748FE3F
:10252000E16A31E0206980F000402062206AC5E75E
:1025300041462846FDF78EFE6168FDF791FE07468D
:1025400060622946A068FDF78BFE0646A062606BBC
:10255000A063206B606301214046FDF7F1FE294630
:10256000FDF77BFE4946FDF723FE01462063E06848
:10257000FDF776FE0546E06231463846FDF718FE67
:102580002946FDF715FE216AFDF712FE206221693A
:10259000FEF748F82069C8D380F00040216AFEF7B2
:1025A00041F8C3D2BEE710B50028029C16D0002A1D
:1025B00014D00170116841605168816000F10C0C09
:1025C00091688CE81A000021816341630163016214
:1025D000C1628162416241640164C16310BD7047A0
:1025E0007047FEF793BC30B58FB028216846FDF7E1
:1025F000D4FD14210AA8FDF7D0FD01210804CDE97E
:1026000000100024029402250491CDE907504FF4F4
:10261000E01009906846FEF7EDFD08B172B6FEE7DE
:102620000F20CDE90A054FF48060CDE90C4002216E
:102630000AA80E94FEF702FD002801D072B6FEE74C
:102640000FB030BD704700000148FFF7A1B900008E
:10265000AC0000200148FFF79BB90000F400002007
:102660000148FFF795B900003C010020F0B5026871
:102670001C4B1D4D1D4E1E4F1E4C4FF0804C984262
:1026800009D0A04207D0604505D0A84203D0B0428F
:1026900001D0B84204D122F0700E4A6842EA0E021C
:1026A000984209D0A04207D0604505D0A84203D087
:1026B000B04201D0B84203D122F44075CA682A431F
:1026C0004D6922F080022A4302608A68C2620A6869
:1026D0008262984201D0A04201D1096901630121BF
:1026E0004161F0BD002C01400004004000080040A2
:1026F000000C00400034014010B501F01F0301211F
:10270000046A99408C430462016A9A401143016251
:1027100010BD10B5846842EA032224F47F440A43C2
:102720002243826010BD826822F070020A4342F0A8
:102730000701816070470000F0B5036A026A22F069
:102740000102026242688469124E24F073050C682B
:102750002C4323F002058B682B430D4DA84201D07A
:10276000B04205D123F00807CB683B4323F00403B4
:10277000A84201D0B04205D14D6922F44072154300
:102780008A692A4342608461496841630362F0BDFB
:10279000002C014000340140F0B5026A036A23F0C6
:1027A00010030362436884690D6824F4E64444EA34
:1027B00005248D6822F0200242EA05120F4D104ECA
:1027C000A84201D0B04206D1CF6822F0800242EA8E
:1027D000071222F04002A84201D0B04207D14D6951
:1027E00023F4406343EA85038D6943EA850343602C
:1027F0008461496881630262F0BD0000002C0140E1
:1028000000340140F0B5026A036A23F48073036266
:102810004368C46922F4007224F073050C68124EF8
:102820002C438D6842EA05220E4DA84201D0B042E9
:1028300006D1CF6822F4006242EA072222F48062C5
:10284000A84201D0B04207D14D6923F4405343EA76
:1028500005138D6943EA05134360C4614968C16388
:102860000262F0BD002C01400034014030B5046A22
:10287000026A22F4805202624268C3690D6823F43E
:10288000E64343EA05238D6824F4005444EA053402
:10289000084DA84202D0084DA84204D14D6922F447
:1028A000804242EA85124260C36149680164046261
:1028B00030BD0000002C01400034014010B5036A17
:1028C000046A24F001040462846924F0F00444EAF8
:1028D000021423F00A020A438461026210BD10B59B
:1028E000036A046A24F010040462846923F0A003DC
:1028F00024F4704444EA023243EA01118261016225
:1029000010BD10B5406A0021C185C184FFF742FAAD
:1029100010BD01680C3151E8002F22F4907241E89B
:102920000023002BF5D10168143151E8002F22F06B
:10293000010241E80023002BF5D1016B012909D1E7
:1029400001680C3151E8002F22F0100241E8002309
:10295000002BF5D1202180F842100021016370473F
:1029600008B590F84210222901D0022008BD8268E3
:102970004FF480539A4201D1016921B1816A9A4290
:102980001BD04AB10AE00268816A5268C2F30802A9
:102990000A80816A891C08E0026972B10268526883
:1029A00002F07F020A70816A491C8162C18D491E52
:1029B0000904090CC18503D01BE002685268F1E7E5
:1029C0000168CA6822F02002CA600168CA6822F45D
:1029D0008072CA6001684A6922F001024A612021BE
:1029E00080F8421000214163026B012A03D0FFF7F7
:1029F0007BFB002008BD016301680C3151E8002F0A
:102A000022F0100241E80023002BF5D101680A688A
:102A1000D20602D50A6849680091818DFFF7B9F99D
:102A2000E7E7000070B5044600680169E26821F438
:102A30004051114301612169A0680843616908435D
:102A40002168CA6841F20C639A430243CA60206855
:102A50004169A26921F44071114341611E49206816
:102A6000884202D1FEF790FB01E0FEF77DFB00EB10
:102A7000C00101EB0012606864218000B2FBF0F33A
:102A8000B3FBF1F36FF018067343B2FBF0F5B2FB42
:102A9000F0F605EB8305322303EB0515B5FBF1F5E5
:102AA000B6FBF1F605F0F00505EB0615B2FBF0F606
:102AB000B2FBF0F0B0FBF1F06FF01802504306EB00
:102AC000800003EB0010B0FBF1F0216800F00F0074
:102AD0002844886070BD0000003801402DE9F041B5
:102AE000984617460E460446069D27E0681C25D0EA
:102AF0002DB1FEF711F9A0EB0800A8421ED92068FD
:102B00000C3050E8001F21F4D07140E80012002A78
:102B1000F5D12068143050E8001F21F0010140E891
:102B20000012002AF5D1202084F8410084F84200E8
:102B3000002084F840000320BDE8F0812068006890
:102B400036EA000004D00020B842CFD00020F3E7DE
:102B50000120F9E70148FFF71FB9000084010020B8
:102B6000FEE700000FB4054B10B503A9044A029814
:102B700000F0EAF810BC5DF814FB0000E535000831
:102B8000540000200907090E002804DB00F1E020B2
:102B900080F80014704700F00F0000F1E02080F88A
:102BA000141D704702E008C8121F08C1002AFAD19C
:102BB00070477047002001E001C1121F002AFBD1BD
:102BC000704700002DE9FF5F82B00021DDE904308D
:102BD000020DDDF840B0034318D044F61050A2F2C5
:102BE000FF3242431514119801281FD0A5EB0B00AA
:102BF000401C5FEA000A4FF000064E4FDFF83891A4
:102C0000B046504615D5CAF1000413E011980124CE
:102C10004AA3012801D16FEA0B010298119AC0E979
:102C20000031C0E9024206B0BDE8F09FCBF10000E0
:102C3000DFE704460021404A491842EB0450CDE941
:102C4000001012E0E00707D032463B4640464946B6
:102C5000FDF729FC8046894632463B461046194618
:102C6000FDF721FC06460F466410002CEAD1DDE991
:102C70000401DDE90023BAF1000F06DAFDF713FCC9
:102C800042464B46FDF70FFC05E0FDF7D1FD4246FD
:102C90004B46FDF7CDFD04460E460022284BFDF7BE
:102CA0004FFE03D84FF0FF30014607E00022254BCE
:102CB00020463146FDF750FBFDF729FE102409E0C0
:102CC000002C0ADB0A220023FDF7CCFC039B3032E8
:102CD0001A55641E50EA0102F2D1641C039AC4F131
:102CE00011031444119A012A03D0012208430DD183
:102CF0000AE0084304D000204FF0110B119072E756
:102D0000A3EB0B056D1E0DE05B4504DD4FF00002EB
:102D100005F1010504E003DA4FF00002A5F1010519
:102D2000002AECD002981199C0E90231C0E90045AF
:102D300079E70000000014400000F03F3000000080
:102D40000000F0430000E03F2DE9FF4F95B09A46A8
:102D5000884606460025EEE1252877D1002427463F
:102D6000F94A0121039400E0044316F8013F203B97
:102D700001FA03F01042F7D130782A2811D06FF011
:102D80002F033078A0F13002092A16D8039A44F0B4
:102D9000020402EB820203EB42021044761C039011
:102DA000EFE758F8042B0392002A03DA504244F468
:102DB0000054039044F00204761C30782E2816D17B
:102DC00016F8010F44F004042A280DD06FF02F02EA
:102DD0003078A0F13003092B09D807EB870302EB09
:102DE0004303C718761CF3E758F8047B761C307849
:102DF0006C280FD006DC4C2817D068280DD06A2824
:102E000014D104E0742810D07A280FD10DE044F4D6
:102E100000140AE044F4801401E044F44014727891
:102E2000824202D104F58014761C761C3078662824
:102E30000BD013DC582877D009DC002875D0452842
:102E4000F6D04628F4D047281AD193E118E0632839
:102E500035D0642879D0652812D18BE1702873D0E1
:102E600008DC6728F1D069286FD06E280DD06F2854
:102E700006D1ACE073282CD0752874D0782853D0B4
:102E80005246179990476D1C54E1C4F30250022832
:102E900009D003280DD0D8F8001004280DD00D60FB
:102EA00008F1040846E1D8F80010EA17C1E9005219
:102EB000F6E7D8F800100D80F2E70D70F0E718F88B
:102EC000041B8DF8001000208DF80100EB46012056
:102ED00003E058F804BB4FF0FF3061074FF00001EA
:102EE00002D40DE009F101018946B9420FDA8145AA
:102EF000F8DB1BF809100029F4D108E009F1010101
:102F000089468142FADB1BF809100029F6D10398A3
:102F10005346A0EB090721463846179A00F080FA7D
:102F2000284400EB090507E044E008E10DE01BF848
:102F3000010B524617999047B9F10109F7D2534650
:102F400021463846179AF2E039E00A21C4F30252CA
:102F50004FF0000B0091022A06D058F8040BC1175D
:102F6000032A09D00AE023E008F1070020F0070255
:102F7000F2E80201904605E000B2C117042A01D12F
:102F800040B2C117002906DA0A460021404261EB2F
:102F900002012D2202E0220504D52B228DF8042007
:102FA000012203E0E20701D02022F7E7914657E033
:102FB0000A2100E010214FF0000B00910BE01021DE
:102FC0004FF0000B44F004040827009103E00820B0
:102FD0004FF0000B0090C4F30252022A05D058F8BB
:102FE000040B0021032A08D008E008F1070020F0B4
:102FF0000702F2E80201904603E080B2042A00D101
:10300000C0B24FF0000922072AD53278702A07D0C3
:10301000DDF800C08CF0100C5CEA0B0C05D00EE063
:1030200040228DF80420012208E050EA010306D076
:1030300030238DF804308DF8052002229146009B44
:1030400083F0080353EA0B030AD150EA010201D1CD
:10305000620705D530228DF804204FF001097F1E4C
:103060003278582A04D039A20C920CAA02920BE0B2
:103070003BA2F9E75B46009AFDF7F4FA0C9B9B5CD8
:10308000029A521E0292137050EA0102F2D1029883
:1030900004A9081A00F1200B600702D524F480343B
:1030A00000E001275F4502DDA7EB0B0000E00020F8
:1030B00000EB0B01009003984944401A0390E00391
:1030C00006D453462146179A039800F0A9F90544FF
:1030D000002706E001A85246C05D179990476D1C75
:1030E0007F1C4F45F6DBE0030CD553462146179A6B
:1030F000039800F095F9054404E0302052461799F2
:1031000090476D1C0099481E00900029F5DC08E0EE
:103110000298029952460078491C029117999047EB
:103120006D1CBBF10001ABF1010BF1DC5BE100F0C8
:1031300065F90544761C307800287FF40DAE19B08F
:103140002846BDE8F08F00000928010030313233F5
:1031500034353637383961626364656600000000D3
:1031600030313233343536373839414243444546BD
:1031700000000000600700D4062708F1070020F0D7
:103180000700F0E80223804603F0004C5FEA0C00E1
:1031900001D097A009E0200501D596A005E0E00741
:1031A00001D095A001E0AFF24C001390307823F0ED
:1031B000004365280CD006DC452809D046281DD0E0
:1031C00047287FD13BE0662818D067287AD136E0BF
:1031D0000021112F01DB112000E0781CCDE9000156
:1031E00004A90CA8FFF7EEFCDDE90D010C9A4FF0E5
:1031F000000B07F10109109200914EE04FF00040E2
:103200000097CDE9011004A90CA8FFF7DBFCDDE96C
:103210000D020C9B0F994FF0000B914610930092FA
:1032200011B9791C00EB0109B7EB090003D4C0F117
:10323000FF3B07F10109A9EB0700019042E0012FD4
:1032400000DA01270021112F01DD112000E03846AE
:10325000CDE9000104A90CA8FFF7B4FCDDE90D01DC
:103260000C9A00914FF0000BB946109221070FD431
:10327000009A4A4503DA914601E0A9F10109B9F142
:10328000010F05DD109AA9F10101515C3029F4D03C
:10329000B84202DA10F1040F03DA0121CDE901107E
:1032A00010E0002803DC8344A9EB000102E0411C8C
:1032B000494500DD8946A0EB0B00401C01904FF012
:1032C00000400290200705D40198484502DB4FF0EA
:1032D000FF30019000208DF84B0002980DF14B0754
:1032E000B0F1004F25D002200C902B200D900298B9
:1032F00000280CDA404202902D200D9007E00A21B0
:103300000298FDF799F93031029007F8011D0C99E8
:10331000481E0C900029F2DC02980028EFD1791E9B
:103320000D980870307800F0200040F0450007F854
:10333000020D11A8C01BC01D02901398007800B1A7
:10334000012000EB0901019801EBE07102980144B2
:103350000398401A401E0390E00306D453462146CA
:10336000179A039800F05CF805441398007818B198
:103370005246179990476D1CE00323D553462146CA
:10338000179A039800F04CF805441BE0BBF1000FBE
:1033900007DB0098584504DD1098179910F80B00CA
:1033A00001E0179930205246904701980BF1010B2C
:1033B000401E05F10105019004D12E2052461799B7
:1033C00090476D1CB9F10001A9F10109DEDC05E0AF
:1033D00017F8010B5246179990476D1C0299481E29
:1033E00002900029F4DC53462146179A03989EE682
:1033F0002D0000002B000000200000002DE9F0410E
:10340000044600251E461746880404D405E03946C4
:103410002020B0476D1C641EF9D52846BDE8F08118
:103420002DE9F041044600251E469046C80301D50B
:10343000302700E02027880404D505E041463846BF
:10344000B0476D1C641EF9D52846BDE8F081000028
:103450001CB5FEF7D7FF054B0548CDE9000306492B
:10346000044AA1F1480000F00FF91CBD00401C46C1
:1034700000409C450000FA45140200202DE9F04769
:103480004D4802681068C0F300114C480174516A3D
:10349000B0F90840D36A04FB03154949456009683F
:1034A0000B68DFF82091C3F3001389F810304E6ADF
:1034B000B9F90830D1F82CC04FF4004A03FB0C6670
:1034C000C9F80460076848F21D0CA7EB0508D04551
:1034D00001DB641C03E0ED1B654507DD641E24B2BF
:1034E0000481556AD26A04FB02524260D9F8005046
:1034F0004C46AA1B524501DB5B1C03E0721B624574
:1035000007DD5B1E1AB222814B6AC96A02FB0131D8
:10351000616046688046F01BFDF737F82A49FCF7E2
:10352000D1FEDFF8A8904946FCF79AFEC8F80C00D7
:103530006768781BFDF729F8DFF894A05146FCF77F
:10354000C1FE4946FCF78CFEE060A6F5FE40FF3860
:10355000FDF71BF85146FCF7B5FE1E4D2946FCF75A
:103560007FFE0121FCF7ECFEFDF72CF8DFF86890F8
:103570001A4B4A46FCF797FFFDF737F8C8F81800D2
:10358000A7F5FE40FF38FDF700F85146FCF79AFE1C
:103590002946FCF765FE0121FCF7D2FEFDF712F883
:1035A0004A460F4BFCF77FFFFDF71FF8A061C8F8F4
:1035B00000602760BDE8F087AC0000205C020020BE
:1035C0003C01002078020020000082C40000C842B4
:1035D000000082449A999940894160E5D02209C04F
:1035E000D022094013B54FF47A730122694602488C
:1035F000FEF77BFD00981CBD8401002086B0FDF71E
:103600008DFCFEF7F0FFFEF7BFFDFEF71DFEFEF797
:1036100051FEFEF7A3FEFEF7F7FDFEF7D5FEFFF71E
:1036200017FFDFF844A0DFF844B000BFDAF80C0061
:10363000FCF7C8FF80468946DBF80000FCF7C2FFB4
:1036400006460B480F468069FCF7BCFF0446094854
:103650000D460068FCF7B6FF8DE8F00302460B4606
:1036600005A0FFF77FFAE1E77802002014000020B0
:103670005C0200201000002025662C25662C2566A3
:103680002C25660A0000000078B50E46DDE90545E8
:1036900000931346054A0021FEF785FF2346044A9E
:1036A000002130460095FEF77EFF78BD48000020DF
:1036B0009402002010B50A4B04680A4A9C4201DDBE
:1036C0001C4602E0944200D91446046008689842FF
:1036D00001DD1A4602E0904200D802460A6010BDA1
:1036E00000A00C4600A00CC62DE9F34701A96846CE
:1036F000FFF7E0FF354F0098354E364C364D4FF40E
:1037000080594FF4005AB84216D201224946204649
:10371000FDF7FCFA002251462046FDF7F7FA7069E2
:10372000FCF733FF00998846FCF742FDFCF736FFB3
:1037300029684863B84513D3002249462046FDF75F
:10374000E5FA012251462046FDF7E0FA7069FCF7E0
:103750001CFF0099FCF77EFDFCF720FF29684863F9
:103760001B4E01981C364FF480494FF4004AB84272
:1037700016D2002249462046FDF7C8FA01225146DA
:103780002046FDF7C3FA7069FCF7FFFE01998846F1
:10379000FCF70EFDFCF702FF29688863B84513D3D8
:1037A000012249462046FDF7B1FA00225146204643
:1037B000FDF7ACFA7069FCF7E8FE0199FCF74AFDE9
:1037C000FCF7ECFE29688863BDE8FC870000808078
:1037D0005C020020000C0140F40000200102020302
:1037E0000405060708090A0B0C0D0E0F1010000047
:1037F00000000000000001020304060708090000A1
:103800000000010203040000283800080000002026
:1038100058000000A42B0008803800085800002041
:1038200048060000B42B0008010000001000000052
:10383000000000000024F400000000000000000070
:103840000000000000000000000000000000000078
:10385000000000000000AF430000803F00007A44F9
:10386000CDCC4C3E000000BF000000000000000076
:103870000080BB4400007A430000A040000000002C
:0400000508000131BD
:00000001FF
