:020000040800F2
:100000005807002049010008592A00083B2600082B
:10001000CD29000885090008E9310008000000002A
:10002000000000000000000000000000AD2B0008F0
:100030008709000800000000AB2B0008AF2B000868
:100040006301000863010008630100086301000800
:1000500063010008630100086301000863010008F0
:1000600063010008630100086301000863010008E0
:1000700063010008630100086301000863010008D0
:1000800063010008630100086301000863010008C0
:1000900063010008630100086301000863010008B0
:1000A000630100086301000863010008152C0008C3
:1000B000212C00082D2C0008392C000863010008B1
:1000C0006301000863010008630100086301000880
:1000D00063010008DD3100086301000863010008C6
:1000E0006301000863010008630100086301000860
:1000F0006301000863010008630100086301000850
:10010000630100086301000863010008630100083F
:100110006301000863010008452C00086301000822
:10012000630100086301000863010008630100081F
:10013000DFF810D000F014FC00480047C13C000874
:10014000AFF3008058070020064880470648004764
:10015000FEE7FEE7FEE7FEE7FEE7FEE7FEE7FEE777
:10016000FEE7FEE7112C000831010008202A04DB1D
:10017000203A21FA02F00021704721FA02F3D04020
:10018000C2F120029140084319467047D2B201E003
:1001900000F8012B491EFBD270470022F6E710B58C
:1001A00013460A4604461946FFF7F0FF204610BDE5
:1001B000F0B480EA0102D40F4200B2EB410F02D248
:1001C0000246084611464A0042D0C30DDDB2C1F3D3
:1001D000C752AD1A202D35DAC1F3160141F40002E1
:1001E00004B15242C5F1200602FA06F12A41104438
:1001F000B3EBD05F23D0C4B1012DA0EBC35009DC19
:10020000F0BC4FF0004202EAC352DBB200F500003E
:1002100000F07BBA400000F1807000EBC350A0F109
:10022000807040EAD170490009E0490841EAC07194
:10023000A0EBC35000F50000400800EBC350F0BC39
:1002400000F05ABA6142012202EB4101001BF6E7BD
:10025000F0BC704781F00041AAE780F00040A7E7BA
:1002600080EA010210B502F00043400022D04A00AB
:100270001FD0010E01EB1261C0F35600C2F356020B
:1002800040F4000042F40002A0FB022000047F3989
:10029000140400D0401C50EA124001D44000491E12
:1002A000C2B20C0604EBD010401C4008802A02D0D9
:1002B00003E0002010BD20F00100002900DA00203A
:1002C000184310BD30B480EA010202F0004530F05E
:1002D000004221F0004013D090B1C30DD40DC2F301
:1002E0001601C0F31600E41A41F4000140F40002C4
:1002F0007D34914201D3641C00E04900002C02DAF5
:1003000030BC002070474FF400000023914201D31D
:10031000891A034340084FEA4101F7D151B1914294
:1003200002D14FF0004105E002D24FF0010101E09F
:100330006FF0010103EBC450284430BC00F0DCB97D
:10034000420005D0C0F3C7525242914201DC002066
:10035000704700EBC15070472DE9FE4F804681EA9F
:100360000300C00F0C46009021F0004123F000452F
:10037000B8EB0200A94105D24046214690461C46F2
:100380000B46024623F00040104347D0270DC7F329
:100390000A00C3F30A510290401A019040286BDA18
:1003A000C3F3130040F4801B0098924620B1002351
:1003B000D2EB030A63EB0B0B01985946C0F14002E4
:1003C000504600F078F906460D4650465946019AC7
:1003D00000F080F910EB08006141002487EA115217
:1003E00084EAE7731A4340D0009A62B3019A012A63
:1003F0004FEA075215DC001B61EB02014FF000428F
:1004000002EA0752CDE90042001C41F58011324654
:100410002B4600F0B7F903B0BDE8F08F4046214607
:10042000F9E7001B61EB0201001C41F58013001885
:100430005B412018A2F5001747EB030140EAD57095
:10044000B6196D4111E06D084FEA360645EAC075F0
:100450004FEA0752001B61EB0201001C41F58011BD
:1004600049084FEA30000019514132462B4603B08B
:10047000BDE8F04F00F077B900980122400000235A
:10048000D0EB020263EBE073009821464FEAE07480
:10049000B8EB000061EB0401E9E783F000435BE7A0
:1004A00081F0004158E72DE9FE4F81EA030404F092
:1004B000004421F0004100944FF0000B23F0004372
:1004C00050EA01045ED052EA03045BD0C3F30A543D
:1004D000C1F30A552C44A4F2F3340194A0FB025456
:1004E000C1F3130141F48011C3F3130343F48013E8
:1004F00001FB024400FB034E840A970A44EA81543C
:1005000047EA8357A4FB076802958D0A05FB078518
:100510004FEA932C04FB0C542705029D4FEA065822
:1005200047EA1637B5EB08056EEB070C870E920EFF
:1005300047EA811742EA8312A7FB0201B6EB0B01DF
:1005400064EB00042B0D43EA0C335E1844EB1C50A3
:10055000DA465146E7FB0201C5F313044FEA0B33B9
:1005600043EA14534FEA0432019C43EA0603A4F120
:100570000C040294009CCDE900B400F003F903B030
:10058000BDE8F08F00200146F9E7C10F80EAE07076
:100590000844CA079623002100F0B7B80EB540F210
:1005A000334102910021CDE900110A460B4600F0CB
:1005B000E9F803B000BD00F0004230F000400AD07E
:1005C000C10D01F56071C0F3160042EA0151C20885
:1005D00040071143704700200146704701F0004377
:1005E00030B421F0004150EA010206D00A0DA2F514
:1005F0006072C1F31301002A02DC30BC0020704796
:10060000440F44EAC104C100E01830BC00EBC25002
:1006100000F072B8002801DBC0F10040002901DBC6
:10062000C1F100418842704730B50B4601460020B9
:100630002022012409E021FA02F59D4205D303FAA4
:1006400002F5491B04FA02F52844151EA2F1010225
:10065000F1DC30BD2DE9F05F0546002092469B4657
:1006600088460646814640241BE0284641464746C8
:100670002246FFF77BFD53465A46C01A914110D3DC
:1006800011461846224600F016F82D1A67EB0108AD
:100690004F4622460120002100F00DF817EB00091B
:1006A0004E41201EA4F10104DFDC484631462A46B3
:1006B0004346BDE8F09F202A04DB203A00FA02F10D
:1006C000002070479140C2F1200320FA03F3194340
:1006D00090407047202A06DBCB17203A41FA02F0FF
:1006E00043EAE07306E041FA02F3D040C2F120028F
:1006F00091400843194670470029A8BF7047401C25
:10070000490008BF20F00100704710B4B0FA80FC27
:1007100000FA0CF050EA010404BF10BC704749B164
:10072000CCF1200421FA04F411FA0CF118BF0121D4
:1007300021430843A3EB0C01CB1D4FEA00614FEAB4
:10074000102042BF002010BC704700EBC350104483
:100750000029A4BF10BC7047401C490008BF20F00E
:10076000010010BC704710B5141E73F1000408DAC4
:10077000401C41F1000192185B411A4301D120F065
:10078000010010BD2DE9F04D92469B4611B1B1FA22
:1007900081F202E0B0FA80F220329046FFF78BFF40
:1007A00004460F4640EA0A0041EA0B0153465A4606
:1007B000084313D0114653EA010019D0C8F1400292
:1007C0005046FFF7D3FC05460E4650465946424672
:1007D000FFF771FF084305D0012004E020463946A9
:1007E000BDE8F08D0020054346EAE0762C43374310
:1007F0000A986305E40AA0EB08000022FD0A44EA17
:1008000047540A3002D500200146E9E701051019D6
:100810006941DDE9084500196941BDE8F04DA2E7ED
:100820002DE9F04D81EA030404F0004B21F000456E
:1008300014464FF0000A23F0004150EA050220D090
:1008400054EA01021DD0C5F30A570246C5F313034B
:10085000C1F31300C1F30A5640F4801543F480132A
:10086000A7EB0608101BD64608F2FD3873EB05000F
:1008700002D308F1010801E092185B41B8F1000FC2
:1008800003DA00200146BDE8F08D00204FF480110E
:10089000064684460EE0171B73EB050705D3121BB3
:1008A00063EB050306434CEA010C49084FEA3000AC
:1008B00092185B4150EA0107EDD152EA030012D0D1
:1008C00082EA040083EA0501084305D0101BAB410E
:1008D00006D20122002306E000224FF0004302E08E
:1008E0006FF0010253101AEB06004CEB085110EBAD
:1008F0000A0041EB0B01BDE8F04DFFF734BFC1F337
:100900000A52C1F3130140F2FF3341F480119A42BD
:1009100002DA00200146704740F233439A42A2F2C5
:10092000334202DC5242FFF721BCFFF7C4BE000095
:1009300030B5041E71F1000404DB4FF00044404266
:1009400064EB0101141E73F1000405DB1C464FF03B
:100950000043524263EB0403994208BF904230BD0A
:10096000064C074D06E0E06840F0010394E80700FC
:1009700098471034AC42F6D3FFF7DEFBD43D0008B5
:10098000F43D0008FEE7704772B6FEE710B590F838
:1009900021100022022905D00421816380F8202043
:1009A000012010BD01680B6823F00E030B60016885
:1009B0000B6823F001030B6090F84030C46B0121F9
:1009C00001FA03F3636080F8211080F820201046BC
:1009D00010BD00002DE9F05F90F8211000240229DD
:1009E00003D004218163012485E001680A6822F0B4
:1009F0000E020A6001680A6822F001020A603F4E96
:100A00003E4FB215DFF8F4C0DFF8F090DFF8ECA04D
:100A1000DFF8E8B0DFF8E4E00168783F1301150281
:100A2000ACF1640CA9F15009AAF13C0AABF1280B16
:100A3000AEF1140E4FF48018B14227D9B9420ED04E
:100A4000614512D049451DD0514518D0594518D09F
:100A5000714501D1424615E0294EB14201D1012232
:100A600010E0274E1436B14201D110220AE0244E84
:100A70002836B14206D0224A3C32914201D11A4670
:100A800000E02A461E49091F0A602BE0B94213D034
:100A9000614517D0494522D051451DD059451DD03B
:100AA000714501D142461AE0B14202D14FF0807245
:100AB00015E0134EB14201D1012210E0104E143660
:100AC000B14201D110220AE00D4E2836B14206D0C3
:100AD0000B4A3C32914201D11A4600E02A460749AE
:100AE00080394A60012180F82110002180F820100F
:100AF000416B01B188472046BDE8F09F800002406D
:100B00000804024070B5044600F010F90546601C68
:100B100002D004480078044400F008F9401BA042C9
:100B2000FAD370BD000000202DE9F84FDFF8C8911E
:100B30000024A9F1040B23460F2709F1040AABF1A5
:100B4000040ED1E00125A54006EA0502AA4276D1AD
:100B5000DFF8A8C14E68A6EB0C0866452BD00DDC6B
:100B6000032E34D005DC36B3012E19D0022E2FD13E
:100B70001BE0112E16D0122E2AD119E0B8F5881FCD
:100B800019D006DCB8F5803F15D0B8F5801F1FD10D
:100B900011E0B8F5001F0ED0B8F5041F18D10AE017
:100BA000CB6815E0CB681B1D12E0CB6808330FE063
:100BB000CB680C330CE08B682BB1012B4FF0080392
:100BC00003D0456104E0042302E0056100E0002356
:100BD000FF2A01D8064601E000F104064FEA840529
:100BE00001D9A5F12005D6F8008007FA05FC28EA0E
:100BF0000C0803FA05F548EA0508C6F800804D68B8
:100C0000ED0070D53E4DAE6946F00106AE61AD69AE
:100C100024F0030605F0010500953A4D06EB050C9E
:100C2000DCF80850A607360F07FA06F825EA08058B
:100C3000DFF8D480404503D14FF0000825E052E0B2
:100C4000DFF8C880404502D14FF001081DE0DFF811
:100C5000C080404502D14FF0020816E0DFF8B480B2
:100C6000404502D14FF003080FE0DFF8AC8040456B
:100C700002D14FF0040808E0DFF8A080404502D11F
:100C80004FF0050801E04FF0060808FA06F848EAB8
:100C90000508CCF808804D68D9F80060ED024D4693
:100CA00001D5164300E096432E604D68DAF80060E7
:100CB000AD02554601D5164300E096432E604D68BF
:100CC000DBF80060AD035D4601D5164300E09643B6
:100CD0002E604D68DEF80060ED03754601D51643C1
:100CE00000E096432E60641C0A681646E2407FF4DA
:100CF00029AFBDE8F88F0000080401400000111082
:100D0000001002400000014000080140000C0140BA
:100D1000001001400014014000180140001C014077
:100D20000AB1016170470904FBE7000001488068CF
:100D3000704700000000002070B5040025D094F832
:100D40003D00002520B984F83C50204600F0B8F85A
:100D5000242084F83D002068016821F00101016031
:100D60002068016841F4004101602068016821F4B5
:100D70000041016000F008FA4D4A6168914201D8D3
:100D80004C4900E04C49884201D2012070BD4B49DA
:100D90002368B0FBF1F15E6826F03F060E435E600B
:100DA0006368934206D94FF4967359434FF47A73AC
:100DB000B1FBF3F12368491C1E6A26F03F0631435C
:100DC00019626168914210D84900401EB0FBF1F2EF
:100DD000521CC2F30B02042A01D2042022E0B0FB11
:100DE000F1F0401CC0F30B001CE0A268F2B301EB71
:100DF000C10303EB0116431EB3FBF6F35B1C43F484
:100E000080431B0549D092B301EBC10202EB0111F3
:100E1000401EB0FBF1F0401CC0F30B0040F48040DA
:100E200040F400402168CA694CF6FF739A431043AE
:100E3000C861D4E9071001432068026822F0C002AB
:100E400011430160D4E9030101432068826848F23C
:100E5000FF339A4311438160D4E9050108432168B7
:100E6000CA6822F0FF021043C86001E00EE016E0FD
:100E70002068016841F0010101602564202084F8A8
:100E80003D00256384F83E50002070BD01EB410613
:100E9000431EB3FBF6F35B1CB3E70120C2E701EB93
:100EA0004101401EB0FBF1F0401CC0F30B00B7E75E
:100EB000A086010080841E0000093D0040420F0012
:100EC00010B586B000210091019102910391006854
:100ED000104988421BD1104CA06940F00800A06165
:100EE000A069694600F0080004904FF4406000904B
:100EF00012200190032003900848FFF715FEE069D7
:100F000040F48000E061E06900F48000049006B0E5
:100F100010BD00000058004000100240000C0140CD
:100F20000248816802781144816070470000002007
:100F3000074810B5016841F010010160032000F07E
:100F400075F80F2000F006F800F024F8002010BD1E
:100F50000020024070B50D4D04464FF47A71287898
:100F6000B1FBF0F00A490968B1FBF0F000F0E2FAD9
:100F700048B9102C07D200222146501E00F036F846
:100F800000206C6070BD012070BD000000000020DA
:100F90000C0000200C4808B5816941F00101816115
:100FA000816901F001010091C16941F08051C16185
:100FB000C06900F0805000900448416821F0E06171
:100FC00041F00071416008BD001002400000014086
:100FD000002809DB00F01F02012191404009800038
:100FE00000F1E020C0F8001170470000F0B40E4B93
:100FF0001B680C46C3F30223C3F10705042D00D977
:101000000425191D072901D2002300E0DB1E01265B
:1010100006FA05F1491E214099409E40761E164071
:101020003143F0BC02F0F2B80CED00E0064900F0EC
:10103000070208684FF6FF03184040EA0220034AFF
:1010400010430860704700000CED00E00000FA0556
:101050002DE9F0470F46050061D0434E306800F09F
:101060000700B84209D2306820F0070038433060EA
:10107000306800F00700B84251D128683B4C810726
:1010800012D5400703D5606840F4E06060602878BE
:10109000000703D5606840F4605060606068A9682C
:1010A00020F0F000084360602878C00728D0686806
:1010B000012810D02168022810D0890700292EDAD3
:1010C000616821F0030101436160FFF72FFE804654
:1010D00041F288390DE021688903EFE78901EDE7E6
:1010E000FFF724FEA0EB0801494502D90320BDE823
:1010F000F0876068696800F00C00B0EB810FEFD1F9
:10110000306800F00700B8420BD9306820F00700C3
:1011100038433060306800F00700B84201D0012049
:10112000E5E72878400705D56068E96820F4E060C5
:10113000084360602878000706D56068296920F4B4
:10114000605040EAC100606000F03EF86168084A03
:10115000C1F30311515CC8400649086006480068A5
:10116000FFF7F8FE0020C2E7002002400010024016
:10117000BA3D00080C00002004000020014800686F
:10118000704700000C0000200448054900684968C9
:10119000044AC1F30221515CC84070470C00002092
:1011A00000100240CA3D000804480549006849682B
:1011B000044AC1F3C221515CC84070470C000020B2
:1011C00000100240CA3D00080E4A51680E4801F066
:1011D0000C03042B11D0082B0FD10C48C1F383430F
:1011E000C903C05C0AD55168084AC1F34041921E48
:1011F000515C054A5043B0FBF1F070470449484345
:10120000704700000010024000127A00AA3D00085A
:1012100000093D002DE9F84F040070D02078C04D42
:10122000C00749D06868C0F38100012807D068680A
:10123000C0F38100022809D16868C00306D5286878
:10124000800339D560680028E7D035E06068B0F5E4
:10125000803F0BD010B1B0F5A02F11D0286820F43A
:1012600080302860286820F4802002E0286840F45C
:1012700080302860606890B1FFF758FD06460AE0AC
:10128000286840F480202860F0E700BFFFF74EFD9B
:10129000801B642873D828688003F7D50CE0FFF71B
:1012A00045FD064605E000BFFFF740FD801B6428B2
:1012B000F0D828688003F7D420789A4E80074FF042
:1012C00001094FF0000839D5686810F00C0F07D0FD
:1012D0006868C0F38100022809D16868C00306D499
:1012E0002868800714D52069012808D110E02069FA
:1012F000B0B1C6F80090FFF719FD074605E00AE116
:10130000FFF714FDC01B0228C4D828688007F7D552
:101310002868616920F0F80040EAC10028600DE00B
:10132000C6F80080FFF702FD074604E0FFF7FEFC69
:10133000C01B022823D828688007F7D4207800072C
:101340002CD57948A169D9B1C0F80090FFF7EEFC1F
:10135000074604E0FFF7EAFCC01B02280FD8686AC2
:101360008007F7D571484FF4FA510068B0FBF1F0EF
:10137000009000BF0098411E0091FAD20EE080E07C
:10138000C0F80080FFF7D2FC074604E0FFF7CEFC70
:10139000C01B022875D8686A8007F7D420784007F8
:1013A00060D5E8690027C00008D4E86940F08050A3
:1013B000E861E869012700F0805000905C4801680E
:1013C000C90513D40168834641F480710160FFF7B9
:1013D000ADFC824606E000BFFFF7A8FCA0EB0A00C8
:1013E00064284ED8DBF80000C005F5D5E068012878
:1013F0000AD008B1052813D0286A20F0010028621D
:10140000286A20F0040002E0286A40F00100286207
:10141000E06841F2883B98B1FFF788FC82460BE018
:10142000286A40F004002862EEE700BFFFF77EFC68
:10143000A0EB0A0159455AD8286A8007F6D50CE076
:10144000FFF774FC824605E0FFF770FCA0EB0A0191
:1014500059454CD8286A8007F6D41FB1E86920F0B6
:101460008050E861E06988B36968C1F381010229AD
:1014700044D00228C6F8608004D0FFF757FC044629
:1014800038E034E0FFF752FC074604E0FFF74EFC7B
:10149000C01B02282BD828688001F7D4206AB0F539
:1014A000803F05D16868A16820F400300843686077
:1014B000D4E908010843696821F47411084368609D
:1014C000C6F86090FFF732FC044606E025E000BF56
:1014D000FFF72CFC001B022809D828688001F7D5EB
:1014E0001BE000BFFFF722FC001B022802D90320EB
:1014F000BDE8F88F28688001F4D40EE00128F7D009
:101500006868226A00F48031914204D1616A00F473
:101510007010884201D00120EAE70020E8E70000CF
:101520000010024000004242800442420C000020B1
:101530000070004010B5401EB0F1807F01D3012043
:1015400010BD4FF0E02460610F21601701F05EFED6
:101550000020A06107202061002010BD7047704767
:1015600070B590F83C20012A2CD0012480F83C4032
:10157000022280F83D2003685A689D6822F07006B8
:101580000A6832435A60104B02689A420ED00F4BE1
:101590009A420BD0B2F1804F08D00D4B9A4205D041
:1015A0000C4B9A4202D00C4B9A4204D1496825F068
:1015B00080031943916080F83D40002180F83C1081
:1015C000084670BD022070BD002C0140003401406F
:1015D0000004004000080040000C004010B504006A
:1015E00003D094F83D0010B107E0012010BD0020A9
:1015F00084F83C00204600F01FF8022084F83D00EB
:10160000211D206801F024FB012084F8460084F8A5
:101610003E0084F83F0084F8400084F8410084F8DC
:10162000420084F8430084F8440084F8450084F8BC
:101630003D00002010BD000000B585B000210091E4
:101640000191029103912A4A01682A48914227D1C7
:10165000816941F400618161816901F40061049153
:10166000816941F0400181618069694600F0400074
:10167000049050150090022002901F48FFF754FA82
:101680001E48416821F0C00141F0E06141F0C00115
:101690004160002202211B20FFF7A8FC1B2010E064
:1016A000174A914211D1C16941F00201C161C0697B
:1016B000002200F00200049003211D20FFF796FC99
:1016C0001D20FFF785FC05B000BD0E4A9142FAD1FE
:1016D000C16941F01001C161C069002200F0100031
:1016E000049001213620FFF781FC3620E9E7000055
:1016F000002C014000100240001801400000014091
:10170000000400400010004090F83D10012901D075
:1017100001207047022180F83D100168CA6842F03C
:101720000102CA6000680E4988420ED00D49884205
:101730000BD0B0F1804F08D00B49884205D00B493F
:10174000884202D00A49884204D1816801F0070129
:10175000062903D0016841F00101016000207047B3
:10176000002C01400034014000040040000800400B
:10177000000C004070B5044690F83C00002501289C
:1017800017D0012684F83C60022084F83D002068D0
:10179000826822F0770222F47F4282600868502833
:1017A00038D00DDC20284FD005DC90B3102811D1A3
:1017B0004AE0022070BD302846D040280AD13BE0E4
:1017C00060282FD070280DD0B0F5805F03D0B0F521
:1017D000005F12D0012584F83D60002084F83C00B1
:1017E000284670BDCB68D1E90121206801F083FA59
:1017F0002068816841F0770109E0CB68D1E90121D7
:10180000206801F078FA2068816841F480418160A5
:10181000E1E719E0CA684968206801F041FB5021FE
:10182000206806E0CA684968206801F081FB6021F1
:10183000206801F06AFACEE7CA684968206801F0BA
:101840002FFB40212068F4E7226801461046F0E7AC
:101850002DE9F0410D46040003D094F83D0018B185
:1018600008E00120BDE8F081002084F83C0020461B
:1018700000F040F8022084F83D002068816844F2BE
:10188000070291438160211D206801F0E1F922687F
:1018900090689169166A2B68AF69034340F2033080
:1018A000814341EA0721A868EF6908434FF6FC41EC
:1018B0008843E96840EA0720014328692F6A00014C
:1018C00040EA0730084369686D6926F0220646EA57
:1018D0000515294393602268906154F8460B016214
:1018E000012004F81F09E0752076E0762077A075C6
:1018F0000020B7E700B585B0002100910191029169
:10190000039101682648B1F1804F2BD0254A9142BE
:1019100026D1C16941F00401C161C16901F004012E
:101920000491816941F0200181618069694600F07C
:10193000200004904FF4405000901B48FFF7F4F84B
:101940001A48416841F0E06141F480514160002251
:1019500011461E20FFF74AFB5FF01E00FFF738FB21
:1019600005B000BDC16941F00101C161C16901F06B
:1019700001010491816941F0040181618069694636
:1019800000F004000490032000900948FFF7CCF811
:10199000002211461C20FFF729FB1C20DEE7000077
:1019A0000010024000080040001401400000014007
:1019B0000008014070B590F83E60044690F83F5032
:1019C00090F8423090F84320022021B104290ED033
:1019D000012E1BD114E0012E18D1012B16D184F851
:1019E0003E0084F8420001220021206820E0012D01
:1019F0000CD1012A0AD184F83F0084F8430014E096
:101A0000012D03D1012B01D1012A01D0012070BD8C
:101A100084F83E0084F83F0084F8420084F84300D4
:101A200001220021206801F059F9012204212068D7
:101A300001F054F92068016841F0010101600020C3
:101A400070BD000070B51B4CA0421ED11A4E1B4D3C
:101A50003078D8B1012818D10021204600F0DEFBF3
:101A600068600021204600F06BF90020307021688A
:101A70004862D5E90010401A7060FEF78FFD104AE9
:101A8000104BFEF710FDC6E9020170BD00210948A8
:101A900000F0C4FB28602068016A21F00A0101629D
:101AA0002068016A41F0020101623078401C307008
:101AB00070BD0000C8000020600000204803002026
:101AC0009CC420B07268913F2DE9F041054690F822
:101AD0003C0000260C46012810D0012085F83C006F
:101AE00072B1042A1CD0082A2CD00C2A50D001260E
:101AF000002085F83C003046BDE8F0810220FBE77D
:101B0000D4E90012E368286801F0DCF928688169EB
:101B100021F00C01816128688169A26811430FE0FE
:101B2000D4E90012E368286801F014FA2868816992
:101B300021F44061816128688169A26841EA02213B
:101B40008161D5E72868D4E9002C277B036A016A04
:101B500021F480710162C16923F4007321F0030153
:101B600041EA0C0121F0F00C39074FF400774CEA00
:101B7000116107EA02221A43C16102622868C16941
:101B800021F00C01C1612868C169A26811432BE0F2
:101B90002868D4E90021E768036AD0F820C02CF453
:101BA000805CC0F820C0D0F81CC023F400532CF493
:101BB000407C4CEA012121F4704C4FF6FF7101EAA0
:101BC00007314FF4005741EA0C0107EA02321A4389
:101BD000C16102622868C16921F44061C16128685D
:101BE000C169A26841EA0221C16181E710B5040020
:101BF00003D094F83D0010B107E0012010BD002093
:101C000084F83C00204600F01EF8022084F83D00D5
:101C1000211D206801F01CF8012084F8460084F89A
:101C20003E0084F83F0084F8400084F8410084F8C6
:101C3000420084F8430084F8440084F8450084F8A6
:101C40003D00002010BD704730B50446002551B15D
:101C500004290DD0082910D094F8412094F84500AB
:101C6000012A11D10EE094F83E2094F84200F7E7E3
:101C700094F83F2094F84300F2E794F8402094F859
:101C80004400EDE7012801D0012030BD022059B108
:101C9000042912D0082919D084F8410084F845009D
:101CA0000C293ED001253AE084F83E0084F8420039
:101CB0002068C26842F0020210E084F83F0084F815
:101CC00043002068C26842F0040207E084F8400044
:101CD00084F844002068C26842F00802C260012211
:101CE000206800F0FBFF1149206888420ED010499F
:101CF00088420BD0B0F1804F08D00E49884205D001
:101D00000D49884202D00D49884204D1816801F012
:101D10000701062903D0016841F00101016028464E
:101D200030BD2068C26842F01002D7E7002C0140A5
:101D3000003401400004004000080040000C004056
:101D400070B50D0004464FF0000607D0042D0AD0F0
:101D5000082D0DD00C2D10D001262FE02068C16871
:101D600021F002010DE02068C16821F0040108E0C3
:101D70002068C16821F0080103E02068C16821F0F3
:101D80001001C16000222946206800F0A7FF2068EA
:101D9000016A41F21112114207D1016A92101142F7
:101DA00003D1016821F001010160012045B1042D3A
:101DB00009D0082D0AD004F8410F2071304670BDBB
:101DC00004F83E0FF9E704F83F0FF6E704F8400F78
:101DD000F3E770B50446006801694FF00005C94398
:101DE000890715D4C168C943890711D4E91E016167
:101DF00001202077206880698007204602D0FFF705
:101E000021FE04E000F0BEF8204600F050F92577EE
:101E100020680169C943490717D4C168C943490704
:101E200013D46FF0040101610220207720688069DB
:101E300010F4407F204602D0FFF704FE04E000F0DB
:101E4000A1F8204600F033F9257720680169C943DD
:101E5000090716D4C168C943090712D46FF00801F5
:101E60000161042020772068C0698007204602D0E5
:101E7000FFF7E8FD04E000F085F8204600F017F9D0
:101E8000257720680169C943C90617D4C168C943C9
:101E9000C90613D46FF01001016108202077206873
:101EA000C06910F4407F204602D0FFF7CBFD04E06C
:101EB00000F068F8204600F0FAF8257720680169FC
:101EC000C943C90708D1C168C943C90704D1891EDC
:101ED0000161204600F046F920680169C9430906FE
:101EE00009D4C168C943090605D46FF080010161B6
:101EF0002046FFF733FB20680169C943490609D42E
:101F0000C168C943490605D46FF04001016120460C
:101F100000F099F920680169C94389060BD4C168AA
:101F2000C943890607D46FF0200101612046BDE84E
:101F30007040FFF714BB70BD00B585B00021009163
:101F400001910291039100680B49884211D10B481D
:101F5000816941F0040181618069694600F00400F3
:101F60000490C02000900220019003900448FEF7E6
:101F7000DBFD05B000BD0000000400400010024081
:101F800000080140704770B5044690F83C000026F8
:101F90000D4601280FD0012084F83C006AB1042AC4
:101FA0001DD0082A2FD00C2A3FD00126002084F80B
:101FB0003C00304670BD022070BD206800F0AEFECF
:101FC0002068816941F0080181612068816921F000
:101FD00004018161206881692A69114311E0206848
:101FE00000F0CCFE2068816941F4006181612068C5
:101FF000816921F480618161206881692A6941EAEF
:1020000002218161D2E7206800F0EEFE2068C169FC
:1020100041F00801C1612068C16921F00401C1617A
:102020002068C1692A69114311E0206800F010FF9F
:102030002068C16941F40061C1612068C16921F46F
:102040008061C1612068C1692A6941EA0221C161D8
:10205000ACE710B5040003D094F83D0010B107E0E0
:10206000012010BD002084F83C00204600F01EF83E
:10207000022084F83D00211D206800F0E9FD0120C8
:1020800084F8460084F83E0084F83F0084F840005D
:1020900084F8410084F8420084F8430084F8440046
:1020A00084F8450084F83D00002010BD704770475B
:1020B00010B50446022249B104290ED0082913D0D4
:1020C00094F84100012816D0012010BD94F83E007C
:1020D0000128F9D184F83E200FE094F83F00012850
:1020E000F2D184F83F2008E094F840000128EBD1B9
:1020F00084F8402001E084F841200122206800F0AB
:10210000EDFD13492068134A884201D0904203D163
:10211000436C43F400434364206888420DD09042EE
:102120000BD0B0F1804F08D00B49884205D00B4945
:10213000884202D00A49884204D1816801F007012F
:10214000062903D0016841F001010160002010BDA3
:10215000002C014000340140000400400008004011
:10216000000C00402DE9F04124490546006809684B
:1021700088421ED101F0ECFC214E224C2248F1692C
:10218000226800F06AFC214F60601F48F9692268EC
:1021900000F063FCA0601C48F1684838626800F0F9
:1021A0005CFCE0601848F9684838A26800F055FC0B
:1021B000206117492868096888421DD10122154D00
:1021C000940221462846FEF7ABFD0F2001F0B2FC39
:1021D000002221462846FEF7A3FD0F4801680A6A3F
:1021E00022F00A020A620068016A0162BDE8F04159
:1021F00000210948FFF728BDBDE8F0815801002003
:102200000803002018000020C0020020280300203E
:10221000E801002000140140C80000200246002010
:1022200041B1042909D008290AD00C2901D110682C
:10223000006C70471068406B70471068806B704787
:102240001068C06B7047704770477047F8B50168F9
:1022500004460868CA684B6910F00F0F4FF000057C
:1022600059D003F0010602F49077374365D0C107D7
:1022700005D0D10503D5616C41F0010161644107CE
:1022800005D5D90703D0616C41F002016164810773
:1022900005D5D90703D0616C41F0040161640107E1
:1022A00007D502F02001314303D0616C41F00801F1
:1022B0006164616C00293AD0800604D5900602D58D
:1022C000204600F091FE20684069616CC0F38010E8
:1022D000090700D460B3204600F05FFE2068406923
:1022E000400621D52068143050E8001F21F040013D
:1022F00040E80012002AF5D1E06BA8B16D494163B6
:10230000E06BFEF767FB002811D0E06B416B01B07A
:10231000BDE8F040084783060FD593060DD520464B
:10232000BDE8F84000F060BE2046FFF78EFFF8BD24
:102330002046FFF78AFF6564F8BD266B2023012E37
:102340007CD1C6067AD5D60678D50868486800904C
:1023500048694FF00206400640D5E16B08684068C6
:102360000004000CE8D0A28D8242E5D9E08588699E
:1023700020282DD020680C3050E8001F21F48071F7
:1023800040E80012002AF5D12068143050E8001F00
:1023900021F0010140E80012002AF5D12068143034
:1023A00050E8001F21F0400140E80012002AF5D15A
:1023B00084F84230256320680C3050E8001F21F07B
:1023C000100140E80012002AF5D1E06BFEF7DEFABA
:1023D0006663A08DE18D401A81B22AE0A08DE18D67
:1023E000401A81B2E08D0028A6D00029A4D022682E
:1023F0000C3252E8000F20F4907042E80007002FE2
:10240000F5D12068143050E8002F22F0010240E896
:102410000027002FF5D184F84230256320680C3066
:1024200050E8002F22F0100240E80023002BF5D1E5
:1024300066632046FFF708FFF8BDFFE705062BD5CA
:10244000150629D594F841002128F5D1A068B0F5EA
:10245000805F01D12069B0B1206A411C21622168EE
:1024600000784860E08C401E0004000CE084E3D15A
:102470002068C16821F08001C1602068C16841F016
:102480004001C160D8E7206A0088C0F308004860B6
:10249000206A801C2062E5E74006CDD55006CBD5EA
:1024A000CA68204622F04002CA6084F8413000F039
:1024B000C3F8C1E78B2F000870B5040004D094F86E
:1024C0004100002510B106E0012070BD84F84050A5
:1024D000204600F023F8242084F841002068C168D9
:1024E00021F40051C160204600F0E0FD2068016940
:1024F00021F4904101612068416921F02A01416184
:102500002068C16841F40051C1606564202084F8EE
:10251000410084F842006563002070BD30B585B08D
:10252000002400940194029403940068184988429E
:102530002CD11848816941F480418161816901F49D
:1025400080410491816941F0040181618069124DEB
:1025500000F0040004904FF40070009002200190FD
:102560000320039069462846FEF7DEFA2815CDE9D8
:102570000004694628460294FEF7D6FA0022114666
:102580002520FEF733FD2520FEF722FD05B030BDE6
:1025900000380140001002400008014070472DE95A
:1025A000F843044690F841001F4616460D46202881
:1025B00002D00220BDE8F8837DB176B100206064CE
:1025C000212084F84100FEF7B1FBA6848046E68412
:1025D000A068B0F5805F02D003E00120EAE720693F
:1025E00010B12E4600250EE000260CE0802120468A
:1025F00000F0B8FDA0B9AEB116F8010B2168486033
:10260000E08C401EE084E08C43464FF000020097CF
:102610000028EBD14FF04001204600F0A3FD30B17F
:102620000320C7E735F8020BC0F30800E6E72020D7
:1026300084F841000020BDE77047FEE72DE9F04136
:1026400086B0002428480094019402940394816980
:1026500041F010018161816901F0100104918169EB
:1026600041F004018161816901F0040104918169F3
:1026700041F040018161816901F04001049181696B
:1026800041F008018161816901F0080104918169CB
:1026900041F0200181618069144F00F020004FF467
:1026A00070450490002229463846FEF739FBDFF8D2
:1026B00040803E15002231464046FEF731FB009532
:1026C0000125CDE901540224694638460394FEF7FA
:1026D0002BFA0096CDE90154694640460394FEF773
:1026E00023FA06B0BDE8F08100100240000C014062
:1026F000001401400D4810B50B4901600C494160C0
:1027000000214FF480428160C0E903124161816180
:10271000C1610162FEF710FB002803D0BDE8104044
:10272000FEF732B910BD00000058004074000020D0
:10273000801A060010B58AB000242348049405943A
:1027400006940794089409940094019402941D49F6
:10275000039401604721C0E901144FF6FF71C0E9FD
:1027600003148021C0E90541FEF738FF08B1FEF7E8
:102770000BF94FF48050049004A91348FEF7FAFFB8
:1027800008B1FEF701F91048FFF730FA08B1FEF77B
:10279000FBF8089408A90C480994FEF7E1FE08B17B
:1027A000FEF7F2F80120CDE90040029400226946CC
:1027B00005480394FFF788F9002801D0FEF7E4F8F4
:1027C0000AB010BD002C0140C800002010B58CB02C
:1027D00024216846FDF7E1FC0024164809944FF0D7
:1027E00080410A94C0E900144FF6FF71C0E902412C
:1027F000046184610320CDE900040120CDE90204D5
:102800000F210491CDE90540CDE90741694609480A
:10281000FFF71EF808B1FEF7B7F8099409A90548B3
:102820000A94FEF79DFE002801D0FEF7ADF80CB02B
:1028300010BD00001001002010B58EB000240794D8
:10284000089409940A940B941C2168460C94FDF793
:10285000A4FC2248204901604721C0E9011442F24A
:102860000F71C0E903148461FEF7B8FE08B1FEF7EA
:102870008BF84FF48050079007A91848FEF77AFFAD
:1028800008B1FEF781F81548FFF7E3FB08B1FEF742
:102890007BF80B940BA911480C94FEF761FE08B16C
:1028A000FEF772F86020CDE9000402940022694628
:1028B0000A480494FFF767FB08B1FEF765F80422A5
:1028C00069460648FFF75FFB08B1FEF75DF803486D
:1028D000FFF732FB0EB010BD00040040580100208D
:1028E00010B58CB024216846FDF757FC002416482B
:1028F000099414490A94C0E900144FF6FF71C0E925
:102900000241046184610320CDE900040120CDE986
:1029100002040F210491CDE90540CDE90741694644
:102920000948FEF795FF08B1FEF72EF8099409A9AA
:1029300005480A94FEF714FE002801D0FEF724F89B
:102940000CB010BD00080040A00100201CB5002400
:102950000F4800940D490194016040F2CF21C0E975
:10296000011441F65731C16080218161FEF736FEC6
:1029700008B1FEF709F80094694605480194FEF78E
:10298000EFFD002801D0FDF7FFFF1CBD0010004047
:10299000E80100200C4810B50A4901604FF4E1310C
:1029A0004160002181600C22C160C0E90412816194
:1029B000C161FFF781FD002803D0BDE81040FDF79D
:1029C000E3BF10BD0038014030020020FEE70000E8
:1029D00070B53C211C48FEF7EDFF3C211B48FEF77B
:1029E000E9FF194C2068C16841F00101C160174D31
:1029F0002868C16841F00101C1601548FEF784FEF6
:102A000004211348FFF754FB00211148FFF750FB46
:102A1000216847F6FF704862296848620D494FF403
:102A2000827001F120028861FA2090610020086024
:102A300048600881C8600875C861106050601081E6
:102A4000D0601075D06170BD10010020A001002081
:102A50005801002008030020FEE72DE9F04704009C
:102A600011D0206C60648146E06B2064C4E90621CB
:102A700080461046FDF7EEFB0546E063207828B15E
:102A800001283BD038E00020BDE8F0872946606887
:102A9000FDF7E6FB60622946A068FDF7E1FBA16A4D
:102AA000FDF786FB0646A062606BA063206B606347
:102AB00041462846FDF7CEFB01462063E068FDF75E
:102AC000CFFBE06230466169FDF7A4FD606908D381
:102AD00080F00040A16AFDF79DFD03D2606980F09F
:102AE0000040A062D4E90901FDF762FBE16A31E030
:102AF000206980F000402062206AC5E741462846F0
:102B0000FDF7A8FB6168FDF7ABFB0746606229464D
:102B1000A068FDF7A5FB0646A062606BA063206B72
:102B2000606301214046FDF70BFC2946FDF795FB4C
:102B30004946FDF73DFB01462063E068FDF790FB49
:102B40000546E06231463846FDF732FB2946FDF77F
:102B50002FFB216AFDF72CFB20622169FDF75AFD4E
:102B60002069C8D380F00040216AFDF753FDC3D22D
:102B7000BEE710B50028029C16D0002A14D00170C0
:102B8000116841605168816000F10C0C91688CE81B
:102B90001A0000218163416301630162C1628162A5
:102BA000416241640164C16310BD70477047FEF724
:102BB000B7B930B58FB028216846FDF7EEFA142179
:102BC0000AA8FDF7EAFA01210804CDE90010002463
:102BD000029402250491CDE907504FF4E0100990CA
:102BE0006846FEF717FB08B172B6FEE70F20CDE985
:102BF0000A054FF48060CDE90C4002210AA80E942A
:102C0000FEF726FA002801D072B6FEE70FB030BDFD
:102C1000704700000148FFF7DCB80000C800002042
:102C20000148FFF7D6B80000100100200148FFF767
:102C3000D0B80000580100200148FFF7CAB80000D2
:102C4000A00100200148FFF7C4B80000E8010020FF
:102C5000F0B502681C4B1D4D1D4E1E4F1E4C4FF013
:102C6000804C984209D0A04207D0604505D0A842C8
:102C700003D0B04201D0B84204D122F0700E4A68AD
:102C800042EA0E02984209D0A04207D0604505D022
:102C9000A84203D0B04201D0B84203D122F440751B
:102CA000CA682A434D6922F080022A4302608A687A
:102CB000C2620A688262984201D0A04201D10969C9
:102CC000016301214161F0BD002C0140000400407E
:102CD00000080040000C00400034014010B501F035
:102CE0001F030121046A99408C430462016A9A40DF
:102CF0001143016210BD10B5846842EA032224F436
:102D00007F440A432243826010BD826822F0700231
:102D10000A4342F00701816070470000F0B5036A82
:102D2000026A22F00102026242688469124E24F0B3
:102D300073050C682C4323F002058B682B430D4D63
:102D4000A84201D0B04205D123F00807CB683B432D
:102D500023F00403A84201D0B04205D14D6922F40A
:102D6000407215438A692A4342608461496841631D
:102D70000362F0BD002C014000340140F0B5026A4E
:102D8000036A23F010030362436884690D6824F426
:102D9000E64444EA05248D6822F0200242EA051246
:102DA0000F4D104EA84201D0B04206D1CF6822F09C
:102DB000800242EA071222F04002A84201D0B0424B
:102DC00007D14D6923F4406343EA85038D6943EAE3
:102DD000850343608461496881630262F0BD00003D
:102DE000002C014000340140F0B5026A036A23F46C
:102DF000807303624368C46922F4007224F073058F
:102E00000C68124E2C438D6842EA05220E4DA842F2
:102E100001D0B04206D1CF6822F4006242EA072214
:102E200022F48062A84201D0B04207D14D6923F458
:102E3000405343EA05138D6943EA05134360C461B7
:102E40004968C1630262F0BD002C014000340140BA
:102E500030B5046A026A22F4805202624268C36991
:102E60000D6823F4E64343EA05238D6824F40054F7
:102E700044EA0534084DA84202D0084DA84204D1C6
:102E80004D6922F4804242EA85124260C36149687A
:102E90000164046230BD0000002C01400034014098
:102EA00010B5036A046A24F001040462846924F002
:102EB000F00444EA021423F00A020A438461026225
:102EC00010BD000070B5056A046A24F001040462B4
:102ED0008469124EB0420ED0114EB0420BD0B0F108
:102EE000804F08D00F4EB04205D00F4EB04202D0F6
:102EF0000E4EB04203D124F00304144301E044F029
:102F000001041A0724F0F00444EA126225F00A03CF
:102F100001F00A0119438261016270BD002C014079
:102F2000003401400004004000080040000C004054
:102F300010B5036A046A24F010040462846923F063
:102F4000A00324F4704444EA023243EA011182618E
:102F5000016210BD30B5046A056A25F010050562EE
:102F6000856925F4407545EA022222F470454FF642
:102F7000FF7202EA033224F0A0032A43A02404EAE9
:102F8000011119438261016230BD10B5406A002110
:102F9000C185C184FFF759F910BD01680C3151E8B2
:102FA000002F22F4907241E80023002BF5D1016834
:102FB000143151E8002F22F0010241E80023002BD8
:102FC000F5D1016B012909D101680C3151E8002FBD
:102FD00022F0100241E80023002BF5D1202180F8D7
:102FE000421000210163704708B590F84210222971
:102FF00001D0022008BD82684FF480539A4201D16B
:10300000016921B1816A9A421BD04AB10AE0026883
:10301000816A5268C2F308020A80816A891C08E04A
:10302000026972B10268526802F07F020A70816A16
:10303000491C8162C18D491E0904090CC18503D058
:103040001BE002685268F1E70168CA6822F02002BA
:10305000CA600168CA6822F48072CA6001684A695D
:1030600022F001024A61202180F8421000214163D0
:10307000026B012A03D0FFF791FA002008BD01631B
:1030800001680C3151E8002F22F0100241E80023C2
:10309000002BF5D101680A68D20602D50A68496892
:1030A0000091818DFFF7D0F8E7E7000070B5044686
:1030B00000680169E26821F440511143016121690E
:1030C000A0680843616908432168CA6841F20C633B
:1030D0009A430243CA6020684169A26921F44071A1
:1030E000114341611E492068884202D1FEF75CF815
:1030F00001E0FEF749F800EBC00101EB0012606847
:1031000064218000B2FBF0F3B3FBF1F36FF018061B
:103110007343B2FBF0F5B2FBF0F605EB8305322307
:1031200003EB0515B5FBF1F5B6FBF1F605F0F0057F
:1031300005EB0615B2FBF0F6B2FBF0F0B0FBF1F0D8
:103140006FF01802504306EB800003EB0010B0FB59
:10315000F1F0216800F00F002844886070BD000085
:10316000003801402DE9F041984617460E460446C6
:10317000069D27E0681C25D02DB1FDF7D7FDA0EBFB
:103180000800A8421ED920680C3050E8001F21F426
:10319000D07140E80012002AF5D12068143050E8C0
:1031A000001F21F0010140E80012002AF5D1202083
:1031B00084F8410084F84200002084F84000032095
:1031C000BDE8F0812068006836EA000004D00020E5
:1031D000B842CFD00020F3E70120F9E70148FFF71C
:1031E00035B8000030020020FEE700000FB4054BA8
:1031F00010B503A9044A029800F0EAF810BC5DF883
:1032000014FB0000A93C0008700000200907090E0B
:10321000002804DB00F1E02080F80014704700F083
:103220000F0000F1E02080F8141D704702E008C88C
:10323000121F08C1002AFAD170477047002001E030
:1032400001C1121F002AFBD1704700002DE9FF5F6A
:1032500082B00021DDE90430020DDDF840B0034307
:1032600018D044F61050A2F2FF32424315141198C0
:1032700001281FD0A5EB0B00401C5FEA000A4FF0AD
:1032800000064E4FDFF83891B046504615D5CAF1CA
:10329000000413E0119801244AA3012801D16FEA28
:1032A0000B010298119AC0E90031C0E9024206B050
:1032B000BDE8F09FCBF10000DFE704460021404A63
:1032C000491842EB0450CDE9001012E0E00707D0A6
:1032D00032463B4640464946FDF7E5F8804689467A
:1032E00032463B4610461946FDF7DDF806460F46C6
:1032F0006410002CEAD1DDE90401DDE90023BAF114
:10330000000F06DAFDF7CFF842464B46FDF7CBF843
:1033100005E0FDF785FA42464B46FDF781FA044683
:103320000E460022284BFDF703FB03D84FF0FF3079
:10333000014607E00022254B20463146FDF70CF8F8
:10334000FDF7DDFA102409E0002C0ADB0A22002335
:10335000FDF780F9039B30321A55641E50EA0102D2
:10336000F2D1641C039AC4F111031444119A012A86
:1033700003D0012208430DD10AE0084304D0002005
:103380004FF0110B119072E7A3EB0B056D1E0DE0D2
:103390005B4504DD4FF0000205F1010504E003DAAE
:1033A0004FF00002A5F10105002AECD00298119916
:1033B000C0E90231C0E9004579E70000000014408F
:1033C0000000F03F300000000000F0430000E03F4C
:1033D0002DE9FF4F95B09A46884606460025EEE156
:1033E000252877D100242746F94A0121039400E0DB
:1033F000044316F8013F203B01FA03F01042F7D1D5
:1034000030782A2811D06FF02F033078A0F13002E5
:10341000092A16D8039A44F0020402EB820203EB55
:1034200042021044761C0390EFE758F8042B0392F5
:10343000002A03DA504244F40054039044F002049A
:10344000761C30782E2816D116F8010F44F00404AB
:103450002A280DD06FF02F023078A0F13003092B0D
:1034600009D807EB870302EB4303C718761CF3E781
:1034700058F8047B761C30786C280FD006DC4C287A
:1034800017D068280DD06A2814D104E0742810D011
:103490007A280FD10DE044F400140AE044F48014BB
:1034A00001E044F440147278824202D104F58014A1
:1034B000761C761C307866280BD013DC582877D021
:1034C00009DC002875D04528F6D04628F4D04728D6
:1034D0001AD193E118E0632835D0642879D06528A3
:1034E00012D18BE1702873D008DC6728F1D06928ED
:1034F0006FD06E280DD06F2806D1ACE073282CD089
:10350000752874D0782853D05246179990476D1C6F
:1035100054E1C4F30250022809D003280DD0D8F892
:10352000001004280DD00D6008F1040846E1D8F819
:103530000010EA17C1E90052F6E7D8F800100D8034
:10354000F2E70D70F0E718F8041B8DF8001000206A
:103550008DF80100EB46012003E058F804BB4FF062
:10356000FF3061074FF0000102D40DE009F10101C5
:103570008946B9420FDA8145F8DB1BF809100029AA
:10358000F4D108E009F1010189468142FADB1BF818
:1035900009100029F6D103985346A0EB09072146EC
:1035A0003846179A00F080FA284400EB090507E036
:1035B00044E008E10DE01BF8010B524617999047D3
:1035C000B9F10109F7D2534621463846179AF2E07D
:1035D00039E00A21C4F302524FF0000B0091022A95
:1035E00006D058F8040BC117032A09D00AE023E0DB
:1035F00008F1070020F00702F2E80201904605E01A
:1036000000B2C117042A01D140B2C117002906DA5D
:103610000A460021404261EB02012D2202E0220510
:1036200004D52B228DF80420012203E0E20701D00B
:103630002022F7E7914657E00A2100E010214FF0E1
:10364000000B00910BE010214FF0000B44F004043C
:103650000827009103E008204FF0000B0090C4F30E
:103660000252022A05D058F8040B0021032A08D080
:1036700008E008F1070020F00702F2E80201904696
:1036800003E080B2042A00D1C0B24FF00009220743
:103690002AD53278702A07D0DDF800C08CF0100CE3
:1036A0005CEA0B0C05D00EE040228DF804200122CC
:1036B00008E050EA010306D030238DF804308DF87D
:1036C000052002229146009B83F0080353EA0B0376
:1036D0000AD150EA010201D1620705D530228DF8E6
:1036E00004204FF001097F1E3278582A04D039A2F5
:1036F0000C920CAA02920BE03BA2F9E75B46009AFF
:10370000FCF7A8FF0C9B9B5C029A521E029213705E
:1037100050EA0102F2D1029804A9081A00F1200B24
:10372000600702D524F4803400E001275F4502DD04
:10373000A7EB0B0000E0002000EB0B0100900398CA
:103740004944401A0390E00306D453462146179A91
:10375000039800F0A9F90544002706E001A85246A5
:10376000C05D179990476D1C7F1C4F45F6DBE00349
:103770000CD553462146179A039800F095F9054455
:1037800004E030205246179990476D1C0099481E5E
:1037900000900029F5DC08E0029802995246007872
:1037A000491C0291179990476D1CBBF10001ABF1C8
:1037B000010BF1DC5BE100F065F90544761C307823
:1037C00000287FF40DAE19B02846BDE8F08F000048
:1037D00009280100303132333435363738396162E7
:1037E00063646566000000003031323334353637AB
:1037F000383941424344454600000000600700D488
:10380000062708F1070020F00700F0E802238046B1
:1038100003F0004C5FEA0C0001D097A009E02005FE
:1038200001D596A005E0E00701D095A001E0AFF238
:103830004C001390307823F0004365280CD006DC50
:10384000452809D046281DD047287FD13BE066286F
:1038500018D067287AD136E00021112F01DB112022
:1038600000E0781CCDE9000104A90CA8FFF7EEFCEC
:10387000DDE90D010C9A4FF0000B07F101091092E0
:1038800000914EE04FF000400097CDE9011004A9EF
:103890000CA8FFF7DBFCDDE90D020C9B0F994FF044
:1038A000000B91461093009211B9791C00EB0109AD
:1038B000B7EB090003D4C0F1FF3B07F10109A9EB05
:1038C0000700019042E0012F00DA01270021112FAB
:1038D00001DD112000E03846CDE9000104A90CA863
:1038E000FFF7B4FCDDE90D010C9A00914FF0000BDD
:1038F000B946109221070FD4009A4A4503DA91463F
:1039000001E0A9F10109B9F1010F05DD109AA9F152
:103910000101515C3029F4D0B84202DA10F1040FF1
:1039200003DA0121CDE9011010E0002803DC834413
:10393000A9EB000102E0411C494500DD8946A0EBEE
:103940000B00401C01904FF000400290200705D46E
:103950000198484502DB4FF0FF30019000208DF8C0
:103960004B0002980DF14B07B0F1004F25D002201B
:103970000C902B200D90029800280CDA4042029007
:103980002D200D9007E00A210298FCF74DFE303102
:10399000029007F8011D0C99481E0C900029F2DCDA
:1039A00002980028EFD1791E0D980870307800F049
:1039B000200040F0450007F8020D11A8C01BC01DF3
:1039C00002901398007800B1012000EB09010198E2
:1039D00001EBE071029801440398401A401E0390E5
:1039E000E00306D453462146179A039800F05CF88A
:1039F00005441398007818B15246179990476D1CEA
:103A0000E00323D553462146179A039800F04CF85B
:103A100005441BE0BBF1000F07DB0098584504DDAF
:103A20001098179910F80B0001E0179930205246B2
:103A3000904701980BF1010B401E05F10105019023
:103A400004D12E205246179990476D1CB9F1000100
:103A5000A9F10109DEDC05E017F8010B52461799C0
:103A600090476D1C0299481E02900029F4DC5346D1
:103A70002146179A03989EE62D0000002B000000B7
:103A8000200000002DE9F041044600251E4617469F
:103A9000880404D405E039462020B0476D1C641E1C
:103AA000F9D52846BDE8F0812DE9F041044600250E
:103AB0001E469046C80301D5302700E02027880421
:103AC00004D505E041463846B0476D1C641EF9D563
:103AD0002846BDE8F0810000D0E90012891AB1F54E
:103AE000004F02DB0189491C08E0054906C9511A4B
:103AF00048F21D02914202DD0189491E0181704791
:103B0000080300201CB5FEF763FF00F039F9054BF0
:103B10000548CDE900030649044AA1F1480000F038
:103B200019F91CBD00401C4600409C450000FA45A8
:103B3000C002002010B50446FDF720FB0349B0FB8E
:103B4000F1F16143491EFDD210BD000000093D00A6
:103B50002DE9F84F474E30680068474C474BC0F39B
:103B60000010207518680068454DC0F300102875D6
:103B70002046FFF7B1FF2846FFF7AEFF3068416AE5
:103B8000B4F90820C06A02FB001767601868416A30
:103B9000B5F90820C06A02FB00166E602068381A6A
:103BA000FCF7F3FC3749FCF78DFBDFF8DC8041467E
:103BB000FCF756FB81462868301AFCF7E6FC3349CF
:103BC000FCF780FB4146FCF74BFBDFF8C4B08046B6
:103BD00059462069FCF744FBDFF8B8A00090514635
:103BE0004846FCF73DFB0099FCF7E2FAE0605946D5
:103BF0002869FCF735FB814651464046FCF730FB0F
:103C00004946FCF7D5FAE860A7F5FE40FF38FCF717
:103C1000BCFC1E49FCF756FBDFF87C804146FCF7F4
:103C20001FFB0121FCF78CFBFCF7C5FCDFF86C9057
:103C30001B4B4A46FCF737FCFCF7D0FCE061A6F5CD
:103C4000FE40FF38FCF7A1FC1049FCF73BFB414666
:103C5000FCF706FB0121FCF773FBFCF7ACFC4A46C2
:103C6000104BFCF720FCFCF7B9FCE86127602E60E4
:103C7000BDE8F88F1001002008030020A0010020FB
:103C800028030020000082C40000C84200008244D3
:103C9000CCCC4C3ECDCC4C3F9A999940894160E5C3
:103CA000D02209C0D022094013B54FF47A73012203
:103CB00069460248FEF773FC00981CBD30020020E4
:103CC00086B0FDF735F9FEF774FFFEF7B7FCFEF797
:103CD0007DFDFEF7B1FDFEF703FEFEF70BFDFEF7DF
:103CE00059FEFEF733FEFEF725FDFFF70BFFDFF869
:103CF00044A0DFF844B000BFDAF80C00FCF75BFC2E
:103D000080468946DBF80000FCF755FC06460B4868
:103D10000F46C069FCF74FFC044609480D46006891
:103D2000FCF749FC8DE8F00302460B4605A0FFF7BF
:103D30005DFAE1E7280300201400002008030020BA
:103D40001000002025662C25662C25662C25660A89
:103D50000000000078B50E46DDE9054500931346E6
:103D6000064A0021FEF705FF044A23460C320021D3
:103D700030460095FEF7FDFE78BD000048000020AB
:103D800010B500224FF480610548FCF7C9FF0548D3
:103D9000FDF7BAFCBDE810404FF49670FCF7B2BED8
:103DA00000140140E8010020010202030405060797
:103DB00008090A0B0C0D0E0F101000000000000087
:103DC00000000102030406070809000000000102C8
:103DD00003040000F43D000800000020740000000F
:103DE0002C320008683E000874000020E406000041
:103DF0003C3200080100000010000000000000003C
:103E00000024F4000000000000000000000000009A
:103E100000000000000000000000000000000000A2
:103E20000000AF430000803F00007A44CDCC4C3E00
:103E3000000000BF00000000000000000080BB4444
:103E400000007A430000A0408FC2753D00000000D2
:103E50000000000000000000000000000000000062
:083E600000000000000000005A
:0400000508000131BD
:00000001FF
