:020000040800F2
:10000000F8070020CD010008AD1C0008D919000830
:10001000511C0008D3020008B921000800000000AC
:10002000000000000000000000000000B11C0008FB
:10003000D502000800000000AF1C0008B31C000837
:10004000E7010008E7010008E7010008E7010008F0
:10005000E7010008E7010008E7010008E7010008E0
:10006000E7010008E7010008E7010008E7010008D0
:10007000E7010008E7010008E7010008E7010008C0
:10008000E7010008E7010008E7010008E7010008B0
:10009000E7010008E7010008E7010008E7010008A0
:1000A000E7010008E7010008E7010008E701000890
:1000B000191D0008251D0008311D0008E701000872
:1000C000E7010008E7010008E7010008E701000870
:1000D000E7010008AD210008E7010008E70100087A
:1000E000E7010008E7010008E7010008E701000850
:1000F000E7010008E7010008E7010008E701000840
:10010000E7010008E7010008E7010008E70100082F
:10011000E7010008E7010008E7010008E70100081F
:10012000E7010008E7010008E7010008E70100080F
:1001300000F002F800F03AF80AA090E8000C8244BF
:100140008344AAF10107DA4501D100F02FF8AFF29C
:10015000090EBAE80F0013F0010F18BFFB1A43F0A5
:1001600001031847BC240000DC240000103A24BF1F
:1001700078C878C1FAD8520724BF30C830C144BF0C
:1001800004680C607047000000230024002500264E
:10019000103A28BF78C1FBD8520728BF30C148BFEA
:1001A0000B6070471FB51FBD10B510BD00F058F8AB
:1001B0001146FFF7F7FF02F011F800F076F803B4EC
:1001C000FFF7F2FF03BC00F07DF80000094880470C
:1001D00009480047FEE7FEE7FEE7FEE7FEE7FEE729
:1001E000FEE7FEE7FEE7FEE704480549054A064B41
:1001F00070470000151D000831010008F8010020BB
:10020000F8070020F8030020F80300204FF0000258
:1002100000B5134694469646203922BFA0E80C50FC
:10022000A0E80C50B1F12001BFF4F7AF090728BFD7
:10023000A0E80C5048BF0CC05DF804EB890028BF53
:1002400040F8042B08BF704748BF20F8022B11F07C
:10025000804F18BF00F8012B7047704770477047F8
:10026000754600F02BF8AE4605006946534620F06F
:100270000700854618B020B5FFF7B6FFBDE820405F
:100280004FF000064FF000074FF000084FF0000B52
:1002900021F00701AC46ACE8C009ACE8C009ACE805
:1002A000C009ACE8C0098D46704710B50446AFF3ED
:1002B00000802046BDE81040FFF781BF004870472E
:1002C0009401002001491820ABBEFEE72600020081
:1002D0007047FEE7704772B6FEE710B590F8211040
:1002E0000022022905D00421816380F8202001200A
:1002F00010BD01680B6823F00E030B6001680B68EA
:1003000023F001030B6090F84030C46B012101FA27
:1003100003F3636080F8211080F82020104610BDA0
:100320002DE9F05F90F821100024022903D0042168
:100330008163012485E001680A6822F00E020A60E8
:1003400001680A6822F001020A603F4E3E4FB21572
:10035000DFF8F4C0DFF8F090DFF8ECA0DFF8E8B0E9
:10036000DFF8E4E00168783F13011502ACF1640C9A
:10037000A9F15009AAF13C0AABF1280BAEF1140E19
:100380004FF48018B14227D9B9420ED0614512D03E
:1003900049451DD0514518D0594518D0714501D156
:1003A000424615E0294EB14201D1012210E0274E0C
:1003B0001436B14201D110220AE0244E2836B1424F
:1003C00006D0224A3C32914201D11A4600E02A4628
:1003D0001E49091F0A602BE0B94213D0614517D0AE
:1003E000494522D051451DD059451DD0714501D1F7
:1003F00042461AE0B14202D14FF0807215E0134E2E
:10040000B14201D1012210E0104E1436B14201D1A7
:1004100010220AE00D4E2836B14206D00B4A3C327B
:10042000914201D11A4600E02A46074980394A60C4
:10043000012180F82110002180F82010416B01B1CA
:1004400088472046BDE8F09F800002400804024033
:100450002DE9F84FDFF8C8910024A9F1040B2346D9
:100460000F2709F1040AABF1040ED1E00125A540E4
:1004700006EA0502AA4276D1DFF8A8C14E68A6EBCB
:100480000C0866452BD00DDC032E34D005DC36B3CA
:10049000012E19D0022E2FD11BE0112E16D0122EB4
:1004A0002AD119E0B8F5881F19D006DCB8F5803FCD
:1004B00015D0B8F5801F1FD111E0B8F5001F0ED080
:1004C000B8F5041F18D10AE0CB6815E0CB681B1DF6
:1004D00012E0CB6808330FE0CB680C330CE08B687C
:1004E0002BB1012B4FF0080303D0456104E0042336
:1004F00002E0056100E00023FF2A01D8064601E082
:1005000000F104064FEA840501D9A5F12005D6F8CB
:10051000008007FA05FC28EA0C0803FA05F548EA0A
:100520000508C6F800804D68ED0070D53E4DAE69F7
:1005300046F00106AE61AD6924F0030605F0010541
:1005400000953A4D06EB050CDCF80850A607360F6F
:1005500007FA06F825EA0805DFF8D480404503D1FC
:100560004FF0000825E052E0DFF8C880404502D196
:100570004FF001081DE0DFF8C080404502D14FF088
:10058000020816E0DFF8B480404502D14FF00308BE
:100590000FE0DFF8AC80404502D14FF0040808E0DE
:1005A000DFF8A080404502D14FF0050801E04FF090
:1005B000060808FA06F848EA0508CCF808804D68ED
:1005C000D9F80060ED024D4601D5164300E0964390
:1005D0002E604D68DAF80060AD02554601D516432D
:1005E00000E096432E604D68DBF80060AD035D4689
:1005F00001D5164300E096432E604D68DEF800609A
:10060000ED03754601D5164300E096432E60641C49
:100610000A681646E2407FF429AFBDE8F88F000073
:1006200008040140000011100010024000000140C9
:1006300000080140000C014000100140001401407E
:1006400000180140001C01400AB101617047090413
:10065000FBE70000014880687047000008000020A8
:1006600070B5040025D094F83D00002520B984F829
:100670003C50204600F0B8F8242084F83D00206863
:10068000016821F0010101602068016841F4004126
:1006900001602068016821F40041016000F002FA65
:1006A0004D4A6168914201D84C4900E04C4988426A
:1006B00001D2012070BD4B492368B0FBF1F15E68A7
:1006C00026F03F060E435E606368934206D94FF4FE
:1006D000967359434FF47A73B1FBF3F12368491CC5
:1006E0001E6A26F03F06314319626168914210D8B4
:1006F0004900401EB0FBF1F2521CC2F30B02042A67
:1007000001D2042022E0B0FBF1F0401CC0F30B004A
:100710001CE0A268F2B301EBC10303EB0116431E18
:10072000B3FBF6F35B1C43F480431B0549D092B343
:1007300001EBC10202EB0111401EB0FBF1F0401CC5
:10074000C0F30B0040F4804040F400402168CA69C7
:100750004CF6FF739A431043C861D4E90710014374
:100760002068026822F0C00211430160D4E903014D
:1007700001432068826848F2FF339A431143816045
:10078000D4E9050108432168CA6822F0FF0210433A
:10079000C86001E00EE016E02068016841F0010148
:1007A00001602564202084F83D00256384F83E50D4
:1007B000002070BD01EB4106431EB3FBF6F35B1C4A
:1007C000B3E70120C2E701EB4101401EB0FBF1F0AD
:1007D000401CC0F30B00B7E7A086010080841E0018
:1007E00000093D0040420F0010B586B00021009185
:1007F0000191029103910068104988421BD1104C6D
:10080000A06940F00800A061A069694600F00800F6
:1008100004904FF440600090122001900320039058
:100820000848FFF715FEE06940F48000E061E069E8
:1008300000F48000049006B010BD00000058004095
:1008400000100240000C0140024881680278114407
:100850008160704708000020074810B5016841F02A
:1008600010010160032000F075F80F2000F006F879
:1008700000F024F8002010BD0020024070B50D4D9E
:1008800004464FF47A712878B1FBF0F00A49096800
:10089000B1FBF0F000F0DCFA48B9102C07D20022CE
:1008A0002146501E00F036F800206C6070BD01201B
:1008B00070BD000008000020140000200C4808B59E
:1008C000816941F001018161816901F001010091BB
:1008D000C16941F08051C161C06900F08050009051
:1008E0000448416821F0E06141F00071416008BDB9
:1008F0000010024000000140002809DB00F01F0248
:10090000012191404009800000F1E020C0F8001171
:1009100070470000F0B40E4B1B680C46C3F3022373
:10092000C3F10705042D00D90425191D072901D29B
:10093000002300E0DB1E012606FA05F1491E2140D6
:1009400099409E40761E16403143F0BC01F035BC04
:100950000CED00E0064900F0070208684FF6FF03BF
:10096000184040EA0220034A104308607047000024
:100970000CED00E00000FA052DE9F0470F460500F8
:1009800061D0434E306800F00700B84209D23068A9
:1009900020F0070038433060306800F00700B842AC
:1009A00051D128683B4C810712D5400703D56068B8
:1009B00040F4E06060602878000703D5606840F488
:1009C000605060606068A96820F0F00008436060D3
:1009D0002878C00728D06868012810D0216802282C
:1009E00010D0890700292EDA616821F00301014344
:1009F0006160FFF72FFE804641F288390DE02168E3
:100A00008903EFE78901EDE7FFF724FEA0EB08017A
:100A1000494502D90320BDE8F0876068696800F0A5
:100A20000C00B0EB810FEFD1306800F00700B84246
:100A30000BD9306820F0070038433060306800F090
:100A40000700B84201D00120E5E72878400705D526
:100A50006068E96820F4E060084360602878000777
:100A600006D56068296920F4605040EAC1006060E2
:100A700000F038F86168084AC1F30311515CC840BE
:100A80000649086006480068FFF7F8FE0020C2E744
:100A90000020024000100240082600081400002038
:100AA0000C0000200448054900684968044AC1F365
:100AB0000221515CC8407047140000200010024021
:100AC000182600080448054900684968044AC1F32B
:100AD000C221515CC8407047140000200010024041
:100AE000182600080E4A51680E4801F00C03042B2A
:100AF00011D0082B0FD10C48C1F38343C903C05C4C
:100B00000AD55168084AC1F34041921E515C054A1A
:100B10005043B0FBF1F07047044948437047000070
:100B20000010024000127A00F825000800093D007C
:100B30002DE9F84F040070D02078C04DC00749D08F
:100B40006868C0F38100012807D06868C0F381009D
:100B5000022809D16868C00306D52868800339D502
:100B600060680028E7D035E06068B0F5803F0BD0C2
:100B700010B1B0F5A02F11D0286820F48030286083
:100B8000286820F4802002E0286840F48030286043
:100B9000606890B1FFF75EFD06460AE0286840F401
:100BA00080202860F0E700BFFFF754FD801B642819
:100BB00073D828688003F7D50CE0FFF74BFD064695
:100BC00005E000BFFFF746FD801B6428F0D82868C9
:100BD0008003F7D420789A4E80074FF001094FF038
:100BE000000839D5686810F00C0F07D06868C0F3AA
:100BF0008100022809D16868C00306D428688007EC
:100C000014D52069012808D110E02069B0B1C6F8D8
:100C10000090FFF71FFD074605E00AE1FFF71AFD08
:100C2000C01B0228C4D828688007F7D528686169E6
:100C300020F0F80040EAC10028600DE0C6F800800E
:100C4000FFF708FD074604E0FFF704FDC01B02287C
:100C500023D828688007F7D4207800072CD5794856
:100C6000A169D9B1C0F80090FFF7F4FC074604E091
:100C7000FFF7F0FCC01B02280FD8686A8007F7D581
:100C800071484FF4FA510068B0FBF1F0009000BFDA
:100C90000098411E0091FAD20EE080E0C0F800807A
:100CA000FFF7D8FC074604E0FFF7D4FCC01B02287E
:100CB00075D8686A8007F7D42078400760D5E8695E
:100CC0000027C00008D4E86940F08050E861E86976
:100CD000012700F0805000905C480168C90513D4DA
:100CE0000168834641F480710160FFF7B3FC8246DE
:100CF00006E000BFFFF7AEFCA0EB0A0064284ED868
:100D0000DBF80000C005F5D5E06801280AD008B17D
:100D1000052813D0286A20F001002862286A20F0F4
:100D2000040002E0286A40F001002862E06841F215
:100D3000883B98B1FFF78EFC82460BE0286A40F0B2
:100D400004002862EEE700BFFFF784FCA0EB0A0175
:100D500059455AD8286A8007F6D50CE0FFF77AFC87
:100D6000824605E0FFF776FCA0EB0A0159454CD816
:100D7000286A8007F6D41FB1E86920F08050E86146
:100D8000E06988B36968C1F38101022944D002286F
:100D9000C6F8608004D0FFF75DFC044638E034E01C
:100DA000FFF758FC074604E0FFF754FCC01B02287D
:100DB0002BD828688001F7D4206AB0F5803F05D190
:100DC0006868A16820F4003008436860D4E908012D
:100DD0000843696821F4741108436860C6F860909C
:100DE000FFF738FC044606E025E000BFFFF732FCC1
:100DF000001B022809D828688001F7D51BE000BF36
:100E0000FFF728FC001B022802D90320BDE8F88F59
:100E100028688001F4D40EE00128F7D06868226ABF
:100E200000F48031914204D1616A00F4701088426C
:100E300001D00120EAE70020E8E7000000100240AE
:100E40000000424280044242140000200070004032
:100E500010B5401EB0F1807F01D3012010BD4FF0CE
:100E6000E02460610F21601701F0A7F90020A06164
:100E700007202061002010BD7047704770B590F8C2
:100E80003C20012A2CD0012480F83C40022280F82A
:100E90003D2003685A689D6822F070060A68324354
:100EA0005A60104B02689A420ED00F4B9A420BD0F8
:100EB000B2F1804F08D00D4B9A4205D00C4B9A42AC
:100EC00002D00C4B9A4204D1496825F080031943A3
:100ED000916080F83D40002180F83C10084670BDCC
:100EE000022070BD002C014000340140000400408D
:100EF00000080040000C004010B5040003D094F836
:100F00003D0010B107E0012010BD002084F83C0036
:100F1000204600F01FF8022084F83D00211D2068C3
:100F200000F00CFF012084F8460084F83E0084F8AD
:100F30003F0084F8400084F8410084F8420084F8BF
:100F4000430084F8440084F8450084F83D00002004
:100F500010BD000008B500680B49884212D10B484B
:100F6000C16941F00201C161C069002200F00200C4
:100F7000009001211D20FFF7CDFCBDE808401D2099
:100F8000FFF7BABC08BD000000040040001002409A
:100F900090F83D10012901D001207047022180F80E
:100FA0003D100168CA6842F00102CA6000680E493B
:100FB00088420ED00D4988420BD0B0F1804F08D046
:100FC0000B49884205D00B49884202D00A49884221
:100FD00004D1816801F00701062903D0016841F0BE
:100FE0000101016000207047002C014000340140E5
:100FF0000004004000080040000C004070B50446AA
:1010000090F83C000025012817D0012684F83C60A8
:10101000022084F83D002068826822F0770222F4E2
:101020007F4282600868502838D00DDC20284FD0DD
:1010300005DC90B3102811D14AE0022070BD3028A1
:1010400046D040280AD13BE060282FD070280DD030
:10105000B0F5805F03D0B0F5005F12D0012584F8B1
:101060003D60002084F83C00284670BDCB68D1E983
:101070000121206800F0B5FE2068816841F0770109
:1010800009E0CB68D1E90121206800F0AAFE2068C0
:10109000816841F480418160E1E719E0CA684968EC
:1010A000206800F073FF5021206806E0CA68496894
:1010B000206800F07CFF6021206800F09CFECEE7F5
:1010C000CA684968206800F061FF40212068F4E7A1
:1010D000226801461046F0E72DE9F0410D46040074
:1010E00003D094F83D0018B108E00120BDE8F0817C
:1010F000002084F83C00204600F040F8022084F8EC
:101100003D002068816844F2070291438160211DFF
:10111000206800F013FE226890689169166A2B68B7
:10112000AF69034340F20330814341EA0721A868D5
:10113000EF6908434FF6FC418843E96840EA07201D
:10114000014328692F6A000140EA073008436968B3
:101150006D6926F0220646EA051529439360226848
:10116000906154F8460B0162012004F81F09E075F4
:101170002076E0762077A0750020B7E700B585B02F
:101180000021009101910291039101682648B1F17B
:10119000804F2BD0254A914226D1C16941F00401EC
:1011A000C161C16901F004010491816941F020012C
:1011B00081618069694600F0200004904FF440503E
:1011C00000901B48FFF744F91A48416841F0E0617C
:1011D00041F480514160002211461E20FFF79AFB26
:1011E0005FF01E00FFF788FB05B000BDC16941F04C
:1011F0000101C161C16901F001010491816941F0FE
:10120000040181618069694600F0040004900320B4
:1012100000900948FFF71CF9002211461C20FFF737
:1012200079FB1C20DEE700000010024000080040AF
:1012300000140140000001400008014070B590F822
:101240003E60044690F83F5090F8423090F84320BA
:10125000022021B104290ED0012E1BD114E0012E51
:1012600018D1012B16D184F83E0084F842000122E7
:101270000021206820E0012D0CD1012A0AD184F838
:101280003F0084F8430014E0012D03D1012B01D16C
:10129000012A01D0012070BD84F83E0084F83F008F
:1012A00084F8420084F8430001220021206800F005
:1012B0008BFD01220421206800F086FD2068016872
:1012C00041F001010160002070BD704770B5044617
:1012D000006801694FF00005C943890715D4C1684A
:1012E000C943890711D4E91E0161012020772068D4
:1012F00080698007204602D0FFF7E7FF04E000F096
:10130000BFF8204600F051F9257720680169C943EC
:10131000490717D4C168C943490713D46FF00401C2
:101320000161022020772068806910F4407F204608
:1013300002D0FFF7CAFF04E000F0A2F8204600F058
:1013400034F9257720680169C943090716D4C168B3
:10135000C943090712D46FF0080101610420207706
:101360002068C0698007204602D0FFF7AEFF04E086
:1013700000F086F8204600F018F92577206801690A
:10138000C943C90617D4C168C943C90613D46FF04D
:1013900010010161082020772068C06910F4407FA7
:1013A000204602D0FFF791FF04E000F069F82046E4
:1013B00000F0FBF8257720680169C943C90708D107
:1013C000C168C943C90704D1891E0161204600F0E4
:1013D00047F920680169C943090609D4C168C943AE
:1013E000090605D46FF0800101612046FFF744FD36
:1013F00020680169C943490609D4C168C94349063F
:1014000005D46FF040010161204600F037F92068F3
:101410000169C94389060BD4C168C943890607D449
:101420006FF0200101612046BDE87040FFF725BD47
:1014300070BD000000B585B00021009101910291BE
:10144000039100680B49884211D10B48816941F032
:10145000040181618069694600F004000490C020A5
:1014600000900220019003900448FEF7F1FF05B0C0
:1014700000BD0000000400400010024000080140D0
:10148000704770B5044690F83C0000260D460128D0
:101490000FD0012084F83C006AB1042A1DD0082A2C
:1014A0002FD00C2A3FD00126002084F83C00304683
:1014B00070BD022070BD206800F0A6FC2068816924
:1014C00041F0080181612068816921F00401816196
:1014D000206881692A69114311E0206800F0C4FC8A
:1014E0002068816941F4006181612068816921F48B
:1014F00080618161206881692A6941EA02218161F4
:10150000D2E7206800F0E6FC2068C16941F00801DC
:10151000C1612068C16921F00401C1612068C1690D
:101520002A69114311E0206800F008FD2068C169B4
:1015300041F40061C1612068C16921F48061C16129
:101540002068C1692A6941EA0221C161ACE710B58E
:10155000040003D094F83D0010B107E0012010BD55
:10156000002084F83C00204600F01EF8022084F899
:101570003D00211D206800F0E1FB012084F84600B9
:1015800084F83E0084F83F0084F8400084F841006D
:1015900084F8420084F8430084F8440084F845004D
:1015A00084F83D00002010BD7047704710B5044618
:1015B000022249B104290ED0082913D094F8410021
:1015C000012816D0012010BD94F83E000128F9D161
:1015D00084F83E200FE094F83F000128F2D184F80F
:1015E0003F2008E094F840000128EBD184F8402027
:1015F00001E084F841200122206800F0E5FB134956
:101600002068134A884201D0904203D1436C43F4CE
:1016100000434364206888420DD090420BD0B0F163
:10162000804F08D00B49884205D00B49884202D030
:101630000A49884204D1816801F00701062903D0D4
:10164000016841F001010160002010BD002C014043
:10165000003401400004004000080040000C00403D
:10166000044900680968884203D10348014600F034
:10167000EFBD7047BC0000200000FA44704770477F
:1016800070470000F8B5016804460868CA684B69ED
:1016900010F00F0F4FF0000559D003F0010602F4CF
:1016A0009077374365D0C10705D0D10503D5616C6C
:1016B00041F001016164410705D5D90703D0616C90
:1016C00041F002016164810705D5D90703D0616C3F
:1016D00041F004016164010707D502F020013143A4
:1016E00003D0616C41F008016164616C00293AD05B
:1016F000800604D5900602D5204600F099FC2068AB
:101700004069616CC0F38010090700D460B32046C3
:1017100000F067FC20684069400621D5206814303D
:1017200050E8001F21F0400140E80012002AF5D1E6
:10173000E06BA8B16D494163E06BFEF7F1FD002855
:1017400011D0E06B416B01B0BDE8F0400847830663
:101750000FD593060DD52046BDE8F84000F068BCD3
:101760002046FFF78DFFF8BD2046FFF789FF65642F
:10177000F8BD266B2023012E7CD1C6067AD5D6066D
:1017800078D508684868009048694FF0020640061E
:1017900040D5E16B086840680004000CE8D0A28DD9
:1017A0008242E5D9E085886920282DD020680C3058
:1017B00050E8001F21F4807140E80012002AF5D1A2
:1017C0002068143050E8001F21F0010140E80012A9
:1017D000002AF5D12068143050E8001F21F04001A4
:1017E00040E80012002AF5D184F8423025632068D1
:1017F0000C3050E8001F21F0100140E80012002AD0
:10180000F5D1E06BFEF769FD6663A08DE18D401AAE
:1018100081B22AE0A08DE18D401A81B2E08D0028CE
:10182000A6D00029A4D022680C3252E8000F20F480
:10183000907042E80007002FF5D12068143050E87E
:10184000002F22F0010240E80027002FF5D184F894
:101850004230256320680C3050E8002F22F010023F
:1018600040E80023002BF5D166632046FFF707FF11
:10187000F8BDFFE705062BD5150629D594F84100DC
:101880002128F5D1A068B0F5805F01D12069B0B101
:10189000206A411C2162216800784860E08C401E6B
:1018A0000004000CE084E3D12068C16821F08001CD
:1018B000C1602068C16841F04001C160D8E7206A7A
:1018C0000088C0F308004860206A801C2062E5E7B9
:1018D0004006CDD55006CBD5CA68204622F040023E
:1018E000CA6084F8413000F076F8C1E7D31F0008E1
:1018F00070B5040004D094F84100002510B106E052
:10190000012070BD84F84050204600F023F82420C8
:1019100084F841002068C16821F40051C16020466C
:1019200000F0E8FB2068016921F490410161206822
:10193000416921F02A0141612068C16841F40051E8
:10194000C1606564202084F8410084F8420065632A
:10195000002070BD30B585B000240094019402943D
:1019600003940068184988422CD11848816941F4D1
:1019700080418161816901F480410491816941F074
:10198000040181618069124D00F0040004904FF45D
:1019900000700090022001900320039069462846C1
:1019A000FEF756FD2815CDE9000469462846029445
:1019B000FEF74EFD002211462520FEF7ABFF252045
:1019C000FEF79AFF05B030BD00380140001002401C
:1019D0000008014070477047FEE7000070B586B010
:1019E00000241C480094019402940394816941F0FE
:1019F00010018161816901F010010491816941F058
:101A000004018161816901F004010491816941F05F
:101A100008018161816901F008010491816941F047
:101A20002001816180690C4E00F020004FF4704568
:101A30000490002229463046FEF706FE012000955C
:101A4000CDE901040220039069463046FEF700FD0F
:101A500006B070BD00100240000C01400D4810B5EA
:101A60000B4901600C49416000214FF480428160C4
:101A7000C0E9031241618161C1610162FEF7F0FDBD
:101A8000002803D0BDE81040FEF725BC10BD0000C3
:101A90000058004020000020801A060010B58CB0CD
:101AA00024216846FEF7B2FB0024154809944FF044
:101AB00080410A94C0E900144FF6FF71C0E9024169
:101AC000046184610120CDE90004CDE902040F2105
:101AD0000491CDE90540CDE9074169460848FFF783
:101AE000FBFA08B1FEF7F7FB099409A904480A9428
:101AF000FFF7C4F9002801D0FEF7EDFB0CB010BDD4
:101B00007400002010B58EB0002407940894099446
:101B10000A940B941C2168460C94FEF777FB22482C
:101B2000204901604721C0E9011442F20F71C0E968
:101B300003148461FFF7E0F908B1FEF7CCFB4FF422
:101B40008050079007A91848FFF758FA08B1FEF728
:101B5000C2FB1548FFF7FBFC08B1FEF7BCFB0B947A
:101B60000BA911480C94FFF789F908B1FEF7B3FBF4
:101B70006020CDE900040294002269460A480494DA
:101B8000FFF77FFC08B1FEF7A6FB04226946064872
:101B9000FFF777FC08B1FEF79EFB0348FFF74AFC0E
:101BA0000EB010BD00040040BC00002010B58CB089
:101BB00024216846FEF72AFB00241648099414499C
:101BC0000A94C0E900144FF6FF71C0E902410461B4
:101BD00084610120CDE90004CDE902040F210491C4
:101BE000CDE90540CDE9074169460A48FFF774FA97
:101BF00008B1FEF770FB099409A906480A94FFF79B
:101C00003DF9002801D0FEF766FB0CB010BD0000C6
:101C100000080040040100200C4810B50A4901608A
:101C20004FF4E1314160002181600C22C160C0E9C4
:101C300004128161C161FFF75BFE002803D0BDE89B
:101C40001040FEF748BB10BD003801404C01002099
:101C5000FEE7000070B53C211148FFF7EFFA3C2188
:101C60001048FFF7EBFA0E4C2068C16841F0010103
:101C7000C1600C4D2868C16841F00101C1600A488B
:101C8000FFF786F904210848FFF790FC0021064879
:101C9000FFF78CFC2168002048622968486270BD0B
:101CA0007400002004010020BC000020FEE7704703
:101CB0007047FEF7C9BD30B58FB028216846FEF7E2
:101CC000A5FA14210AA8FEF7A1FA01210804CDE91A
:101CD00000100024029402250491CDE907504FF42E
:101CE000E01009906846FEF723FF08B172B6FEE7E0
:101CF0000F20CDE90A054FF48060CDE90C400221A8
:101D00000AA80E94FEF738FE002801D072B6FEE74E
:101D10000FB030BD704700000148FFF7D7BA000090
:101D2000740000200148FFF7D1BA0000BC00002079
:101D30000148FFF7CBBA000004010020F0B50268AB
:101D40001C4B1D4D1D4E1E4F1E4C4FF0804C98429B
:101D500009D0A04207D0604505D0A84203D0B042C8
:101D600001D0B84204D122F0700E4A6842EA0E0255
:101D7000984209D0A04207D0604505D0A84203D0C0
:101D8000B04201D0B84203D122F44075CA682A4358
:101D90004D6922F080022A4302608A68C2620A68A2
:101DA0008262984201D0A04201D1096901630121F8
:101DB0004161F0BD002C01400004004000080040DB
:101DC000000C00400034014010B501F01F03012158
:101DD000046A99408C430462016A9A40114301628B
:101DE00010BD10B5846842EA032224F47F440A43FC
:101DF0002243826010BD826822F070020A4342F0E2
:101E00000701816070470000F0B5036A026A22F0A2
:101E10000102026242688469124E24F073050C6864
:101E20002C4323F002058B682B430D4DA84201D0B3
:101E3000B04205D123F00807CB683B4323F00403ED
:101E4000A84201D0B04205D14D6922F44072154339
:101E50008A692A4342608461496841630362F0BD34
:101E6000002C014000340140F0B5026A036A23F0FF
:101E700010030362436884690D6824F4E64444EA6D
:101E800005248D6822F0200242EA05120F4D104E03
:101E9000A84201D0B04206D1CF6822F0800242EAC7
:101EA000071222F04002A84201D0B04207D14D698A
:101EB00023F4406343EA85038D6943EA8503436065
:101EC0008461496881630262F0BD0000002C01401A
:101ED00000340140F0B5026A036A23F480730362A0
:101EE0004368C46922F4007224F073050C68124E32
:101EF0002C438D6842EA05220E4DA84201D0B04223
:101F000006D1CF6822F4006242EA072222F48062FE
:101F1000A84201D0B04207D14D6923F4405343EAAF
:101F200005138D6943EA05134360C4614968C163C1
:101F30000262F0BD002C01400034014030B5046A5B
:101F4000026A22F4805202624268C3690D6823F477
:101F5000E64343EA05238D6824F4005444EA05343B
:101F6000084DA84202D0084DA84204D14D6922F480
:101F7000804242EA85124260C3614968016404629A
:101F800030BD0000002C01400034014010B5036A50
:101F9000046A24F001040462846924F0F00444EA31
:101FA000021423F00A020A438461026210BD10B5D4
:101FB000036A046A24F010040462846923F0A00315
:101FC00024F4704444EA023243EA0111826101625E
:101FD00010BD10B5406A0021C185C184FFF750FBD8
:101FE00010BD01680C3151E8002F22F4907241E8D5
:101FF0000023002BF5D10168143151E8002F22F0A5
:10200000010241E80023002BF5D1016B012909D120
:1020100001680C3151E8002F22F0100241E8002342
:10202000002BF5D1202180F8421000210163704778
:1020300008B590F84210222901D0022008BD82681C
:102040004FF480539A4201D1016921B1816A9A42C9
:102050001BD04AB10AE00268816A5268C2F30802E2
:102060000A80816A891C08E0026972B102685268BC
:1020700002F07F020A70816A491C8162C18D491E8B
:102080000904090CC18503D01BE002685268F1E71E
:102090000168CA6822F02002CA600168CA6822F496
:1020A0008072CA6001684A6922F001024A612021F7
:1020B00080F8421000214163026B012A03D0FFF730
:1020C00089FC002008BD016301680C3151E8002F34
:1020D00022F0100241E80023002BF5D101680A68C4
:1020E000D20602D50A6849680091818DFFF7C7FAC8
:1020F000E7E7000070B5044600680169E26821F472
:102100004051114301612169A06808436169084396
:102110002168CA6841F20C639A430243CA6020688E
:102120004169A26921F44071114341611E4920684F
:10213000884202D1FEF7C6FC01E0FEF7B3FC00EBDB
:10214000C00101EB0012606864218000B2FBF0F373
:10215000B3FBF1F36FF018067343B2FBF0F5B2FB7B
:10216000F0F605EB8305322303EB0515B5FBF1F51E
:10217000B6FBF1F605F0F00505EB0615B2FBF0F63F
:10218000B2FBF0F0B0FBF1F06FF01802504306EB39
:10219000800003EB0010B0FBF1F0216800F00F00AD
:1021A0002844886070BD0000003801400148FFF7F6
:1021B00069BA00004C010020FEE70907090E00285B
:1021C00004DB00F1E02080F80014704700F00F00FD
:1021D00000F1E02080F8141D70470000FEF73CFB82
:1021E000FFF769FDFFF7FAFBFFF758FCFFF78AFCE2
:1021F000FFF7DCFCFFF732FCFFF70EFDFFF72AFDCF
:10220000054D686800F01EF90446286800F01AF9C8
:10221000214600F01DF8F4E70000002010B50A4B3D
:1022200004680A4A9C4201DD1C4602E0944200D93F
:10223000144604600868984201DD1A4602E09042A4
:1022400000D802460A6010BD00A00C4600A00CC6D3
:102250002DE9F34701A96846FFF7E0FF344F0098E6
:10226000344C354D354E4FF480594FF4005AB84236
:1022700016D2012249462046FEF7E6F900225146D1
:102280002046FEF7E1F9286800F0DCF8009988465E
:1022900000F056F800F0B6F831684863B84513D33B
:1022A000002249462046FEF7CFF90122514620463A
:1022B000FEF7CAF9286800F0C5F8009900F026F981
:1022C00000F0A0F83168486301984FF480494FF45A
:1022D000004AB84216D2002249462046FEF7B4F919
:1022E000012251462046FEF7AFF9686800F0AAF8CF
:1022F0000199884600F024F800F084F8316888637A
:10230000B84513D3012249462046FEF79DF9002225
:1023100051462046FEF798F9686800F093F8019955
:1023200000F0F4F800F06EF831688863BDE8FC87CF
:1023300000008080000C014018000020BC0000203C
:1023400090EA010F48BF81F0004100F1E680421A97
:102350003CBF801A89184FEAD0524FF07F4C1CEADC
:10236000410FA2EBD15318BF9CEA026F00F03B80F3
:102370004FF0004C4CEA00204CEA012121FA03FC0A
:1023800010EB0C0C1ED202F1FF325FEA1C2040EB76
:10239000C25038BF70471CF07F0F4FEA400C18BF87
:1023A000BCF17F4F38BF7047C3F12003994008BF8D
:1023B00020F00100BCF17F4F38BF7047A0F1C04052
:1023C00000F09EB84FEA3C00000A40EBC25028BF24
:1023D0001CF0FF0F4FEA400CE6D018BFBCF17F4F56
:1023E00038BF7047EAE79CEA026F05D010EA5C0F3D
:1023F00008BF00F00040704710B500F03BF800BF88
:1024000064FBBE3EC10DD1F19E0206DB4FEA002304
:1024100043F0004323FA02F07047004207D54FEA29
:102420004001B1F1FE4F02D24FF00000704710B5ED
:1024300000F020F849922480002070476FEA2000C5
:102440007047000010F0004148BF4042B0FA80F3EE
:1024500010FA03F2C3F19D030BD051EAC35101EB13
:102460001220530638BF704700F1010008BF20F06A
:10247000010070470EF1020E2EF0030E5EF8044BC1
:10248000244204D44FEA4102B2F17F4F11D84FEAFF
:102490004003B3F17F4F0CD80ED14FEAD07CB2F19C
:1024A0007F4F0CEB4C0C0CF1020C08BF4CEBD17CB9
:1024B00004E04FF0080C01E04FEAD17C0CEB4C0338
:1024C00024FA03F404F00704B4F1040C06D20EEB72
:1024D000840CBDE810404CF0010C6047DFE80CF0C4
:1024E000070802024FF00040A0F5800010BD08462A
:1024F000420018BFD2F1807288BF00F0004010BDCA
:10250000FF2141EAD050C0057047000090EA010F5A
:1025100048BF81F000413FF51AAF421A04D882F05B
:102520000042A0EB020011444FEAD0524FF07F4C22
:102530001CEA410FA2EBD15318BF9CEA026F4AD0AC
:102540004FF0004C4CEA00204CEA012121FA03FC38
:10255000B0EB0C0C0FD412F0FE0F36D05FEA4C003B
:102560001DD5001240EBC25038BF70471CF03F0F22
:1025700018BF70470BE0A2F101025FEA1C2040EB9C
:10258000C25038BF70471CF07F0F18BF7047C3F1AF
:102590002003994014BF401E20F0010070478008BE
:1025A0004FEA122308BF7047B0FA80FCA2EB0C027E
:1025B000CCF1280C60FA0CF093EA122F04BF00EB68
:1025C000C25070474FEAC3707047130A5FEADC10CD
:1025D00008BF7047F6E79CEA026F04D010EA5C0F70
:1025E00008BF0020704710B5FFF744FF40DFF63EFC
:1025F00081F0004070470102020304050607080944
:102600000A0B0C0D0E0F101000000000000000005F
:102610000102030406070809000000000102030488
:102620004026000800000020200000006C01000887
:102630006026000820000020D8070000880100085C
:102640000000000000000000010000001000000079
:10265000000000000024F400000000000000000062
:0400000508000131BD
:00000001FF
