:020000040800F2
:100000007806002005010008852C000877220008EA
:10001000192C0008F30A00087D30000800000000D9
:10002000000000000000000000000000892C000813
:10003000F50A000800000000872C00088B2C00083F
:100040001F0100081F0100081F0100081F01000810
:100050001F0100081F0100081F0100081F01000800
:100060001F0100081F0100081F0100081F010008F0
:100070001F0100081F0100081F0100081F010008E0
:100080001F0100081F0100081F0100081F010008D0
:100090001F0100081F0100081F0100081F010008C0
:1000A0001F0100081F0100081F0100081F010008B0
:1000B000F12C0008FD2C0008092D00081F01000884
:1000C0001F0100081F0100081F0100081F01000890
:1000D0001F0100081F0100081F0100081F01000880
:1000E0001F0100081F0100081F010008DFF810D0E1
:1000F00000F09CFC00480047CD510008AFF30080A1
:10010000780600200648804706480047FEE7FEE7DD
:10011000FEE7FEE7FEE7FEE7FEE7FEE7FEE7FEE7B7
:10012000ED2C0008ED0000082DE9F0410024061B2D
:10013000254671F1000605DA01240027D0EB0700FF
:1001400067EB0101161E73F1000605DA0027D2EBFA
:100150000702012567EB030300F0B3FA86460E465B
:1001600017469C46AC4204D00025D0EB050E65EB4B
:10017000010624B10020D2EB000760EB030C7046AF
:1001800031463A466346BDE8F081202A04DB203A36
:1001900021FA02F00021704721FA02F3D040C2F1A7
:1001A00020029140084319467047D2B201E000F89E
:1001B000012B491EFBD270470022F6E710B513460B
:1001C0000A4604461946FFF7F0FF204610BD30B539
:1001D00004460020034600E05B1C934203D2E05C2F
:1001E000CD5C401BF8D030BDF0B480EA0102D40FE2
:1001F0004200B2EB410F02D20246084611464A00C5
:1002000042D0C30DDDB2C1F3C752AD1A202D35DA8D
:10021000C1F3160141F4000204B15242C5F12006B7
:1002200002FA06F12A411044B3EBD05F23D0C4B1E7
:10023000012DA0EBC35009DCF0BC4FF0004202EAF4
:10024000C352DBB200F5000000F096BA400000F1A6
:10025000807000EBC350A0F1807040EAD17049007B
:1002600009E0490841EAC071A0EBC35000F5000065
:10027000400800EBC350F0BC00F075BA61420122A7
:1002800002EB4101001BF6E7F0BC704781F0004132
:10029000AAE780F00040A7E780EA010210B502F06B
:1002A0000043400022D04A001FD0010E01EB126132
:1002B000C0F35600C2F3560240F4000042F40002BC
:1002C000A0FB022000047F39140400D0401C50EA37
:1002D000124001D44000491EC2B20C0604EBD010FB
:1002E000401C4008802A02D003E0002010BD20F00E
:1002F0000100002900DA0020184310BD30B480EA64
:10030000010202F0004530F0004221F0004013D01D
:1003100090B1C30DD40DC2F31601C0F31600E41A58
:1003200041F4000140F400027D34914201D3641C89
:1003300000E04900002C02DA30BC002070474FF486
:1003400000000023914201D3891A034340084FEA79
:100350004101F7D151B1914202D14FF0004105E086
:1003600002D24FF0010101E06FF0010103EBC45034
:10037000284430BC00F0F7B9420005D0C0F3C752A2
:100380005242914201DC0020704700EBC15070479F
:100390002DE9FE4F804681EA0300C00F0C46009015
:1003A00021F0004123F00045B8EB0200A94105D23D
:1003B0004046214690461C460B46024623F000402C
:1003C000104347D0270DC7F30A00C3F30A51029028
:1003D000401A019040286BDAC3F3130040F4801BED
:1003E0000098924620B10023D2EB030A63EB0B0B7B
:1003F00001985946C0F14002504600F093F9064674
:100400000D4650465946019A00F09BF910EB080042
:100410006141002487EA115284EAE7731A4340D00D
:10042000009A62B3019A012A4FEA075215DC001BB9
:1004300061EB02014FF0004202EA0752CDE90042AF
:10044000001C41F5801132462B4600F0D2F903B072
:10045000BDE8F08F40462146F9E7001B61EB020141
:10046000001C41F5801300185B412018A2F500170D
:1004700047EB030140EAD570B6196D4111E06D08F4
:100480004FEA360645EAC0754FEA0752001B61EB9A
:100490000201001C41F5801149084FEA30000019A3
:1004A000514132462B4603B0BDE8F04F00F092B9FF
:1004B0000098012240000023D0EB020263EBE073BE
:1004C000009821464FEAE074B8EB000061EB0401AC
:1004D000E9E783F000435BE781F0004158E72DE94D
:1004E000FE4F81EA030404F0004421F0004100942F
:1004F0004FF0000B23F0004350EA01045ED052EAB3
:1005000003045BD0C3F30A54C1F30A552C44A4F28C
:10051000F3340194A0FB0254C1F3130141F48011A0
:10052000C3F3130343F4801301FB024400FB034EA7
:10053000840A970A44EA815447EA8357A4FB076870
:1005400002958D0A05FB07854FEA932C04FB0C549A
:100550002705029D4FEA065847EA1637B5EB08050E
:100560006EEB070C870E920E47EA811742EA831260
:10057000A7FB0201B6EB0B0164EB00042B0D43EA71
:100580000C335E1844EB1C50DA465146E7FB02017F
:10059000C5F313044FEA0B3343EA14534FEA043212
:1005A000019C43EA0603A4F10C040294009CCDE9EB
:1005B00000B400F01EF903B0BDE8F08F0020014642
:1005C000F9E7C10F80EAE0700844CA0796230021CA
:1005D00000F0D2B896230022114600F0CDB800F00A
:1005E000004220F00040C10DC0F3160040F40000AE
:1005F0007F2901DA00207047962903DCC1F19601BA
:10060000C84001E096398840002AF4D04042704743
:1006100020F00040C10DC0F3160040F400007F2917
:1006200001DA00207047962903DCC1F19601C84029
:10063000704796398840704700F0004230F0004023
:100640000AD0C10D01F56071C0F3160042EA0151F4
:10065000C20840071143704700200146704701F06F
:10066000004330B421F0004150EA010206D00A0DE7
:10067000A2F56072C1F31301002A02DC30BC002035
:100680007047440F44EAC104C100E01830BC00EBDD
:10069000C25000F068B830B50B4601460020202259
:1006A000012409E021FA02F59D4205D303FA02F57F
:1006B000491B04FA02F52844151EA2F10102F1DCDF
:1006C00030BD2DE9F05F0546002092469B468846E6
:1006D0000646814640241BE02846414647462246BE
:1006E000FFF753FD53465A46C01A914110D31146A5
:1006F0001846224600F016F82D1A67EB01084F46FF
:1007000022460120002100F00DF817EB00094E41B0
:10071000201EA4F10104DFDC484631462A46434648
:10072000BDE8F09F202A04DB203A00FA02F1002005
:1007300070479140C2F1200320FA03F3194390401F
:100740007047202A06DBCB17203A41FA02F043EA31
:10075000E07306E041FA02F3D040C2F1200291407A
:100760000843194670470029A8BF7047401C49003C
:1007700008BF20F00100704710B4B0FA80FC00FA06
:100780000CF050EA010404BF10BC704749B1CCF131
:10079000200421FA04F411FA0CF118BF01212143BD
:1007A0000843A3EB0C01CB1D4FEA00614FEA102078
:1007B00042BF002010BC704700EBC350104400291A
:1007C000A4BF10BC7047401C490008BF20F00100C6
:1007D00010BC704710B5141E73F1000408DA401CF9
:1007E00041F1000192185B411A4301D120F0010050
:1007F00010BD2DE9F04D92469B4611B1B1FA81F240
:1008000002E0B0FA80F220329046FFF78BFF0446F8
:100810000F4640EA0A0041EA0B0153465A46084394
:1008200013D0114653EA010019D0C8F140025046D6
:10083000FFF7ABFC05460E46504659464246FFF7C9
:1008400071FF084305D0012004E020463946BDE889
:10085000F08D0020054346EAE0762C4337430A98A2
:100860006305E40AA0EB08000022FD0A44EA4754AD
:100870000A3002D500200146E9E701051019694157
:10088000DDE9084500196941BDE8F04DA2E72DE911
:10089000F04D81EA030404F0004B21F000451446BA
:1008A0004FF0000A23F0004150EA050220D054EA3C
:1008B00001021DD0C5F30A570246C5F31303C1F365
:1008C0001300C1F30A5640F4801543F48013A7EBDC
:1008D0000608101BD64608F2FD3873EB050002D35C
:1008E00008F1010801E092185B41B8F1000F03DA4A
:1008F00000200146BDE8F08D00204FF4801106462F
:1009000084460EE0171B73EB050705D3121B63EB40
:10091000050306434CEA010C49084FEA30009218DF
:100920005B4150EA0107EDD152EA030012D082EA9E
:10093000040083EA0501084305D0101BAB4106D231
:100940000122002306E000224FF0004302E06FF096
:10095000010253101AEB06004CEB085110EB0A0091
:1009600041EB0B01BDE8F04DFFF734BF70B521F04E
:10097000004303430CD0C1F30A550024D5EB040512
:1009800064EB0403D617AD1AB34102DB0020014625
:1009900070BD201841EB025170BDC1F30A52C1F382
:1009A000130140F2FF3341F480119A4202DA002031
:1009B0000146704740F233439A42A2F2334202DCCE
:1009C0005242FFF7E2BBFFF7ADBE000030B5041E98
:1009D00071F1000404DB4FF00044404264EB01017C
:1009E000141E73F1000405DB1C464FF00043524215
:1009F00063EB04038B4208BF824230BD30B5041E56
:100A000071F1000404DB4FF00044404264EB01014B
:100A1000141E73F1000405DB1C464FF000435242E4
:100A200063EB0403994208BF904230BD064C074D6A
:100A300006E0E06840F0010394E8070098471034AE
:100A4000AC42F6D3FFF756FB7070000890700008B8
:100A50002DE9F04D00231A461B1A8A4103DB0020C2
:100A60000146BDE8F08DC1F30A52C1F3130141F410
:100A700080154FF0000BD10702D100186D41521EB6
:100A80000027044640F2FF11384601EB620A3E4659
:100A90008046024600204FF48011FFF776FBC21912
:100AA0007141BB1846EB0100B4EB030C75EB000C75
:100AB00004D3E41A65EB000517460E46241908F125
:100AC00001006D4180463428E3DDF91946EB06004C
:100AD000091BA84103D24FF0FF32134601E0002268
:100AE00013461BEB070046EB0A51BDE8F04DFFF73C
:100AF00071BEFEE7704772B6FEE7000070B50446AF
:100B000000F004F90546601C02D004480078044453
:100B100000F0FCF8401BA042FAD370BD000000209A
:100B20002DE9F84FDFF8B8910024A9F1040B234612
:100B30000F2709F1040AABF1040EC9E00125A54015
:100B40002A40AA427DD1674ED1F804C0ACEB06081A
:100B5000B44532D014DCBCF1030F3AD009DCBCF14F
:100B6000000F2AD0BCF1010F1CD0BCF1020F31D113
:100B70001DE0BCF1110F17D0BCF1120F2AD119E002
:100B8000B8F5881F19D006DCB8F5803F15D0B8F548
:100B9000801F1FD111E0B8F5001F0ED0B8F5041F5B
:100BA00018D10AE0CB6815E0CB681B1D12E0CB68BA
:100BB00008330FE0CB680C330CE08B682BB1012BB2
:100BC0004FF0080303D0456104E0042302E005610F
:100BD00000E00023FF2A01D8064601E000F10406E8
:100BE0004FEA840501D9A5F12005D6F8008007FA5F
:100BF00005FC28EA0C0803FA05F548EA0508C6F8DA
:100C000000804D68ED0062D5374DAE6946F00106B3
:100C1000AE61AD6924F0030605F001050095334D82
:100C200006EB050CDCF80850A607360F07FA06F8A5
:100C300025EA0805DFF8B880404503D14FF00008E9
:100C400017E044E0DFF8AC80404502D14FF00108E6
:100C50000FE0DFF8A480404502D14FF0020808E021
:100C6000DFF89880404502D14FF0030801E04FF0D3
:100C7000040808FA06F848EA0508CCF808804D6828
:100C8000D9F80060ED024D4601D5164300E09643C9
:100C90002E604D68DAF80060AD02554601D5164366
:100CA00000E096432E604D68DBF80060AD035D46C2
:100CB00001D5164300E096432E604D68DEF80060D3
:100CC000ED03754601D5164300E096432E60641C83
:100CD0000D682A46E5407FF431AFBDE8F88F00008B
:100CE0000804014000001110001002400000014003
:100CF00000080140000C01400010014000140140B8
:100D00000AB1016170470904FBE7000001488068EF
:100D1000704700000000002070B5040025D094F852
:100D20003D00002520B984F83C50204600F078FAB8
:100D3000242084F83D002068016821F00101016051
:100D40002068016841F4004101602068016821F4D5
:100D50000041016000F0C2FB4D4A6168914201D838
:100D60004C4900E04C49884201D2012070BD4B49FA
:100D70002368B0FBF1F15E6826F03F060E435E602B
:100D80006368934206D94FF4967359434FF47A73CC
:100D9000B1FBF3F12368491C1E6A26F03F0631437C
:100DA00019626168914210D84900401EB0FBF1F20F
:100DB000521CC2F30B02042A01D2042022E0B0FB31
:100DC000F1F0401CC0F30B001CE0A268F2B301EB91
:100DD000C10303EB0116431EB3FBF6F35B1C43F4A4
:100DE00080431B0549D092B301EBC10202EB011114
:100DF000401EB0FBF1F0401CC0F30B0040F48040FB
:100E000040F400402168CA694CF6FF739A431043CE
:100E1000C861D4E9071001432068026822F0C002CB
:100E200011430160D4E9030101432068826848F25C
:100E3000FF339A4311438160D4E9050108432168D7
:100E4000CA6822F0FF021043C86001E00EE016E01D
:100E50002068016841F0010101602564202084F8C8
:100E60003D00256384F83E50002070BD01EB410633
:100E7000431EB3FBF6F35B1CB3E70120C2E701EBB3
:100E80004101401EB0FBF1F0401CC0F30B00B7E77E
:100E9000A086010080841E0000093D0040420F0032
:100EA0002DE9FF4F83B00025DDE910799A4693467E
:100EB0000446DDF848800095FFF728FF064694F8C1
:100EC0003D0020287CD11923012285492046009627
:100ED00001F0E8FA0028F5D194F83C0001286FD021
:100EE000012084F83C0020680168C90703D101682B
:100EF00041F0010101602068016821F40061016096
:100F0000222084F83D00402084F83E00256467627A
:100F1000A4F82A90608D20857248E062CDE90086B1
:100F200053465A462046049901F0BEF900287DD167
:100F3000208DDFF8B491202768B1012814D0022851
:100F4000206801681ED041F4806101602068416919
:100F500080690090B6E0206841698169009101686C
:100F600041F400710160ADE02068016821F4806106
:100F7000016072B62068416981690091016841F49D
:100F800000710AE041F40061016072B620684169B5
:100F900081690091016821F48061016062B691E08D
:100FA000032868D801280CD0022843464FF00002DD
:100FB0004946204600960FD001F074FAB0BB10E00D
:100FC0008BE032464146204601F012FB70BB2068A0
:100FD0000069616A08706CE001F064FA30BB72B6B7
:100FE00034E02068016821F48061016072B62068F5
:100FF0000069616A0870606A401C6062208D401E52
:101000002085608D401E6085384846F2A811006832
:10101000B0FBF1F0C0EBC00000EB80000090401E80
:10102000009008D020684069C04300E029E04007F4
:101030000CD50098F3E744F8305F6773A573206917
:1010400040F02000206162B625731AE02068016834
:1010500041F40071016020680069616A0870606A8B
:10106000401C6062218D491E2185618D491E61856C
:1010700062B621681BE032464146204601F0B8FACC
:1010800018B1012007B0BDE8F08F20680069616ADF
:101090000870606A401C6062218D491E2185618D47
:1010A000491E618521684A69D24352070AD40969F9
:1010B0000170606A401C6062208D401E2085608D3A
:1010C000401E6085208D00287FF46AAF84F83D7053
:1010D00084F83E5084F83C50D4E70220D2E7000068
:1010E000020010000000FFFF040001000C000020BF
:1010F0002DE9FF4F83B09A46DDE9119793460446E8
:10110000DDF84080FFF702FE054694F83D002028F8
:101110007FD11923012240492046009501F0C2F9F0
:10112000002876D194F83C00012872D0012084F880
:101130003C0020680168C90703D1016841F0010142
:1011400001602068016821F400610160212084F8B9
:101150003D00402084F83E0000262664C4F8248028
:10116000A4F82A90608D20852C48E062CDE90075B6
:1011700053465A462046049901F014F970B930E0FC
:101180002A463946204601F06BFA58B1206C0428F3
:1011900004D12068016841F400710160012007B0AA
:1011A000BDE8F08F606A216800780861606A401CC1
:1011B0006062218D491E89B22185628D521E628531
:1011C00022685369DB435B070BD469B10078106177
:1011D000606A401C6062208D401E2085608D401E2C
:1011E0006085208D0028CBD12A463946204601F063
:1011F0002DF90028CAD154F83D0B016841F4007163
:101200000160202004F81E09E67766770020C6E713
:10121000FFE70220C3E70000020010000000FFFF0C
:1012200010B586B0002100910191029103910068F0
:10123000104988421BD1104CA06940F00800A06101
:10124000A069694600F0080004904FF440600090E7
:1012500012200190032003900848FFF761FCE06929
:1012600040F48000E061E06900F48000049006B082
:1012700010BD00000058004000100240000C01406A
:1012800002488168027811448160704700000020A4
:10129000074810B5016841F010010160032000F01B
:1012A00075F8002000F006F800F024F8002010BDCA
:1012B0000020024070B50D4D04464FF47A71287835
:1012C000B1FBF0F00A490968B1FBF0F000F0DCFA7C
:1012D00048B9102C07D200222146501E00F036F8E3
:1012E00000206C6070BD012070BD00000000002077
:1012F0000C0000200C4808B5816941F001018161B2
:10130000816901F001010091C16941F08051C16121
:10131000C06900F0805000900448416821F0E0610D
:1013200041F00071416008BD001002400000014022
:10133000002809DB00F01F020121914040098000D4
:1013400000F1E020C0F8001170470000F0B40E4B2F
:101350001B680C46C3F30223C3F10705042D00D913
:101360000425191D072901D2002300E0DB1E0126F8
:1013700006FA05F1491E214099409E40761E16400E
:101380003143F0BC01F0F8BE0CED00E0064900F07E
:10139000070208684FF6FF03184040EA0220034A9C
:1013A00010430860704700000CED00E00000FA05F3
:1013B0002DE9F0470F46050061D0434E306800F03C
:1013C0000700B84209D2306820F007003843306087
:1013D000306800F00700B84251D128683B4C8107C3
:1013E00012D5400703D5606840F4E060606028785B
:1013F000000703D5606840F4605060606068A968C9
:1014000020F0F000084360602878C00728D06868A2
:10141000012810D02168022810D0890700292EDA6F
:10142000616821F0030101436160FFF76FFC8046B2
:1014300041F288390DE021688903EFE78901EDE782
:10144000FFF764FCA0EB0801494502D90320BDE881
:10145000F0876068696800F00C00B0EB810FEFD195
:10146000306800F00700B8420BD9306820F0070060
:1014700038433060306800F00700B84201D00120E6
:10148000E5E72878400705D56068E96820F4E06062
:10149000084360602878000706D56068296920F451
:1014A000605040EAC100606000F038F86168084AA6
:1014B000C1F30311515CC840064908600648006842
:1014C000FFF7F8FE0020C2E70020024000100240B3
:1014D0001A6300080C00002004000020044805499D
:1014E00000684968044AC1F30221515CC840704752
:1014F0000C000020001002402A630008044805493F
:1015000000684968044AC1F3C221515CC840704771
:101510000C000020001002402A6300080E4A5168A7
:101520000E4801F00C03042B11D0082B0FD10C48EE
:10153000C1F38343C903C05C0AD55168084AC1F3AB
:101540004041921E515C054A5043B0FBF1F0704798
:1015500004494843704700000010024000127A001E
:101560000A63000800093D002DE9F84F040070D01F
:101570002078C04DC00749D06868C0F381000128B9
:1015800007D06868C0F38100022809D16868C003E9
:1015900006D52868800339D560680028E7D035E093
:1015A0006068B0F5803F0BD010B1B0F5A02F11D01E
:1015B000286820F480302860286820F4802002E029
:1015C000286840F480302860606890B1FFF79EFB87
:1015D00006460AE0286840F480202860F0E700BF53
:1015E000FFF794FB801B642873D828688003F7D525
:1015F0000CE0FFF78BFB064605E000BFFFF786FB1C
:10160000801B6428F0D828688003F7D420789A4E8D
:1016100080074FF001094FF0000839D5686810F0D5
:101620000C0F07D06868C0F38100022809D16868F0
:10163000C00306D42868800714D52069012808D182
:1016400010E02069B0B1C6F80090FFF75FFB0746D5
:1016500005E00AE1FFF75AFBC01B0228C4D828683E
:101660008007F7D52868616920F0F80040EAC100DA
:1016700028600DE0C6F80080FFF748FB074604E04D
:10168000FFF744FBC01B022823D828688007F7D443
:10169000207800072CD57948A169D9B1C0F800900D
:1016A000FFF734FB074604E0FFF730FBC01B0228BE
:1016B0000FD8686A8007F7D571484FF4FA5100686F
:1016C000B0FBF1F0009000BF0098411E0091FAD2EB
:1016D0000EE080E0C0F80080FFF718FB074604E04A
:1016E000FFF714FBC01B022875D8686A8007F7D47F
:1016F0002078400760D5E8690027C00008D4E86971
:1017000040F08050E861E869012700F080500090C7
:101710005C480168C90513D40168834641F48071AF
:101720000160FFF7F3FA824606E000BFFFF7EEFA2A
:10173000A0EB0A0064284ED8DBF80000C005F5D500
:10174000E06801280AD008B1052813D0286A20F0E3
:1017500001002862286A20F0040002E0286A40F0B4
:1017600001002862E06841F2883B98B1FFF7CEFAA9
:1017700082460BE0286A40F004002862EEE700BFD2
:10178000FFF7C4FAA0EB0A0159455AD8286A800726
:10179000F6D50CE0FFF7BAFA824605E0FFF7B6FA95
:1017A000A0EB0A0159454CD8286A8007F6D41FB12E
:1017B000E86920F08050E861E06988B36968C1F3A6
:1017C0008101022944D00228C6F8608004D0FFF7C6
:1017D0009DFA044638E034E0FFF798FA074604E043
:1017E000FFF794FAC01B02282BD828688001F7D491
:1017F000206AB0F5803F05D16868A16820F4003008
:1018000008436860D4E908010843696821F4741149
:1018100008436860C6F86090FFF778FA044606E06F
:1018200025E000BFFFF772FA001B022809D82868DC
:101830008001F7D51BE000BFFFF768FA001B022804
:1018400002D90320BDE8F88F28688001F4D40EE0A7
:101850000128F7D06868226A00F48031914204D1EF
:10186000616A00F47010884201D00120EAE700208C
:10187000E8E70000001002400000424280044242BB
:101880000C0000200070004010B5401EB0F1807FB9
:1018900001D3012010BD4FF0E02460610F216017DB
:1018A00001F06AFC0020A06107202061002010BD2B
:1018B0007047704770B590F83C20012A26D001246B
:1018C00080F83C40022280F83D2003685A689D68F9
:1018D00022F070060A6832435A600D4B02689A4241
:1018E00008D0B2F1804F05D00A4B9A4202D00A4B81
:1018F0009A4204D1496825F080031943916080F829
:101900003D40002180F83C10084670BD022070BDAB
:10191000002C0140000400400008004010B5040005
:1019200003D094F83D0010B107E0012010BD002065
:1019300084F83C00204600F01FF8022084F83D00A7
:10194000211D206801F0E6F9012084F8460084F8A2
:101950003E0084F83F0084F8400084F8410084F899
:10196000420084F8430084F8440084F8450084F879
:101970003D00002010BD000008B5114A0168114863
:10198000914208D1816941F400618161806900F46C
:101990000060009008BD0C4A9142FBD1C16941F042
:1019A0000201C161C069002200F002000090012123
:1019B0001D20FFF7CBFCBDE808401D20FFF7B8BC99
:1019C000002C0140001002400004004090F83D103F
:1019D000012901D001207047022180F83D100168E3
:1019E000CA6842F00102CA6000680B49884208D008
:1019F000B0F1804F05D00949884202D00849884299
:101A000004D1816801F00701062903D0016841F083
:101A10000101016000207047002C014000040040DB
:101A20000008004070B5044690F83C0000250128ED
:101A300017D0012684F83C60022084F83D0020681D
:101A4000826822F0770222F47F4282600868502880
:101A500038D00DDC20284FD005DC90B3102811D1F0
:101A60004AE0022070BD302846D040280AD13BE031
:101A700060282FD070280DD0B0F5805F03D0B0F56E
:101A8000005F12D0012584F83D60002084F83C00FE
:101A9000284670BDCB68D1E90121206801F07DF9AD
:101AA0002068816841F0770109E0CB68D1E9012124
:101AB000206801F072F92068816841F480418160FA
:101AC000E1E719E0CA684968206801F01BFA502173
:101AD000206806E0CA684968206801F024FA60219D
:101AE000206801F064F9CEE7CA684968206801F00F
:101AF00009FA40212068F4E7226801461046F0E721
:101B00002DE9F0410D46040003D094F83D0018B1D2
:101B100008E00120BDE8F081002084F83C00204668
:101B200000F040F8022084F83D002068816844F20B
:101B3000070291438160211D206801F0EBF82268C3
:101B400090689169166A2B68AF69034340F20330CD
:101B5000814341EA0721A868EF6908434FF6FC4139
:101B60008843E96840EA0720014328692F6A000199
:101B700040EA0730084369686D6926F0220646EAA4
:101B80000515294393602268906154F8460B016261
:101B9000012004F81F09E0752076E0762077A07513
:101BA0000020B7E700B585B00021009101910291B6
:101BB0000391026823480121B2F1804F24D0224BC7
:101BC0009A421FD1C26942F00402C261C26902F0A6
:101BD00004020492826942F00802826180690291E3
:101BE00000F008000490C020009069461748FEF7F6
:101BF00097FF002211461E20FFF7A8FB5FF01E0092
:101C0000FFF796FB05B000BDC26942F00102C26158
:101C1000C26902F001020492826942F00402826108
:101C20008069029100F0040004900320009069464E
:101C30000748FEF775FF002211461C20FFF786FBC0
:101C40001C20DDE70010024000080040000C0140AD
:101C50000008014070B590F83E60044690F83F508F
:101C600090F8423090F84320022021B104290ED090
:101C7000012E1BD114E0012E18D1012B16D184F8AE
:101C80003E0084F8420001220021206820E0012D5E
:101C90000CD1012A0AD184F83F0084F8430014E0F3
:101CA000012D03D1012B01D1012A01D0012070BDEA
:101CB00084F83E0084F83F0084F8420084F8430032
:101CC00001220021206801F05BF801220421206834
:101CD00001F056F82068016841F001010160002020
:101CE00070BD704770B50446006801694FF000058B
:101CF000C943890715D4C168C943890711D4E91EAE
:101D0000016101202077206880698007204602D089
:101D1000FFF7E7FF04E000F0BFF8204600F051F9BC
:101D2000257720680169C943490717D4C168C943A9
:101D3000490713D46FF00401016102202077206865
:101D4000806910F4407F204602D0FFF7CAFF04E00C
:101D500000F0A2F8204600F034F9257720680169E8
:101D6000C943090716D4C168C943090712D46FF0E3
:101D700008010161042020772068C069800720469F
:101D800002D0FFF7AEFF04E000F086F8204600F036
:101D900018F9257720680169C943C90617D4C168B5
:101DA000C943C90613D46FF01001016108202077E0
:101DB0002068C06910F4407F204602D0FFF791FFF1
:101DC00004E000F069F8204600F0FBF82577206871
:101DD0000169C943C90708D1C168C943C90704D10A
:101DE000891E0161204600F03BF920680169C94362
:101DF000090609D4C168C943090605D46FF08001FA
:101E000001612046FFF754FD20680169C943490676
:101E100009D4C168C943490605D46FF04001016186
:101E2000204600F06FF920680169C94389060BD488
:101E3000C168C943890607D46FF0200101612046BB
:101E4000BDE87040FFF735BD70BD000000B585B03E
:101E50000021009101910291039100680B49884291
:101E600011D10B48816941F00401816180696946A3
:101E700000F004000490C020009002200190039024
:101E80000448FEF74DFE05B000BD00000004004010
:101E90000010024000080140704770B5044690F8F9
:101EA0003C0000260D4601280FD0012084F83C009C
:101EB0006AB1042A1DD0082A2FD00C2A3FD001264F
:101EC000002084F83C00304670BD022070BD2068C0
:101ED00000F076FF2068816941F008018161206887
:101EE000816921F004018161206881692A691143B7
:101EF00011E0206800F08CFF2068816941F40061E6
:101F000081612068816921F4806181612068816933
:101F10002A6941EA02218161D2E7206800F0A4FF2A
:101F20002068C16941F00801C1612068C16921F0E0
:101F30000401C1612068C1692A69114311E0206868
:101F400000F0BEFF2068C16941F40061C1612068F2
:101F5000C16921F48061C1612068C1692A6941EACF
:101F60000221C161ACE710B5040003D094F83D0034
:101F700010B107E0012010BD002084F83C0020468D
:101F800000F01EF8022084F83D00211D206800F0BA
:101F9000C1FE012084F8460084F83E0084F83F002A
:101FA00084F8400084F8410084F8420084F843003B
:101FB00084F8440084F8450084F83D00002010BDFA
:101FC0007047704710B50446022249B104290ED06B
:101FD000082913D094F84100012816D0012010BD23
:101FE00094F83E000128F9D184F83E200FE094F8DF
:101FF0003F000128F2D184F83F2008E094F8400027
:102000000128EBD184F8402001E084F8412001222E
:10201000206800F0B5FE0F492068884203D1426C69
:1020200042F4004242642068884208D0B0F1804FF8
:1020300005D00949884202D00849884204D1816804
:1020400001F00701062903D0016841F00101016098
:10205000002010BD002C014000040040000800409A
:1020600070B5234900680968884240D1214B03F1CB
:102070001002111D101F00F01FFB1E49091D881EB4
:1020800002F086FD1B4CB4F90200FEF79AFA1A49D9
:10209000FEF734F9194D2946FEF7FEF8A061B4F9B0
:1020A0000400FEF78EFA1649FEF728F92946FEF7D6
:1020B000F3F8E061B4F90000FEF783FA0146E06846
:1020C00002F084F8A062D4E90601A26800F0D8FF0B
:1020D0000146E062A06AFEF787F82062606202F0C3
:1020E0003DFDD4E90801BDE8704004F031B870BD91
:1020F0008C0100206C00002000409C460000C8427B
:1021000000409CC6704770B5040004D094F84100AC
:10211000002510B106E0012070BD84F84050204633
:1021200000F024F8242084F841002068C16821F4DC
:102130000051C160204600F009FF2068016921F4C8
:10214000904101612068416921F02A0141612068C4
:10215000C16841F40051C1606564202084F84100E9
:1021600084F842006563002070BD000030B585B082
:102170000024009401940294039400681449884256
:1021800024D11448816941F480418161816901F45D
:1021900080410491816941F00401816180690E4DA3
:1021A00000F0040004904FF40070009002200190B1
:1021B0000320039069462846FEF7B2FC2815CDE9B6
:1021C0000004694628460294FEF7AAFC05B030BD1B
:1021D0000038014000100240000801402DE9F8439A
:1021E000044690F841001F4616460D46202802D0AE
:1021F0000220BDE8F8837DB176B100206064212023
:1022000084F84100FEF782FDA6848046E684A0683B
:10221000B0F5805F02D003E00120EAE7206910B149
:102220002E4600250EE000260CE08021204600F01E
:10223000E9FEA0B9AEB116F8010B21684860E08C48
:10224000401EE084E08C43464FF0000200970028D7
:10225000EBD14FF04001204600F0D4FE30B1032016
:10226000C7E735F8020BC0F30800E6E7202084F842
:1022700041000020BDE7FEE701684A69D2435205EC
:102280000FD46FF480624A61002140F8301F202291
:1022900042738173026942F00402026101730120FA
:1022A00070470020704700002DE9F84F0446006891
:1022B00089460B9D01689846174641F4806101608C
:1022C0002068016841F48071016000954FF0011BA6
:1022D0000022594620460A9B00F0E4F84FF4007AA9
:1022E00040B120680068C00501D5C4F840A00320B3
:1022F000BDE8F88F216809F0FE0008612B462849E7
:1023000020460A9A00F016F9F0BB206841698069FE
:1023100000902A4620460A9900F0A2F940B1206CAC
:1023200004283AD12068016841F40071016034E06A
:10233000FEB2B8F1010F09D02168380A08612A46B7
:1023400020460A9900F08CF90028E8D1206806613F
:102350002A4620460A9900F083F90028DFD1206838
:10236000016841F4807101600095002259462046C1
:102370000A9B00F097F80028B3D1216809F0FF000C
:1023800040F00100086100E007E02B4604492046C8
:102390000A9A00F0CFF80028AAD00120A8E7000090
:1023A000020001002DE9F843044600680D46DDE90E
:1023B000089701689846164641F4807101604B46C3
:1023C00000224FF001112046009700F06BF848B151
:1023D00020680068C00502D54FF400702064032017
:1023E000BDE8F883216805F0FE0008613B464A46D7
:1023F0001549204600F09EF888B920684169806937
:1024000000903A464946204600F02AF948B1206C2F
:10241000042804D12068016841F4007101600120A2
:10242000DEE7F5B2B8F1010F09D02168300A086182
:102430003A464946204600F013F90028E7D12068C3
:1024400005610020CCE700000200010070B51646CF
:102450000D4604461EE02046FFF70EFF08B101209E
:1024600070BD681C16D0FEF751FC801BA84200D836
:1024700085B920684069C04340070BD5002044F867
:10248000300F20216173A073216941F02001216187
:102490002073E4E720684069C0434007DBD4002094
:1024A00070BD00002DE9F047984617460D460446DA
:1024B000C1F30746DDF820902AE000BFB8F1FF3FE6
:1024C00026D0FEF723FCA0EB0901414502D8B8F164
:1024D000000F1DD12068012E16D0806925EA00006A
:1024E0000004000C12D00020B84211D1002044F8A2
:1024F000300F20216173A073216941F02001216117
:1025000020730120BDE8F0874069E7E70120EBE791
:102510002068012E0AD0806925EA00000004000C22
:1025200006D00020B842C9D00020EBE74069F3E7AD
:102530000120F7E72DE9F047984616460D46044678
:102540004FF000094FF0200AC1F3074723E020684D
:102550004069C043400515D42068016841F400710A
:10256000016021686FF480604861C4F8309084F89D
:102570003DA084F83E90216C41F00401216484F870
:102580003C9021E0701C06D0FEF7C0FBA0EB0800D9
:10259000B04203D816B1012F1FD021E02068012FCF
:1025A00015D0806925EA00000004000C18D000BF97
:1025B00044F8309F84F80DA084F80E90216941F012
:1025C0002001216184F80C900120BDE8F08740696A
:1025D00025EA00000004000CEAD12068406901E00F
:1025E0002068806925EA00000004000CAFD1ECE708
:1025F0002DE9F041002590460E460446202728E0AC
:102600004069C043C0060CD454F8301B6FF0100072
:10261000486144F810596777A577206A20622577CA
:1026200014E0FEF773FBA0EB0800B04200D886B9B7
:1026300020684069C04340060BD544F8305F67739B
:10264000A573206940F02000206125730120BDE8BA
:10265000F08120684169C9434906D1D40020F6E7DA
:1026600070B516460D4604461EE02046FFF704FEF0
:1026700008B1012070BD681C16D0FEF747FB801B17
:10268000A84200D885B920684069C04300060BD530
:10269000002044F8300F20216173A073216941F0BC
:1026A000200121612073E4E720684069C0430006EF
:1026B000DBD4002070BD00002DE9FF4F8DB00CA9C8
:1026C00004A8CDE900010BAB05AA09A902A801F0F5
:1026D000E9FE20B14FF0FF3011B0BDE8F08FBDF83A
:1026E0001000C0057ED50598FDF76BFF6FF01D0447
:1026F0002146FDF741FE80460698FDF762FF214620
:10270000FDF73AFE82460798FDF75BFF2146FDF78D
:1027100033FE81460898FDF754FF2146FDF72CFE55
:10272000054601214046FDF727FE06464946FDF7CE
:10273000B3FD04464FF040415046FDF7ADFD07465E
:102740002946FDF7A9FD2146FDF74EFDFDF774FF73
:1027500001F026FA4FF0663B5A463F4BFDF7BFFEAD
:10276000FDF77DFF0D99086001214846FDF704FE45
:1027700049460090FDF790FD044638465146FDF766
:102780008BFD2146FDF782FD4FF07E51FDF72CFDBC
:10279000FDF752FF07460C4630465146FDF77CFDDB
:1027A000064629460098FDF777FD3146FDF71CFDEA
:1027B000FDF742FF3A46234601F03AFC5A46264BC3
:1027C000FDF78DFEFDF74BFF0E9908602946084680
:1027D000FDF762FD074649460846FDF75DFD0646E2
:1027E000514600E031E00846FDF756FD04464146FB
:1027F0000846FDF751FD2146FDF7F6FC3146FDF791
:1028000045FD3946FDF742FDFDF716FF06460C462D
:1028100029464046FDF740FD054649465046FDF72E
:102820003BFD2946FDF7E0FC0121FDF7A5FDFDF785
:1028300003FF3246234601F0FBFB5A46064BFDF7E9
:102840004EFEFDF70CFF0F9908601098BDF80A10B6
:102850000180002040E7000066A64C4038B568467D
:1028600002F0D0FD10B14FF0FF3038BD782003F0FA
:1028700067FB10B16FF0010038BD782002F0F4FC66
:1028800010B16FF0020038BD642003F00DFB10B1F1
:102890006FF0030038BD01F0FBFD10B16FF00400D4
:1028A00038BD1948044602F06DFC0546E01C02F0F4
:1028B00069FC45EAC005A01D02F064FC45EA8010F1
:1028C00080B201F0A7FF10B16FF0050038BD40F2F3
:1028D000731001F0B5FC10B16FF0060038BD642034
:1028E00001F000FF10B16FF0070038BD03F0EEFB00
:1028F00010B16FF0080038BD012003F0CFF90028B7
:10290000F9D06FF0090038BD3C0000202DE9F043FC
:1029100085B00024254800940194029403948169B1
:1029200041F010018161816901F010010491816918
:1029300041F020018161816901F0200104918169E8
:1029400041F004018161816901F004010491816910
:1029500041F0080181618069DFF8548000F00800CF
:102960004FF470450490002229464046FEF7C8F90E
:10297000DFF840904FF48057002239464846FEF772
:10298000BFF90095022601250396CDE90154694659
:102990004046FEF7C5F800970396CDE90154694615
:1029A0004846FEF7BDF805B0BDE8F08300100240D0
:1029B000000C0140000801400D4810B50B490160B2
:1029C0000C49416000214FF480428160C0E903124C
:1029D00041618161C1610162FEF79EF9002803D067
:1029E000BDE81040FEF787B810BD00000058004059
:1029F000A8000020801A060010B586B000241848F0
:102A00000094019402940394049414490594016081
:102A100040F2CF21C0E9011440F2E731C0E90314CC
:102A200044618461FEF77AFF08B1FEF764F84FF461
:102A30008050009069460A48FEF7F4FF08B1FEF79F
:102A40005AF8049404A906480594FEF733FF0028B9
:102A500001D0FEF750F806B010BD0000002C014078
:102A6000FC00002010B58CB024216846FDF7A4FBC3
:102A70000024154809944FF080410A94C0E90014DD
:102A80004FF6FF71C0E90241046184610120CDE984
:102A90000004CDE902040F210491CDE90540CDE900
:102AA000074169460848FFF72BF808B1FEF723F8FD
:102AB000099409A904480A94FEF7FCFE002801D0F5
:102AC000FEF719F80CB010BD4401002010B58EB00F
:102AD00000240794089409940A940B941C216846D6
:102AE0000C94FDF769FB2248204901604721C0E9A9
:102AF000011442F20F71C0E903148461FEF70EFF66
:102B000008B1FDF7F8FF4FF48050079007A9184867
:102B1000FEF788FF08B1FDF7EEFF1548FFF723FA2F
:102B200008B1FDF7E8FF0B940BA911480C94FEF7D0
:102B3000C1FE08B1FDF7DFFF6020CDE9000402947B
:102B4000002269460A480494FFF7A7F908B1FDF787
:102B5000D2FF042269460648FFF79FF908B1FDF746
:102B6000CAFF0348FFF772F90EB010BD0004004021
:102B70008C01002010B58CB024216846FDF71CFBA9
:102B800000241648099414490A94C0E900144FF629
:102B9000FF71C0E90241046184610120CDE90004B4
:102BA000CDE902040F210491CDE90540CDE90741AB
:102BB00069460A48FEF7A4FF08B1FDF79CFF099497
:102BC00009A906480A94FEF775FE002801D0FDF712
:102BD00092FF0CB010BD000000080040D40100209E
:102BE0000C4810B50A4901604FF4E1314160002101
:102BF00081600C22C160C0E904128161C161FFF7EC
:102C000082FA002803D0BDE81040FDF774BF10BD64
:102C1000003801401C020020FEE7000070B53C2196
:102C20001448FFF717F83C211348FFF713F8114C2D
:102C30002068C16841F00101C1600F4D2868C1687A
:102C400041F00101C1600D48FEF7C0FE04210B48B0
:102C5000FFF7B8F900210948FFF7B4F9216800200F
:102C6000486229684862BDE87040012211030448A7
:102C7000FEF746B844010020D40100208C0100205A
:102C800000080140FEE770477047FEF7F9BA30B51B
:102C90008FB028216846FDF78FFA14210AA8FDF7A6
:102CA0008BFA01210804CDE90010002402940225CA
:102CB0000491CDE907504FF4E01009906846FEF703
:102CC00053FC08B172B6FEE70F20CDE90A054FF4B8
:102CD0008060CDE90C4002210AA80E94FEF768FB43
:102CE000002801D072B6FEE70FB030BD704700007B
:102CF0000148FEF7F7BF0000440100200148FEF73D
:102D0000F1BF00008C0100200148FEF7EBBF00007E
:102D1000D4010020F0B50268164B174C174D4FF048
:102D20008047984205D0B84203D0A04201D0A842C3
:102D300003D122F070064A683243984205D0B84267
:102D400003D0A04201D0A84203D122F44074CA6843
:102D500022434C6922F08002224302608A68C262E8
:102D60000A688262984201D10969016301214161C7
:102D7000F0BD0000002C01400004004000080040AD
:102D800010B501F01F030121046A99408C430462CD
:102D9000016A9A401143016210BD10B5846842EA8D
:102DA000032224F47F440A432243826010BD8268D8
:102DB00022F070020A4342F0070181607047000070
:102DC00030B5036A026A22F0010202624268846935
:102DD00024F073050C682C4323F002058B682B4309
:102DE0000A4DA8420BD123F00805CB6822F44072AB
:102DF0002B434D6923F0040315438A692A4342603B
:102E0000846149684163036230BD0000002C0140C9
:102E100030B5026A036A23F01003036243688469D1
:102E20000D6824F4E64444EA05248D6822F020026B
:102E300042EA05120B4DA8420ED1CD6822F0800265
:102E400042EA05124D6923F4406343EA85038D6924
:102E500022F0400243EA850343608461496881634C
:102E6000026230BD002C014030B5036A026A22F4D0
:102E7000807202624268C46923F4007324F073050F
:102E80000C682C438D6843EA05230C4DA8420ED1F3
:102E9000CD6823F4006343EA05234D6922F44052D0
:102EA00042EA05128D6923F4806342EA051242600A
:102EB000C4614968C163036230BD0000002C014059
:102EC00030B5046A026A22F4805202624268C36921
:102ED0000D6823F4E64343EA05238D6824F4005487
:102EE00044EA0534064DA84204D14D6922F48042DB
:102EF00042EA85124260C36149680164046230BDE0
:102F0000002C014010B5036A046A24F00104046235
:102F1000846924F0F00444EA021423F00A020A430C
:102F20008461026210BD10B5036A046A24F01004C3
:102F30000462846923F0A00324F4704444EA02325A
:102F400043EA01118261016210BD000070B50446C0
:102F500000680169E26821F440511143016121696F
:102F6000A0680843616908432168CA6841F20C639C
:102F70009A430243CA6020684169A26921F4407102
:102F8000114341611E492068884202D1FEF7B6FA1A
:102F900001E0FEF7A3FA00EBC00101EB001260684C
:102FA00064218000B2FBF0F3B3FBF1F36FF018067D
:102FB0007343B2FBF0F5B2FBF0F605EB8305322369
:102FC00003EB0515B5FBF1F5B6FBF1F605F0F005E1
:102FD00005EB0615B2FBF0F6B2FBF0F0B0FBF1F03A
:102FE0006FF01802504306EB800003EB0010B0FBBB
:102FF000F1F0216800F00F002844886070BD0000E7
:10300000003801402DE9F041984617460E46044627
:10301000069D27E0681C25D02DB1FDF777FEA0EBBB
:103020000800A8421ED920680C3050E8001F21F487
:10303000D07140E80012002AF5D12068143050E821
:10304000001F21F0010140E80012002AF5D12020E4
:1030500084F8410084F84200002084F840000320F6
:10306000BDE8F0812068006836EA000004D0002046
:10307000B842CFD00020F3E70120F9E7FEE70000D7
:103080002DE9F0411446FDF7AFF82146FDF7FEF8B3
:10309000FDF7D2FA1D4F1E4B3A46FDF720FA1D4CA4
:1030A00005460E466069FDF7C7FA3A461A4BFDF72A
:1030B00016FA33462A46FDF76BF9FDF7D0FA0546B6
:1030C00001466061A069FDF78FF81449A06188424C
:1030D00002DC1349884200D908460146A061E06835
:1030E000FDF7DAF806462946A068FDF7D5F831461F
:1030F000FDF77AF80B490C4A0968914202D20B4A53
:10310000914201DB0021A161BDE8F0819A99999972
:103110009999C93F500000209999E93F00401C4609
:1031200000401CC6780000200000F0C10000F04103
:103130000FB4054B10B503A9044A029800F06CF9CE
:1031400010BC5DF814FB0000B54B0008A000002087
:10315000490050EAC12018BF04204A0D18BF40F0B2
:10316000010040F2FF72B2EB515F08BF40F0020075
:10317000012808BF052070470907090E002804DB55
:1031800000F1E02080F80014704700F00F0000F11B
:10319000E02080F8141D70472DE9F0414F1E00EB30
:1031A000C7010446D1E9000115461E4637F0060264
:1031B0000DD02A463346FDF792F97F1E04EBC70374
:1031C000D3E90023FDF7E4F837F00602F1D1022F2E
:1031D00025D0042F13D0062F18BFBDE8F0812A4652
:1031E0003346FDF77CF9D4E90A23FDF7D1F82A46E6
:1031F0003346FDF774F9D4E90823FDF7C9F82A46E8
:103200003346FDF76CF9D4E90623FDF7C1F82A46E9
:103210003346FDF764F9D4E90423FDF7B9F82A46EB
:103220003346FDF75CF9D4E90223FDF7B1F82A46ED
:103230003346FDF754F9D4E90023BDE8F041FDF72A
:10324000A7B80122FDF792BBFDF7A2B800221346F2
:1032500010461146FDF71BBB024A00201107FDF77F
:1032600085BB000001FDFFFF02E008C8121F08C176
:10327000002AFAD170477047002001E001C1121FF7
:10328000002AFBD170470000014908607047000028
:10329000A40000202DE9FF5F82B00021DDE90430A9
:1032A000020DDDF840B0034318D044F61050A2F2EE
:1032B000FF3242431514119801281FD0A5EB0B00D3
:1032C000401C5FEA000A4FF000064E4FDFF83891CD
:1032D000B046504615D5CAF1000413E011980124F8
:1032E0004AA3012801D16FEA0B010298119AC0E9A3
:1032F0000031C0E9024206B0BDE8F09FCBF100000A
:10330000DFE704460021404A491842EB0450CDE96A
:10331000001012E0E00707D032463B4640464946DF
:10332000FDF7DDF88046894632463B461046194691
:10333000FDF7D5F806460F466410002CEAD1DDE90A
:103340000401DDE90023BAF1000F06DAFDF7C7F842
:1033500042464B46FDF7C3F805E0FDF798FA4246B2
:103360004B46FDF794FA04460E460022284BFDF723
:1033700045FB03D84FF0FF30014607E00022254B04
:1033800020463146FDF704F8FDF707FB102409E05D
:10339000002C0ADB0A220023FDF793F9039B30324D
:1033A0001A55641E50EA0102F2D1641C039AC4F15A
:1033B00011031444119A012A03D0012208430DD1AC
:1033C0000AE0084304D000204FF0110B119072E77F
:1033D000A3EB0B056D1E0DE05B4504DD4FF0000215
:1033E00005F1010504E003DA4FF00002A5F1010543
:1033F000002AECD002981199C0E90231C0E90045D9
:1034000079E70000000014400000F03F30000000A9
:103410000000F0430000E03F2DE9FF4F95B09A46D1
:10342000884606460025EEE1252877D10024274668
:10343000F94A0121039400E0044316F8013F203BC0
:1034400001FA03F01042F7D130782A2811D06FF03A
:103450002F033078A0F13002092A16D8039A44F0DD
:10346000020402EB820203EB42021044761C03903A
:10347000EFE758F8042B0392002A03DA504244F491
:103480000054039044F00204761C30782E2816D1A4
:1034900016F8010F44F004042A280DD06FF02F0213
:1034A0003078A0F13003092B09D807EB870302EB32
:1034B0004303C718761CF3E758F8047B761C307872
:1034C0006C280FD006DC4C2817D068280DD06A284D
:1034D00014D104E0742810D07A280FD10DE044F400
:1034E00000140AE044F4801401E044F440147278BB
:1034F000824202D104F58014761C761C307866284E
:103500000BD013DC582877D009DC002875D045286B
:10351000F6D04628F4D047281AD193E118E0632862
:1035200035D0642879D0652812D18BE1702873D00A
:1035300008DC6728F1D069286FD06E280DD06F287D
:1035400006D1ACE073282CD0752874D0782853D0DD
:103550005246179990476D1C54E1C4F3025002285B
:1035600009D003280DD0D8F8001004280DD00D6024
:1035700008F1040846E1D8F80010EA17C1E9005242
:10358000F6E7D8F800100D80F2E70D70F0E718F8B4
:10359000041B8DF8001000208DF80100EB4601207F
:1035A00003E058F804BB4FF0FF3061074FF0000113
:1035B00002D40DE009F101018946B9420FDA8145D3
:1035C000F8DB1BF809100029F4D108E009F101012A
:1035D00089468142FADB1BF809100029F6D10398CD
:1035E0005346A0EB090721463846179A00F080FAA7
:1035F000284400EB090507E044E008E10DE01BF872
:10360000010B524617999047B9F10109F7D2534679
:1036100021463846179AF2E039E00A21C4F30252F3
:103620004FF0000B0091022A06D058F8040BC11786
:10363000032A09D00AE023E008F1070020F007027E
:10364000F2E80201904605E000B2C117042A01D158
:1036500040B2C117002906DA0A460021404261EB58
:1036600002012D2202E0220504D52B228DF8042030
:10367000012203E0E20701D02022F7E7914657E05C
:103680000A2100E010214FF0000B00910BE0102107
:103690004FF0000B44F004040827009103E00820D9
:1036A0004FF0000B0090C4F30252022A05D058F8E4
:1036B000040B0021032A08D008E008F1070020F0DD
:1036C0000702F2E80201904603E080B2042A00D12A
:1036D000C0B24FF0000922072AD53278702A07D0ED
:1036E000DDF800C08CF0100C5CEA0B0C05D00EE08D
:1036F00040228DF80420012208E050EA010306D0A0
:1037000030238DF804308DF8052002229146009B6D
:1037100083F0080353EA0B030AD150EA010201D1F6
:10372000620705D530228DF804204FF001097F1E75
:103730003278582A04D039A20C920CAA02920BE0DB
:103740003BA2F9E75B46009AFCF7BBFF0C9B9B5C36
:10375000029A521E0292137050EA0102F2D10298AC
:1037600004A9081A00F1200B600702D524F4803464
:1037700000E001275F4502DDA7EB0B0000E0002021
:1037800000EB0B01009003984944401A0390E003BA
:1037900006D453462146179A039800F0A9F9054428
:1037A000002706E001A85246C05D179990476D1C9E
:1037B0007F1C4F45F6DBE0030CD553462146179A94
:1037C000039800F095F9054404E03020524617991B
:1037D00090476D1C0099481E00900029F5DC08E018
:1037E0000298029952460078491C02911799904715
:1037F0006D1CBBF10001ABF1010BF1DC5BE100F0F2
:1038000065F90544761C307800287FF40DAE19B0B8
:103810002846BDE8F08F000009280100303132331E
:1038200034353637383961626364656600000000FC
:1038300030313233343536373839414243444546E6
:1038400000000000600700D4062708F1070020F000
:103850000700F0E80223804603F0004C5FEA0C000A
:1038600001D097A009E0200501D596A005E0E0076A
:1038700001D095A001E0AFF24C001390307823F016
:10388000004365280CD006DC452809D046281DD009
:1038900047287FD13BE0662818D067287AD136E0E8
:1038A0000021112F01DB112000E0781CCDE900017F
:1038B00004A90CA8FFF7EEFCDDE90D010C9A4FF00E
:1038C000000B07F10109109200914EE04FF000400B
:1038D0000097CDE9011004A90CA8FFF7DBFCDDE996
:1038E0000D020C9B0F994FF0000B91461093009224
:1038F00011B9791C00EB0109B7EB090003D4C0F141
:10390000FF3B07F10109A9EB0700019042E0012FFD
:1039100000DA01270021112F01DD112000E03846D7
:10392000CDE9000104A90CA8FFF7B4FCDDE90D0105
:103930000C9A00914FF0000BB946109221070FD45A
:10394000009A4A4503DA914601E0A9F10109B9F16B
:10395000010F05DD109AA9F10101515C3029F4D065
:10396000B84202DA10F1040F03DA0121CDE90110A7
:1039700010E0002803DC8344A9EB000102E0411CB5
:10398000494500DD8946A0EB0B00401C01904FF03B
:1039900000400290200705D40198484502DB4FF013
:1039A000FF30019000208DF84B0002980DF14B077D
:1039B000B0F1004F25D002200C902B200D900298E2
:1039C00000280CDA404202902D200D9007E00A21D9
:1039D0000298FCF760FE3031029007F8011D0C9947
:1039E000481E0C900029F2DC02980028EFD1791EC5
:1039F0000D980870307800F0200040F0450007F87E
:103A0000020D11A8C01BC01D02901398007800B1D0
:103A1000012000EB0901019801EBE07102980144DB
:103A20000398401A401E0390E00306D453462146F3
:103A3000179A039800F05CF805441398007818B1C1
:103A40005246179990476D1CE00323D553462146F3
:103A5000179A039800F04CF805441BE0BBF1000FE7
:103A600007DB0098584504DD1098179910F80B00F3
:103A700001E0179930205246904701980BF1010B55
:103A8000401E05F10105019004D12E2052461799E0
:103A900090476D1CB9F10001A9F10109DEDC05E0D8
:103AA00017F8010B5246179990476D1C0299481E52
:103AB00002900029F4DC53462146179A03989EE6AB
:103AC0002D0000002B000000200000002DE9F04137
:103AD000044600251E461746880404D405E03946EE
:103AE0002020B0476D1C641EF9D52846BDE8F08142
:103AF0002DE9F041044600251E469046C80301D535
:103B0000302700E02027880404D505E041463846E8
:103B1000B0476D1C641EF9D52846BDE8F081000051
:103B20002DE9FE4F07460E460025684601F04EF887
:103B300000246FF00F0AE8464FF0010957F82400FF
:103B400056F82410401A00D54042FCF73AFD514681
:103B5000FCF712FC58F8241011F0FF4F0BD0FCF7C3
:103B6000CDFB4FF07E51FCF791FB0A4920F000405D
:103B7000884205DC07E0084908440849884202D326
:103B800009FA04F00543641C032CD7DB2846BDE882
:103B9000FE8F0000295C0F3E666666C19A99D900C7
:103BA0002DE9F04D8D4F21F0004A86B005460C46B8
:103BB000BA452ADBAAEB070028430AD08848824589
:103BC00001DC1AD1CDB106B02846BDE8F04DFFF7B3
:103BD00038BB844A844B2846FCF781FC07460E46D6
:103BE000824A834B28462146FCF779FC06B03A46C8
:103BF0003346BDE8F04DFCF7CBBB0120FFF744FB9B
:103C000006B0BDE8F04DFFF721BB7A48824542DAA5
:103C1000BAF1795F0BDA2846FFF79AFA042808BF51
:103C2000FFF71AFB284606B02146BDE8F08D2A466C
:103C30000B461046FCF753FC834602466E480E4680
:103C40000B4606217844FFF7A7FA5A463346FCF79D
:103C500046FC804669488A465A46334604217844E1
:103C6000FFF79AFA5A463346FCF739FC00223B46E6
:103C7000FCF78EFB02460B4640465146FCF707FE1A
:103C80002A462346FCF72BFC06B02A462346BDE80D
:103C9000F04DFCF77DBB284624F0004100223D4654
:103CA0003B46FCF719FC4FF0FF32FCF75FFE06467F
:103CB000024653480F460B4606217844FFF76CFA3C
:103CC00032463B46FCF70BFCCDE900014D4832463D
:103CD0003B4604217844FFF75FFA32463B46FCF747
:103CE000FEFB00222B46FCF753FB83460291304635
:103CF000394602F0E3FA804643480D46504517DC4A
:103D0000DDE900015A46029BFCF7C1FD42462B4605
:103D1000FCF7E5FB42462B46FCF73AFB0122FCF799
:103D200025FE304A304BFCF7D4FB304A304B4CE098
:103D30004FF0000A52460B464046FCF729FBCDE9FE
:103D4000031052462B4610461946FCF7C8FB324674
:103D50003B46FCF7C1FBDDE90332FCF798FD064664
:103D60000F46DDE900015A46029BFCF790FD8346B1
:103D70000091012230463946FCF7F8FD194A1A4BEA
:103D8000FCF7AAFB06460F46012240462946FCF7EF
:103D9000EDFD5A46009BFCF7A2FB32463B46FCF782
:103DA00098FB06460F46012250462946FCF7DEFDE9
:103DB0000E4DDFF858802A464346FCF78DFB32460D
:103DC0003B46FCF789FB2A464346FCF785FB002C63
:103DD000D8BF81F0004106B0BDE8F08D0000F03F93
:103DE0000000F07F075C143326A6913C182D445444
:103DF000FB21F93F0000E03F383300004E33000064
:103E0000C2320000D83200003333EF3FFB21E93FDC
:103E10002DE9F84F04460D4621F00040009173490A
:103E2000814211DC7249884201DC06D12CB1204666
:103E30002946BDE8F84FFFF704BA6E48002DCCBF05
:103E40006D496E49BDE8F88F6D49814211DD6D49BC
:103E50008142D8BF4FF0FF366DDD20462946FFF77F
:103E600077F9042808BFFFF7F7F920462946BDE88F
:103E7000F88F6549654F25F00045814233DD64497F
:103E8000814219DD002632464FF080432046294604
:103E9000FCF77EFA80468A46012220462946FCF736
:103EA00065FD00223B46FCF714FB42465346FCF7F7
:103EB000EEFC04460D463EE001260022BA463B4693
:103EC00020462946FCF764FA80460F4600225346F6
:103ED00020462946FCF7FDFA42463B46FCF7D7FC54
:103EE00004460D4627E04B4981421BDDDFF828A13F
:103EF00002260022534620462946FCF7F0FA00220B
:103F00003B46FCF745FA80460F46002253462046C2
:103F10002946FCF7DEFA42463B46FCF7B8FC04466D
:103F20000D4608E0032622462B4600203B49FCF7BD
:103F3000AEFC04460D4622462B4610461946FCF7B9
:103F4000CEFA8B46824602460B46FCF7C8FA074675
:103F50000246334888460B4606217844FFF71CF991
:103F600052465B46FCF7BBFA82462E488B463A46E1
:103F7000434605217844FFF70FF93A464346FCF7DC
:103F8000AEFA02460B46002E504659460CDAFCF7B4
:103F9000FFF922462B46FCF7A2FA01B022462B4637
:103FA000BDE8F04FFCF798BAFCF7F2F922462B4631
:103FB000FCF795FA1C4A7A4402EBC603D3E90023C6
:103FC000FCF787FA22462B46FCF783FA174A7A4415
:103FD00002EBC603D3E90023FCF77EFA009A002A1D
:103FE000B8BF81F00041BDE8F88F00000000104428
:103FF0000000F07F182D4454FB21F93FFB21F9BF4D
:104000000000DC3F0000203E0000F33F0000F03FD6
:104010000000E63F008003400000F83F0000F0BFD2
:10402000DA3000009830000036300000FE2F00002B
:104030002DE9F04D9446CCF1000423F000464CEA03
:104040000404594F46EAD4749A46884621F0004247
:10405000BC4206D8454240EA050442EAD474BC4258
:1040600004D9BDE8F04D6246FFF7EEB8AAF140551D
:10407000A5F17F6555EA0C040BD0022404EAAA746A
:104080004A4DDFF82CE144EAD87452EA000B04D020
:104090000CE0BDE8F04DFFF7BBBE002C14BF012CB7
:1040A000BDE8F08D022C30D0032C32D056EA0C0B38
:1040B0000AD0BE4220D1BA4209D126F0804622F071
:1040C00080423346114617E000291ADB25E0DFF86D
:1040D000E4B0FB44002C04BFDBE90001BDE8F08D37
:1040E000012C02BFDBE9000181F00041BDE8F08D49
:1040F000022C0AD0032C0CD0BA4212D1B8F1000F16
:104100000BDA2A482C49BDE8F08D28462B49BDE83A
:10411000F08D28467146BDE8F08D24482849BDE859
:10412000F08D921B12153C2AC4BF204F244E10DC88
:10413000BAF1000FBEBF12F13C0F00273E4608DB6C
:104140006246FCF7A4FB21F00041FFF761FE074641
:104150000E4694B1012C08BF86F000460DD0194AD6
:10416000194B022C3846314615D0FCF7B2F92A46D5
:10417000BDE8F04D114BFCF7ACB9002213463846B0
:104180003146FCF723FC04BF0220FFF77DF83846D8
:104190003146BDE8F08DFCF79CF92A46BDE8F04DAC
:1041A000064BFCF799B900000000F07F182D44542D
:1041B000FB2109C0922F0000FB21F9BFFB21094020
:1041C000FB21F93F075C143326A6A13C70B50C4CCB
:1041D0000D462169FCF75AF8064628466168FCF747
:1041E0005BF8054631462068FCF756F82946FBF790
:1041F000FBFFFCF7F4F9BDE87040FCF7E2B9000002
:104200005000002008B560B120208DF80000282063
:104210008DF8010030208DF8020038208DF8030061
:1042200004E0A32204216846FBF7BFFF6A4604218D
:1042300040F69E2001F0F4FE01F0F4FA08BD000003
:104240003EB5044602208DF80000CA208DF801001A
:10425000E3208DF8020009208DF803006A4604214E
:10426000682001F0DDFEA3208DF80000610609D56D
:10427000C0218DF80110C8218DF80210C2218DF8DF
:10428000031005E08DF801008DF802008DF80300A1
:1042900014F4C07F09D0C4218DF80410CC218DF80E
:1042A0000510C6218DF8061005E08DF804008DF884
:1042B00005008DF806008DF808008DF807008DF8D0
:1042C00009006A460A2140F6A72001F0A9FEA007CE
:1042D0004FF0D80503D020208DF8000001E08DF8C4
:1042E00000506A46012140F6B62001F099FEA00672
:1042F00001D5012000E0002000F08EF814F4C07F0A
:104300001ED0E0050AD5B2208DF800008B208DF874
:104310000100B6208DF802009B2009E0B0208DF846
:10432000000080208DF80100B4208DF8020090205C
:104330008DF803006A46042140F6A22001F070FEC9
:10434000E1074FF40B6022D0F8218DF800106A4687
:10435000012101F065FEFA21072000F04BFB072048
:1043600000F016FB012000F033FB642000F0D6FBC8
:104370004FF4FA7000F0E2FBC821254800F0D0FAB3
:10438000282000F0E5FA0A2000F0F2FA05E08DF8A6
:1043900000506A46012101F043FEA00703D5D92051
:1043A0008DF8000001E08DF800506A46012140F2CE
:1043B0003D7001F035FE600701D5012000E00020CE
:1043C00000F048F8E00601D5012000E00020FFF7EA
:1043D00019FF104D44F00800688101F023FA002015
:1043E000A873600601D50620A87314F4C07F02D01C
:1043F000A87B801DA87314F0140F02D0A87B103086
:10440000A873A00702D0A87B001DA87300203EBDA2
:1044100009E3CA02640200200EB54FF4976310B19D
:1044200006A107C901E008A207CA8DE807006A468D
:104430000921184601F0F4FD0EBD0000B8AAB38DA5
:10444000B4980D355D000000B8AAAAAAB088C3C50B
:10445000C700000008B560B1C0208DF80000C22080
:104460008DF80100C4208DF80200C6208DF80300ED
:1044700004E08B2204216846FBF797FE6A4604217C
:1044800040F6982001F0CCFD01F0CCF908BD000009
:10449000C8234FF48062024940F6F63001F060B85C
:1044A000846300082DE9FF4F89B01746DDE91652F5
:1044B0000024554E884681462C80A246B07B694632
:1044C00001F012F94FF0FF3B18B158460DB0BDE8AE
:1044D000F08F708910F0140F4CD0BDF800109DF8CB
:1044E000022049BA090441EA02239DF803100B4354
:1044F0003B60BDF804109DF8062049BA090441EA62
:1045000002229DF807101B140A437A60BDF80810B8
:104510009DF80A4049BA090441EA04219DF80B407C
:1045200012142143B960BDF80C409DF80EC064BA66
:10453000240444EA0C2C9DF80F4009144CEA040CA6
:10454000C7F80CC04FEA2C475B43494302FB0232D9
:1045500007FB071111441024A1F17061B1F1007F34
:1045600004D901F05FF9A5F800A0AEE7298841F46D
:10457000807129804206694611D50A19A41D138845
:104580005BBAA8F8003053885BBAA8F8023092886A
:1045900052BAA8F804202A8842F008022A8010F4AF
:1045A000C07F11D00A19A41D13885BBAA9F8003086
:1045B00053885BBAA9F80230928852BAA9F804204D
:1045C0002A8842F070022A80800716D00C44E078D6
:1045D00000F0C00500F03F016078C00706D0C808B1
:1045E00001F007013268491C02B19047607800076A
:1045F00003D5716809B1A8098847FCF787FB0C99B6
:104600000860002062E70000640200202DE9FF41FD
:10461000044603A800F070FEBDF80C00410CC30373
:1046200000BF2F48008900F0030254F822504207CF
:1046300000D56D42C0F3C102860654F8222000D591
:104640005242C0F38116C00554F8264000D564429A
:10465000A5FB0367E81700FB037005FB010085005D
:1046600045EA9670A2FB0367D51705FB037502FBAD
:104670000152950045EA9672A4FB0367E51705FB16
:10468000037304FB01318B0043EA9671030E8DF82E
:104690000030030C8DF80130030A8DF802308DF8DC
:1046A0000300100E8DF80400100C8DF80500100AA0
:1046B0008DF80600080E8DF80800080C8DF809002A
:1046C000080A8DF80A008DF807208DF80B106A464D
:1046D0000C214FF4257001F0A3FC04B0BDE8F0817B
:1046E0006402002030B5044613A285B007CA8DE8E5
:1046F00007004FF0FF35C82C16D8C820B0FBF4F1E6
:10470000491E080A8DF80C008DF80D1003AA02212D
:1047100040F2162001F084FC30B96A460C2140F6C4
:10472000C12001F07DFC10B1284605B030BD054820
:1047300084810020F9E70000FEF2ABC4AAF1DFDFBC
:10474000BBAFDFDF64020020F8B53049098901F012
:10475000030250F822404A0700D56442C1F3C10267
:104760008B0650F8222000D55242C1F3811350F835
:104770002330C80500D55B42254984FB01408500F4
:1047800045EA947082FB0142A40F44EA820483FB51
:104790000121950F45EA8105010E8DF80010010CED
:1047A0008DF80110010A8DF802108DF803006A4699
:1047B00004214FF4747001F033FC4FF0FF3688B9D8
:1047C000200E8DF80000200C8DF80100200A8DF8D5
:1047D00002008DF803406A4604214FF4757001F021
:1047E0001FFC08B13046F8BD280E8DF80000280CDB
:1047F0008DF80100280A8DF802008DF803506A46F2
:1048000004214FF4767001F00BFCF8BD6402002027
:1048100009E3CA022DE9FF4104463CA004F003036A
:10482000006802903AA0006803903AA006683AA097
:10483000056802A8C15C8DF80010C4F3C101425C98
:104840008DF80120C4F38112805C8DF8020003A86A
:10485000C35C8DF80430415C8DF80510805C8DF8E8
:1048600006006A46032140F2264001F0D9FB4FF0D2
:10487000FF37E0BB01AA032140F22A4001F0D0FB40
:10488000A8BBCDE9006560070BD59DF8000040F09E
:1048900001008DF800009DF8040040F001008DF843
:1048A0000400A0060BD59DF8010040F001008DF832
:1048B00001009DF8050040F001008DF80500E005BD
:1048C0000BD59DF8020040F001008DF802009DF824
:1048D000060040F001008DF806006A4603214FF4FF
:1048E000886001F09DFB10B901AA032100E004E0FB
:1048F00040F2314001F094FB18B1384604B0BDE8F5
:10490000F081064804810020F8E700004CCD6C00DF
:104910000CC92C003656760026466600640200203C
:104920004FF47A7290FBF2F008B54843010E8DF80F
:104930000010010C8DF80110010A8DF802108DF89D
:1049400003006A4604214FF4AE7001F069FB08BD14
:104950000521B0FBF1F008B5010A8DF800108DF8C3
:1049600001006A4602214FF4AD7001F059FB08BD09
:104970000521B0FBF1F008B5010A8DF800108DF8A3
:1049800001006A4602214FF4AC7001F049FB08BDFA
:1049900008B500218DF80010C10702D030218DF834
:1049A0000010810705D59DF8001041F00C018DF82D
:1049B0000010400705D59DF8000040F003008DF879
:1049C00000006A4601214FF4A47001F029FB08BDE4
:1049D00008B560B1042800D90420401E8DF80000FD
:1049E0006A46012140F24F1001F01AFB08BD012078
:1049F000F3E700002DE9FC41054640074FF0FF3684
:104A00007CD0B1F5C86F79D80846FBF7E3FD3E4985
:104A1000FBF774FC074601A800F050FC9DF8040069
:104A2000022806D004280DD008282ED0102865D1E1
:104A300034E00E213846FBF79FFCFBF7E9FD84B21A
:104A4000324907E00D213846FBF796FCFBF7E0FD05
:104A50002F4984B23846FBF71FFCFBF7D9FD210A2A
:104A60008DF8001080B28DF80140010A8DF8021017
:104A70008DF80300E8076C4620D0224602214FF44F
:104A8000EA7001F0CDFAC8BB11E00C213846FBF703
:104A900073FCFBF7BDFD84B21E49DBE70B213846F2
:104AA000FBF76AFCFBF7B4FD84B21B49D2E7A21CFA
:104AB00002214FF4927001F0B3FAF8B9A8070DD5AE
:104AC0006A4602214FF4EC7001F0AAFAB0B9A21CB8
:104AD00002214FF4947001F0A3FA78B9680710D559
:104AE0006A4602214FF4EE7001F09AFA30B9A21C26
:104AF00002214FF4967001F093FA10B13046BDE8F0
:104B0000FC810020FBE70000000048430000404615
:104B10000000C045000040450000C0440521B0FB36
:104B2000F1F008B5010A8DF800108DF801006A4611
:104B300002214FF4EF7001F073FA08BD0521B0FBBC
:104B4000F1F008B5010A8DF800108DF801006A46F1
:104B500002214FF4ED7001F063FA08BD0848094ADC
:104B6000C168914202DA084A914203D300210162EE
:104B700041627047012211030448FCF7C1B80000EC
:104B80006C0000200000F0410000F0C1000801406E
:104B9000064A13685B6A0380054803685B6A0B80FA
:104BA0001268002151620068416270474401002090
:104BB000D401002013B54FF47A73012269460248EC
:104BC000FDF70CFB00981CBD1C0200202DE9F043F2
:104BD00085B006460522042104A88DE80700274871
:104BE00001230D224068007841002548FCF758F960
:104BF00018B1072005B0BDE8F0839DF810101C2007
:104C000000EAD1029DF81310DFF87890C1F3011388
:104C10001A438DF80C209DF81120C1F3810300EA9E
:104C2000D2021A438DF80D209DF8122001F00301E5
:104C300000EAD20008430024134F8DF80E00A0466E
:104C400003AD285D10B146F824900AE046F82480B0
:104C50000DE000BF56F824003946FBF71DFB46F86F
:104C60002400285D401E10F0FF002855F2D1641C7E
:104C7000E4B2032CE5D30020BCE7000010000020C4
:104C8000A80000207B14AE3E1D5A843F2DE9F04F52
:104C900087B0054602200DF10C094FF0010ADFF83C
:104CA000F8B3CDE900908DF80CA04FF00008052670
:104CB0008DF80D8002960C46DBF80400DBF800103E
:104CC000174600784A7D41005346F448FCF710FA35
:104CD00000287CD1C820FBF711FF00208DF80C00C4
:104CE000B046CDF80090CDE901A8DBF800005E46A3
:104CF0000123427CDBF8040000784100E748FCF720
:104D0000F7F90028E5D1C346D046CA46CDE900A848
:104D1000CDF808B070683168B14600784A79410032
:104D20000123DE48FCF7E4F90028D2D103A9CDE93C
:104D30000018CDF808B0D9F80400D9F800105E4684
:104D400000784A7D4100CA460123D448FCF7D0F9D7
:104D50000028BED1C1460DF10C08B34642468DE88D
:104D6000040ADAF8000056460123827EDAF80400CD
:104D700000784100C948FCF7BBF90028A9D1CA4610
:104D8000C1468DE8000E3068012302797068007812
:104D90004100C248FCF7ACF900289AD10C208DF8EC
:104DA0000C00CDF80090CDE901AB3068D846012366
:104DB0000279706800784100B848FCF799F900283A
:104DC00087D10F20FBF79AFEB06A407A00E0A1E09D
:104DD0008DF80C00CDF80090CDE901A830680123D2
:104DE0008278706800784100AC48FCF781F90028AF
:104DF00088D1B06A0123007A8DF80C00CDF80090BC
:104E0000CDE901A830684278706800784100A34875
:104E1000FCF76EF900287DD1B06A807A0FB140F0BE
:104E2000E0008DF80C00CDF80090CDE901A83068C5
:104E3000012382797068007841009848FCF758F99E
:104E4000002867D127B1B06AC07A40F0E00000E0E6
:104E500018208DF80C00CDF80090CDE901A87068FD
:104E60003168CB460078CA79410001238B48FCF7B2
:104E70003FF9002876D117B1C820FBF73FFE40204C
:104E80008DF80C004746CDF800B0CDE901A7306899
:104E9000D146D846027970680123007841007F48E6
:104EA000FCF726F9B0BB78208DF80C00CDF8008017
:104EB000CDE901973068012342797068007841009C
:104EC0007648FCF715F928BB3220FBF717FE4FF0A8
:104ED000000ABB468DF80CA047468DE8800A306872
:104EE000012342797068007841006C48FCF700F9B2
:104EF00080B9D94602210097CDE90119706831685F
:104F0000BB4600780A7B4100B04601236348FBF7AB
:104F1000C7FF00E026E028BBBDF80C000C2140BA1A
:104F2000B0FBF1F0C5F808A0C5F804A0C5F800A0D2
:104F3000C4F808A0C4F804A0C6B20027C4F800A0B2
:104F400041E00C21CDF800B0CDE90119D8F80400FA
:104F5000D8F80010012300784A7B41004F48FBF746
:104F60009FFF20B14FF0FF3007B0BDE8F08FBDF8D4
:104F70000C00236840BA02B2BDF80E00BDF8101054
:104F80001A44226040BA626800B21044606049BAB4
:104F9000A06809B20844A060BDF812002B6840BAAE
:104FA00000B2BDF81410BDF816201844286049BAA4
:104FB000686809B20844686052BAA86812B210441E
:104FC0007F1CFFB2A860B742BBD328688322C117F9
:104FD000090441EA104100040023FBF7A5F832461A
:104FE0000023FBF7A1F8286068688322C117090431
:104FF00041EA104100040023FBF796F832460023F3
:10500000FBF792F86860A8688322C117090441EA97
:10501000104100040023FBF787F832460023FBF71A
:1050200083F8A86020684FF40065C117090441EABD
:10503000104100042A460023FBF776F8324600238D
:10504000FBF772F8206060682A46C117090441EA3C
:10505000104100040023FBF767F832460023FBF7FA
:1050600063F86060A0682A46C117090441EA10414C
:1050700000040023FBF758F832460023FBF754F8EE
:10508000A060002802DDA0F5803001E000F580304E
:10509000A060002068E7000010000020A8000020A9
:1050A0002DE9FF5F8846814603AE05200321009667
:1050B000CDE901102D480025012340680D2200781C
:1050C00041002B48FBF7ECFE18B1072004B0BDE807
:1050D000F09F9DF80C00002400F01F008DF80C00DC
:1050E0009DF80D006FF00F0B00F01F008DF80D0004
:1050F0009DF80E004FF0010A00F01F008DF80E0021
:1051000059F8241058F82400081A00D54042FBF73B
:1051100058FA5946FBF730F90746305DC0B11548DB
:1051200002E01549FBF7B8F8315D491E11F0FF01A7
:105130003155F6D101463846FBF7E0F84FF07E5185
:10514000FBF7A4F80D4920F00040884205DC07E099
:105150000B483844B0F1D97F02D90AFA04F005436C
:10516000641C032CCCDB2846B0E7000010000020B4
:10517000A80000200000C84154E3853F295C0F3E91
:105180000000E0BE90F90010002902DD4FF00000A1
:10519000704702DA4FF00400704790F901100029BF
:1051A00002DD4FF00100704702DA4FF00500704752
:1051B00090F90200002802DD4FF00200704702DA89
:1051C0004FF0060070474FF0070070471CB5FCF722
:1051D0005FF8FDF75CFDFDF799FBFDF7EDFBFDF7D3
:1051E00041FCFDF773FCFDF7C5FCFDF7F9FCFDF78D
:1051F00003FCFDF733FB124C20600AE06420FBF750
:105200007DFCFDF72BFB014620600EA0FDF790FF13
:1052100020680028F2D1FDF701FD0F4E0F4F3068D6
:10522000FBF70AFA04460D463868FBF705FA024612
:105230000B460BA0CDE90045FDF77AFFEFE7000034
:105240009C0000206D707520696E69742065727213
:105250006F723A256400000088000020840000205E
:1052600025662C25660A00002DE9F041124C20F03D
:105270000101002594F8240010B10020BDE8F08160
:10528000A07A4FF0FF3668B10840277C207488422E
:1052900000D0354641B1012000F0D2FF00F0C2FA43
:1052A00038B127743046E9E7207D00B1012000F0D5
:1052B000C7FF2846E2E70000100000200D494A7AA7
:1052C00042B1012A08D0022A0FD0032A0FD04FF092
:1052D000FF307047022200E004220270C97C11B145
:1052E0001106C90D0170002070470822F5E7102251
:1052F000F3E70000100000200F494A7A42B1012A6A
:1053000009D0022A11D0032A12D04FF0FF30704783
:105310004FF4804201E041F69C720280C97C11B1D9
:10532000C2F34E010180002070474FF48052F4E731
:105330004FF40062F1E70000100000200B49097AE9
:1053400039B1012907D002290AD003290BD0002145
:1053500003E0FA2101E04FF4FA7101800020704768
:105360004FF47A71F9E74FF4FA61F6E71000002084
:105370000A49097A41B1012908D002290AD0032932
:105380000AD04FF0FF307047054900E00549016041
:10539000002070470449FAE70449F8E710000020AC
:1053A000000003430000834233330342333383411D
:1053B0000C49C97A072913D2DFE801F01204060A62
:1053C0000C0E1000BC2100E062210180002070471B
:1053D0002A21FAE71421F8E70A21F6E70521F4E784
:1053E0000021F2E710000020054991F8242012B1B5
:1053F0004FF0FF307047C9890180002070470000DE
:10540000100000202DE9F04786B080208DF80C00B8
:105410000DF10C090527012648464F4C8DE8C100C7
:1054200020683346427D6068007841004B48FBF7B6
:105430005FFE4FF0FF3A00283AD16420FBF75EFB95
:10544000CDE900960025B8468DF80C50CDF80880BF
:1054500020684F460123427D6068007841003F4844
:10546000FBF746FE00286ED10621CDE90071CDF88C
:10547000088020680123427E606800784100374838
:10548000FBF70EFD00285ED19DF811009DF80F106E
:10549000C007400F01F0010140EA41009DF80D10E6
:1054A00001F00101084304D0012836D0022815D0AC
:1054B00049E0CDE90076CDF8088020680123C27864
:1054C0006068007841002548FBF7EAFCD8BB9DF8EE
:1054D0000C0010F00F0036D004281ED0E574FF2019
:1054E00004F80A0F4FF6FF7104F8020C04F8010CDF
:1054F0006070A180A0712072A67026766576E57234
:10550000A572E56025616561A576E576A5834FF412
:10551000FA6000F00FFCB0B901E0E674DFE70220AA
:1055200000F0E0FA78B92A2000F07EFC58B9322069
:1055300000F0BAFC38B90020FFF796FE18B9002039
:1055400000F00CFB18B1504606B0BDE8F087002013
:1055500000F0F6FC0020F7E710000020A800002073
:105560002DE9FF4FDFF8A080064689B098F82500A6
:1055700015460F464FF0FF39E0BBDFB3002420E0B3
:10558000301B102800DD102080B283463A190146F6
:105590009246204600F044FD60BB03AA59462046CF
:1055A00000F004F930BB50465A4603A9FAF70FFE43
:1055B00020B16FF001000DB0BDE8F08F04EB0B00DF
:1055C00084B2B442DCD3280A8DF81C008DF81D503B
:1055D0000522022107A88DE80700D8F800004446FC
:1055E0000123427FD8F80400007841000748FBF708
:1055F0007FFD08B14846DEE7012084F825000C98BD
:10560000E0840020D7E7000010000020A800002060
:105610002DE9FF5F0546282853D80026304C0DF1B0
:105620000C094FF007084FF0050A02277DB1012051
:1056300000F0C0FB20208DF80C004FF0010B012D75
:105640001CD0052D1DD88DF80DB0052023E00020BD
:1056500000F0B0FBCDE900978DF80C608DF80D805F
:10566000CDF808A020680123427D606800784100E1
:105670001C48FBF73DFD20BB26752FE08DF80D6023
:10568000E3E7142D03D88DF80D700A2003E0032002
:105690008DF80D00142000F0C7FB9DF80D10CDE92A
:1056A000009708EB81108DF80D00CDF808A0206858
:1056B0000123427D6068007841000A48FBF718FD2D
:1056C00020B14FF0FF3004B0BDE8F09F0820A07279
:1056D000267384F814B00020FFF7C6FD0020F2E71F
:1056E00010000020A80000202DE9FF5F2D4C064689
:1056F000904694F824008B464FF0FF3AC8B3A07A46
:10570000B8B30DF10C090527022148468DE8830046
:1057100020680123027B6068007841002248FBF783
:10572000BFFB30BBBDF80C0045BAB54203D2002127
:1057300088F800102CE060684188B5EB510F19D94A
:105740000122CDF80090CDE90127216800780123DE
:10575000CA7C41001448FBF7A3FB50B99DF80C002C
:10576000C00607D500F05EF86FF0010004B0BDE898
:10577000F09F0DE0CDF800B0CDE90167206801236E
:10578000427B6068007841000748FBF789FB08B15D
:105790005046EBE7B5FBF6F0401E88F8000000200D
:1057A000E4E7000010000020A80000202DE9FF41E0
:1057B00015000E464FF0FF372BD0184CA17A41B39D
:1057C000010A8DF80C10C0B28DF80D0081196068C7
:1057D000428991421DD8022203ABCDE900324FF03D
:1057E0000508CDF80880216800780123CA7E4100B1
:1057F0000B48FBF77DFC60B98DE860012068012350
:10580000027E6068007841000548FBF749FB0028EC
:1058100000D0384604B0BDE8F08100001000002040
:10582000A80000202DE9FF47704C4FF0FF3AA07A06
:1058300000286AD000270DF10C088DF80C700526A1
:10584000012540468DE8610020682B46427C606857
:10585000007841006648FBF74BFC002855D1CDF895
:105860000080CDE9015660682168012300784A79FB
:1058700041005F48FBF73CFC0028EFD1CDF80080E9
:10588000CDE9015660682168012300780A7941005A
:105890005748FBF72DFC002837D194F8240098B323
:1058A0000C208DF80C00CDF80080CDE90156206861
:1058B000012302796068007841004D48FBF718FC2D
:1058C000002822D13220FBF719F9C0208DF80C00F6
:1058D000A07AC00702D0E0208DF80C00CDF800803F
:1058E000CDE901562068C14601230279606800783D
:1058F00041003F48FBF7FCFB002872D1607C28B1D7
:1059000002208DF80C0003E019E040E08DF80C70E7
:10591000CDE90095B046CDF8088020684E460123B9
:10592000427C6068007841003148FBF7E1FB70BBC6
:10593000CDE900658DF80C70CDF8088046E00420B4
:105940008DF80C00CDF80080CDE9015620680123C8
:1059500002796068007841002548FBF7C9FBB0B9BF
:10596000A07CA8B9A07AC00712D060208DF80C00E6
:10597000CDF80080CDE901562068012302796068E6
:10598000007841001A48FBF7B3FB00B902E028E0B9
:105990004020EBE73220FBF7B1F8607C10B18DF8C6
:1059A0000C5001E08DF80C70CDF80080CDE9015667
:1059B00020680123427C6068007841000C48FBF7B6
:1059C00097FB70B9094810308DE861002068012309
:1059D00042796068007841000548FBF789FB0028A0
:1059E00000D0504604B0BDE8F08700001000002051
:1059F000A80000202DE9F047394C82468AB094F87F
:105A000024000F4620B1002000F048F9012600E0F4
:105A1000002607A8FFF792FC06A8FFF74FFC09A88D
:105A2000FFF7C6FC08A8FFF7DFFC94F80A9094F88B
:105A300010800025002239465046FFF727F910B1A3
:105A40006D1C022DF6DB022D1AD00025012203A9C0
:105A50006846FFF71BF910B16D1C022DF6DB022D15
:105A60000ED003A93846FEF75BF8C7B26946504628
:105A7000FFF716FB10F0FF0F4FF0000502D002E019
:105A8000002503E001250FB945F00205FF20207233
:105A90006072E0724FF6FF71E181A0722074012004
:105AA0002073BDF81C0000F045F99DF8180000F0C7
:105AB00019F8BDF8240000F0B7F9BDF8200000F097
:105AC000F3F9484600F03CFA4046FFF7CDFB16B12B
:105AD000012000F0E3F80AB02846BDE8F087000096
