:020000040800F2
:100000004808002099010008EF1C0008AD1B0008FB
:10001000ED1C0008150D0008152000080000000068
:10002000000000000000000000000000451F000864
:10003000170D000800000000691E0008471F000897
:10004000B3010008B3010008B3010008B3010008C0
:10005000B3010008B3010008B3010008B3010008B0
:10006000B3010008B3010008B3010008B3010008A0
:10007000B3010008B3010008B3010008B301000890
:10008000B3010008B3010008B3010008B301000880
:10009000B3010008B3010008B3010008B301000870
:1000A000B3010008B3010008B3010008B301000860
:1000B000B3010008B3010008B3010008B301000850
:1000C000B3010008B3010008B3010008B301000840
:1000D000B3010008B3010008B3010008B301000830
:1000E000B3010008B3010008B301000800F002F8F2
:1000F00000F042F80AA090E8000C82448344AAF180
:100100000107DA4501D100F037F8AFF2090EBAE87D
:100110000F0013F0010F18BFFB1A43F0010318473B
:10012000F41F000014200000103A24BF78C878C1E2
:10013000FAD8520724BF30C830C144BF04680C60ED
:10014000704700000023002400250026103A28BF35
:1001500078C1FBD8520728BF30C148BF0B60704739
:100160001FB59DE8030000F0A7FB00F099F81FBD44
:1001700010B500F0FEF810BD00F061F91146FFF770
:10018000EFFF01F06DFF00F065FB03B4FFF7F0FF38
:1001900003BC00F023FD00000948804709480047E0
:1001A000FEE7FEE7FEE7FEE7FEE7FEE7FEE7FEE727
:1001B000FEE7FEE704480549054A064B7047000084
:1001C000A91F0008ED000008480200204808002090
:1001D00048040020480400200FB4044910B503AAC5
:1001E000029800F02FF810BC5DF814FB40010020CD
:1001F0004FF0000200B5134694469646203922BFC0
:10020000A0E80C50A0E80C50B1F12001BFF4F7AF0A
:10021000090728BFA0E80C5048BF0CC05DF804EBEC
:10022000890028BF40F8042B08BF704748BF20F85A
:10023000022B11F0804F18BF00F8012B7047704758
:1002400070477047074B70B50D467B4400F011F8BE
:100250000446284600F020F810B14FF0FF3070BD82
:10026000204670BDF91D000001694A1C0261087832
:10027000704700B58FB0CDE90131002105910549E6
:100280007944CDE903101146684600F024F90FB017
:1002900000BD0000E5FFFFFF007B00F0800070471D
:1002A00010B542485421FFF7A3FF41485421FFF7FE
:1002B0009FFF40485421FFF79BFF3F493B483C4A82
:1002C0003F4B08603D490A603A491960531C036579
:1002D000481C1065012008653B48344A39A1784420
:1002E00000F01CFA20B9384878440A3800F0BBFA0C
:1002F00037482F4A35A1784400F010FA20B9344825
:1003000078440A3800F0AFFA32482A4A2FA17844DC
:1003100000F004FA20B92F4878440A3800F0A3FA14
:1003200040232248DC000021224600F0D3F920B10E
:1003300025487844543800F096FA1D482246402358
:10034000002100F0C7F920B121487844543800F06A
:100350008AFA184822461023002100F0BBF9002831
:1003600006D01C487844BDE81040563800F07BBAEF
:1003700010BD104870B5006D20F001040B4800F06E
:1003800043FA0B4800F040FA0A4800F03DFA09E051
:10039000206D20F00105204600F036FA204600F0DE
:1003A00073F82C46002CF3D170BD0000EC00002047
:1003B00040010020940100201400002018000020BB
:1003C0001C00002072000000251E000077000000C5
:1003D000111E0000FD1D00000EB5CDE9000100F06A
:1003E000DDFB029069460120ABBE0EBD08B5694633
:1003F00000900220ABBE08BD1FB58DE8070069461E
:100400000520ABBE04B010BD1FB58DE80F006946D6
:100410000620ABBEF6E708B5694600900920ABBEE2
:1004200008BD1CB5CDE9000169460A20ABBE1CBD64
:10043000704708B5694600900C20ABBE08BD7546F4
:1004400000F018FAAE4605006946534620F0070052
:10045000854618B020B5FFF7ADFEBDE820404FF04F
:1004600000064FF000074FF000084FF0000B21F09E
:100470000701AC46ACE8C009ACE8C009ACE8C0096B
:10048000ACE8C0098D46704770B50446051F00F002
:10049000F7F90068002C14BF446870BD002C18BF29
:1004A000AC423CBF20466468F8D301680A18AA42EF
:1004B00018BF456003D12A680546114401602868C9
:1004C0004119A1421CBF6C6070BD61686960216800
:1004D0000844286070BD2DE9F04106460024D6E9A5
:1004E0000170F5688046304603E04146B847641C19
:1004F0003046A8470028F8D12046BDE8F0812DE914
:10050000F04705460C46C86820F4201040F48000EF
:10051000C860800602D5084600F0FFFAE06841F2A4
:1005200082014FF0FF390140022903D0204600F03C
:100530009DFAB5E000F42041B1F5004F0FD1C003A2
:1005400006D56168E06A884200D80846606006E027
:100550002069E06260606069FFF76BFFA061A068DE
:100560000022EEB200280DDAE1688B050AD4C04300
:10057000A06041F490302260E0606068411C6160DE
:100580000670A5E0E0689046226040F40050E0600C
:10059000206968BB6069FFF73EFF012704F124056D
:1005A000A0B1A08910F4407F08D0E06900F0B3F951
:1005B000206118B1E06840F4006016E0E761256151
:1005C000E06820F4407040F480600EE0E06900F0E4
:1005D000A2F900282061F1D0E06840F4006010F436
:1005E000407FE06002D140F48070E060206960608C
:1005F000E06825696FF0010AC1051FD56168E06AEE
:10060000884200D80846411B04D02246284600F004
:1006100037FAF0BBE068010203D5E562C4E901588E
:1006200054E0691CE1626160E16940F48030491E78
:10063000C4E9021030462E70BDE8F087010202D5F1
:1006400000F480320AE06068411C61600670E06876
:100650000A2E40F48030E06006D00022E16A606833
:10066000814203D90B4602E00122F7E70346A7893E
:100670005B1B7F0503D4E7699F4200DDE2B1814245
:1006800000D80146E5620F1AC4E90158002B09DDC4
:1006900000E005E022461946284600F0F1F908B1CD
:1006A0004846C9E747B1A069E5626560C01BA06123
:1006B000E06840F01000E060E068000208D5616882
:1006C000A069E562491B08446560A0615046B3E734
:1006D0003046B1E770B5C468A50713D0650211D4E0
:1006E000B2F5807F09D0B2F5007F06D0B2F5806FF9
:1006F00008D1012300F1240106E05D1E6FF07F4662
:10070000B54201D3012070BD0161C361416024F491
:1007100070611143C160002070BD00002DE9F041FF
:100720000C4607461646104600F06EF82078611C0D
:1007300061280AD0722802D077283CD102E0012536
:10074000002405E00225042402E0082448F2020502
:1007500011F8010B2B2806D0622809D011F8010CE2
:1007600074280AD00BE045F0030544F00204EFE7DB
:1007700045F0040544F00104EAE744F0100438466B
:100780002146FFF729FE411C15D00021316171601F
:100790004FF40071F560F1617061200704D53046B7
:1007A0000222002100F0E6F8306D40F001003065D3
:1007B0003046BDE8F0810020FBE72DE9F0410D4611
:1007C0000646104C206DC10704D0410804D020F02B
:1007D0000104F7E722460EE0542000F09CF80700E1
:1007E0000ED0206D47F001010843542120653846A2
:1007F000FFF7FEFC3A4629463046BDE8F0418DE75A
:100800000020D6E7EC0000202DE9F04704464FF029
:1008100000094FF0FF37C568D4E90486A80707D060
:10082000204600F057F93046FFF7E0FD002802DAD5
:100830003846BDE8F087280502D54046FFF724FE7C
:100840004C212046FFF7D4FC206D20F001002065EC
:100850004846EEE710B50446AFF300802046BDE8F9
:100860001040FFF792BC10B500F07EF9BDE81040D3
:1008700000F074B900487047E8010020704700009C
:1008800000487047F001002070477047704770477C
:1008900038B504460A4600206946AFF300800028B8
:1008A00008BF38BD02460099204600F0A4F9012097
:1008B00038BD012000F0F3B9F8B5AFF3008005466C
:1008C00000200C46102000BF0646A819A0420DD9F2
:1008D000324669460020AFF30080070008BF00F0F1
:1008E000DEF90098A04218BF0546C419FFF7C8FFFB
:1008F00005600746F01D20F007004619284600F065
:1009000073F9B44208BFF8BDA21B31463868BDE890
:10091000F84000F070B970B50646FFF7B1FF056802
:1009200006F10B0020F00704B4429CBF002070BD0C
:100930002B466A68BAB11068A04210D304F10801CE
:1009400088423CBF5068586007D351681019416015
:100950001168091B016058601460101D70BD1346BA
:100960005268002AE7D121462846FFF791FF002868
:10097000DED170BD2DE9F041044616460D464769AB
:10098000007B80072ED03846FFF745FD50BB3EB3B5
:10099000012E02D0022E25D104E0204600F045F9B8
:1009A00005441DE03846FFF744FDE168002841F0AA
:1009B0001001E16005DA204600F058F80120BDE89A
:1009C000F081C9030BD56268E16A914200D81146F3
:1009D000A26911442269891A814200DD0846054452
:1009E000002D01DA0220EAE7E16A6068E2688142EC
:1009F00006D29103E06203D522F4003141F01002E7
:100A0000A6690027AE4213DCE16A814201D90B4698
:100A100000E0034603EB060C2369ACEB030CAC458A
:100A200006DD814201D98C4600E084469C4505D113
:100A3000A760276042F02000A5620DE0AD1BE669CB
:100A4000AE1B8142A66000D90846C01A281A206051
:100A50005819606022F0200003490840E06000203F
:100A600084F84870ABE70000BFCFD7FFC16821F41E
:100A7000001141F08001C160002181600160704778
:100A80002DE9F047814614460E464FF0FF383248B4
:100A9000D5685769054209D03846A169FFF7C1FCFE
:100AA000002811DB2C48C0430540E5602B46324648
:100AB00049463846FFF7A0FCA16920F00042B21A6F
:100AC00011440028A16103D02046FFF7CFFF404624
:100AD000BDE8F08770B504460569C06A6168884260
:100AE00000D80846E16821F42011E160C90312D55D
:100AF000A84208D02246411B2846FFF7C1FF10B18B
:100B00004FF0FF3070BD0020E562C4E90150E0689D
:100B100020F48030E060002070BD10B50446C0684D
:100B200020F02000E060A16AA06988420DD0204634
:100B3000FFF7D0FFE06820F4405040F01000E06084
:100B4000A06AA0612069E062606044F24001E06850
:100B50008843E06010BD000010000200002801D0B2
:100B600000F03CB87047000010B5014602A000F04C
:100B70007DF8012010BD00005349475254524544AE
:100B80003A2052656469726563743A2063616E2726
:100B900074206F70656E3A200000000010B5431C91
:100BA00002E010F8011B71B18107FAD14FF0013258
:100BB00002C88C1A8C4314EAC211F9D0C01A0A0672
:100BC00003D0C01E10BDC01A10BD0A0401D0801E83
:100BD00010BD0902FCD0401E10BD000001491820C4
:100BE000ABBEFEE72600020000210160C0E9011053
:100BF000704710207047034640688C46002818BF95
:100C000088423CBF03464068F8D3186818448842BD
:100C100007D00CF1030020F00700001D411A521A02
:100C20000146081D0A60FFF72FBC10B50146C268D7
:100C3000900703D0900607D5886A0AE000F03EF8D6
:100C400001210160881E10BD8B69486818440B693A
:100C5000C01A91F848301BB191F84910401A10BDE4
:100C60001103FCD50028FADD401E10BD70B5054605
:100C70000C460A2000E06D1C00F018F835B1287809
:100C80000028F8D102E0641C00F010F814B12078BC
:100C90000028F8D1BDE870400A2000F007B810B570
:100CA00000F010F8BDE81040FFF758BF08B56946DE
:100CB0008DF800000320ABBE08BD0000004870475F
:100CC000E801002010B5012805D0002103A0FFF79E
:100CD000CDFF012010BD09A1F8E70000534947529C
:100CE000544D454D3A204F7574206F6620686561FC
:100CF00070206D656D6F7279000000003A204865C4
:100D00006170206D656D6F727920636F727275709E
:100D100074656400FEE7704772B6FEE770B504467E
:100D200000F008F90546601C02D00448007804442D
:100D300000F000F9401BA042FAD370BD040000206F
:100D40002DE9F84FDFF8B8910024A9F1040B2346F0
:100D50000F2709F1040AABF1040EC9E00125A540F3
:100D60002A40AA427DD1674ED1F804C0ACEB0608F8
:100D7000B44532D014DCBCF1030F3AD009DCBCF12D
:100D8000000F2AD0BCF1010F1CD0BCF1020F31D1F1
:100D90001DE0BCF1110F17D0BCF1120F2AD119E0E0
:100DA000B8F5881F19D006DCB8F5803F15D0B8F526
:100DB000801F1FD111E0B8F5001F0ED0B8F5041F39
:100DC00018D10AE0CB6815E0CB681B1D12E0CB6898
:100DD00008330FE0CB680C330CE08B682BB1012B90
:100DE0004FF0080303D0456104E0042302E00561ED
:100DF00000E00023FF2A01D8064601E000F10406C6
:100E00004FEA840501D9A5F12005D6F8008007FA3C
:100E100005FC28EA0C0803FA05F548EA0508C6F8B7
:100E200000804D68ED0062D5374DAE6946F0010691
:100E3000AE61AD6924F0030605F001050095334D60
:100E400006EB050CDCF80850A607360F07FA06F883
:100E500025EA0805DFF8B880404503D14FF00008C7
:100E600017E044E0DFF8AC80404502D14FF00108C4
:100E70000FE0DFF8A480404502D14FF0020808E0FF
:100E8000DFF89880404502D14FF0030801E04FF0B1
:100E9000040808FA06F848EA0508CCF808804D6806
:100EA000D9F80060ED024D4601D5164300E09643A7
:100EB0002E604D68DAF80060AD02554601D5164344
:100EC00000E096432E604D68DBF80060AD035D46A0
:100ED00001D5164300E096432E604D68DEF80060B1
:100EE000ED03754601D5164300E096432E60641C61
:100EF0000D682A46E5407FF431AFBDE8F88F000069
:100F000008040140000011100010024000000140E0
:100F100000080140000C0140001001400014014095
:100F20008068084000D0012070470AB10161704715
:100F30000904FBE7014880687047000004000020B6
:100F400070B5040025D094F83D00002520B984F840
:100F50003C50204600F0B8F8242084F83D0020687A
:100F6000016821F0010101602068016841F400413D
:100F700001602068016821F40041016000F0F4F98B
:100F80004D4A6168914201D84C4900E04C49884281
:100F900001D2012070BD4B492368B0FBF1F15E68BE
:100FA00026F03F060E435E606368934206D94FF415
:100FB000967359434FF47A73B1FBF3F12368491CDC
:100FC0001E6A26F03F06314319626168914210D8CB
:100FD0004900401EB0FBF1F2521CC2F30B02042A7E
:100FE00001D2042022E0B0FBF1F0401CC0F30B0062
:100FF0001CE0A268F2B301EBC10303EB0116431E30
:10100000B3FBF6F35B1C43F480431B0549D092B35A
:1010100001EBC10202EB0111401EB0FBF1F0401CDC
:10102000C0F30B0040F4804040F400402168CA69DE
:101030004CF6FF739A431043C861D4E9071001438B
:101040002068026822F0C00211430160D4E9030164
:1010500001432068826848F2FF339A43114381605C
:10106000D4E9050108432168CA6822F0FF02104351
:10107000C86001E00EE016E02068016841F001015F
:1010800001602564202084F83D00256384F83E50EB
:10109000002070BD01EB4106431EB3FBF6F35B1C61
:1010A000B3E70120C2E701EB4101401EB0FBF1F0C4
:1010B000401CC0F30B00B7E7A086010080841E002F
:1010C00000093D0040420F0010B586B0002100919C
:1010D0000191029103910068104988421BD1104C84
:1010E000A06940F00800A061A069694600F008000E
:1010F00004904FF440600090122001900320039070
:101100000848FFF71DFEE06940F48000E061E069F7
:1011100000F48000049006B010BD000000580040AC
:1011200000100240000C014002488168027811441E
:101130008160704704000020074810B5016841F045
:1011400010010160032000F067F80F2000F006F89E
:1011500000F024F8002010BD0020024070B50D4DB5
:1011600004464FF47A712878B1FBF0F00A49096817
:10117000B1FBF0F000F006FD48B9102C07D20022B8
:101180002146501E00F028F800206C6070BD012040
:1011900070BD000004000020100000200C4808B5BD
:1011A000816941F001018161816901F001010091D2
:1011B000C16941F08051C161C06900F08050009068
:1011C0000448416821F0E06141F00071416008BDD0
:1011D0000010024000000140F0B40E4B1B680C46AA
:1011E000C3F30223C3F10705042D00D90425191DFB
:1011F000072901D2002300E0DB1E012606FA05F1D3
:10120000491E214099409E40761E16403143F0BC55
:1012100000F001BF0CED00E0064900F0070208688D
:101220004FF6FF03184040EA0220034A10430860CB
:10123000704700000CED00E00000FA052DE9F047D2
:101240000F46050061D0434E306800F00700B842F9
:1012500009D2306820F0070038433060306800F071
:101260000700B84251D128683B4C810712D540078E
:1012700003D5606840F4E06060602878000703D51B
:10128000606840F4605060606068A96820F0F00019
:10129000084360602878C00728D06868012810D00B
:1012A0002168022810D0890700292EDA616821F010
:1012B000030101436160FFF73DFE804641F288393A
:1012C0000DE021688903EFE78901EDE7FFF732FEC2
:1012D000A0EB0801494502D90320BDE8F08760680A
:1012E000696800F00C00B0EB810FEFD1306800F0BE
:1012F0000700B8420BD9306820F00700384330604F
:10130000306800F00700B84201D00120E5E72878F6
:10131000400705D56068E96820F4E0600843606034
:101320002878000706D56068296920F4605040EAF3
:10133000C100606000F028F86168084AC1F3031139
:10134000515CC8400649086006480068FFF706FF80
:101350000020C2E70020024000100240EA200008FE
:101360001000002008000020044805490068496872
:10137000044AC1F30221515CC840704710000020AC
:1013800000100240FA2000080E4A51680E4801F091
:101390000C03042B11D0082B0FD10C48C1F383434D
:1013A000C903C05C0AD55168084AC1F34041921E86
:1013B000515C054A5043B0FBF1F070470449484383
:1013C000704700000010024000127A00DA20000886
:1013D00000093D002DE9F84F040070D02078C04D81
:1013E000C00749D06868C0F38100012807D0686849
:1013F000C0F38100022809D16868C00306D52868B7
:10140000800339D560680028E7D035E06068B0F522
:10141000803F0BD010B1B0F5A02F11D0286820F478
:1014200080302860286820F4802002E0286840F49A
:1014300080302860606890B1FFF77CFD06460AE0C6
:10144000286840F480202860F0E700BFFFF772FDB5
:10145000801B642873D828688003F7D50CE0FFF759
:1014600069FD064605E000BFFFF764FD801B6428A8
:10147000F0D828688003F7D420789A4E80074FF080
:1014800001094FF0000839D5686810F00C0F07D03B
:101490006868C0F38100022809D16868C00306D4D7
:1014A0002868800714D52069012808D110E0206938
:1014B000B0B1C6F80090FFF73DFD074605E00AE130
:1014C000FFF738FDC01B0228C4D828688007F7D56D
:1014D0002868616920F0F80040EAC10028600DE04A
:1014E000C6F80080FFF726FD074604E0FFF722FD5F
:1014F000C01B022823D828688007F7D4207800076B
:101500002CD57948A169D9B1C0F80090FFF712FD38
:10151000074604E0FFF70EFDC01B02280FD8686ADB
:101520008007F7D571484FF4FA510068B0FBF1F02D
:10153000009000BF0098411E0091FAD20EE080E0BA
:10154000C0F80080FFF7F6FC074604E0FFF7F2FC66
:10155000C01B022875D8686A8007F7D42078400736
:1015600060D5E8690027C00008D4E86940F08050E1
:10157000E861E869012700F0805000905C4801684C
:10158000C90513D40168834641F480710160FFF7F7
:10159000D1FC824606E000BFFFF7CCFCA0EB0A00BE
:1015A00064284ED8DBF80000C005F5D5E0680128B6
:1015B0000AD008B1052813D0286A20F0010028625B
:1015C000286A20F0040002E0286A40F00100286246
:1015D000E06841F2883B98B1FFF7ACFC82460BE033
:1015E000286A40F004002862EEE700BFFFF7A2FC83
:1015F000A0EB0A0159455AD8286A8007F6D50CE0B5
:10160000FFF798FC824605E0FFF794FCA0EB0A0187
:1016100059454CD8286A8007F6D41FB1E86920F0F4
:101620008050E861E06988B36968C1F381010229EB
:1016300044D00228C6F8608004D0FFF77BFC044643
:1016400038E034E0FFF776FC074604E0FFF772FC71
:10165000C01B02282BD828688001F7D4206AB0F577
:10166000803F05D16868A16820F4003008436860B5
:10167000D4E908010843696821F4741108436860DB
:10168000C6F86090FFF756FC044606E025E000BF70
:10169000FFF750FC001B022809D828688001F7D505
:1016A0001BE000BFFFF746FC001B022802D9032005
:1016B000BDE8F88F28688001F4D40EE00128F7D047
:1016C0006868226A00F48031914204D1616A00F4B2
:1016D0007010884201D00120EAE70020E8E700000E
:1016E00000100240000042428004424210000020EC
:1016F0000070004070B5040009D0606A002540B158
:1017000025616561A56294F8510040B10CE00120AB
:1017100070BD6068B0F5827FF4D0E561F2E784F8CF
:101720005050204600F040F8022084F85100206814
:10173000016821F040010160A088218900F48270D5
:1017400001F404410843A18901F400610843217CAC
:1017500001F002010843217D01F001010843218BC2
:1017600001F400710843217F01F03801084394F827
:10177000201001F080010843218D01F4005108433D
:1017800021680860A069042101EA104021684860CE
:101790002068C16921F40061C1616565012084F898
:1017A0005100002070BD000030B585B000240094C9
:1017B0000194029403940068174988422AD117487B
:1017C000816941F480518161816901F48051049102
:1017D000816941F0080181618069114D00F00800C4
:1017E0000490282000900220019003200390694675
:1017F0002846FFF7A5FA1020CDE9000469462846DF
:101800000294FFF79DFA0748416841F0E06141F01A
:101810000101416005B030BD0030014000100240C0
:10182000000C0140000001402DE9F84F044690F8FB
:1018300050000026984615468A4601280CD00127FC
:1018400084F85070FFF776FB814694F85100B34658
:10185000012804D002269AE00220BDE8F88FBAF1F0
:10186000000F6FD0002D6DD0032084F85100C4F814
:1018700054B0C4F830A0A586E586C4F838B0A4F802
:101880003CB0A4F83EB0C4F844B0C4F840B0A0687E
:10189000B0F5004F09D12068016821F040010160D6
:1018A0002068016841F480410160206801684906B0
:1018B00003D4016841F040010160E068B0F5006FB9
:1018C000606803D058B3012D29D049E008B1012D3B
:1018D0001FD1206B21680088C86006E020688168FD
:1018E000890709D5216B0988C160206B801C2063A2
:1018F000E08E401EE0860CE0FFF71CFBA0EB090128
:10190000414503D3B8F1FF3F03D006E0B8F1000F23
:1019100003D0E08E0028E1D125E0032635E0206BDE
:1019200021680078087306E02068816889070AD575
:10193000216B09780173206B401C2063E08E401EF0
:10194000E0860DE01FE0FFF7F5FAA0EB0901414545
:1019500003D3B8F1FF3F03D0DFE7B8F1000FDCD0CD
:10196000E08E0028E0D14A464146204600F07DFA4C
:1019700008B120206065A06818B92068C168806837
:101980000090606D08B1012601E084F8517084F880
:1019900050B0304661E72DE9FF4F81B0044690F822
:1019A000500000260E9F1D4693464FF00109012866
:1019B0000FD04FF0010A84F850A0FFF7BBFA804621
:1019C00094F85100616801280DD0B1F5827F08D1EB
:1019D00003E0022005B0BDE8F08FA16809B9042832
:1019E00001D00226C9E00298002865D0BBF1000FA3
:1019F000FBD0002DF9D094F85100042802D0052026
:101A000084F8510000206065C4F838B0E587A587E8
:101A100002992163E586A5862064606420680168D8
:101A2000490603D4016841F040010160E068B0F567
:101A3000006F606803D0F0B3012D47D081E008B19A
:101A4000012D3CD1206B21680088C860206B801C70
:101A50002063E08E401EE08631E0206881688907BF
:101A60000FD5E18E69B1B9F1010F0AD1216B098857
:101A7000C160206B801C2063E08E401EE0864FF02A
:101A8000000920688168C9070CD0E18F51B1C06896
:101A9000A16B0880A06B801CA063E08F401EE087D4
:101AA0004FF00109FFF746FAA0EB0800B84206D351
:101AB000781C04D001E009E05BE003265BE0E08EE7
:101AC0000028CAD1E08F0028C7D140E0206B2168F0
:101AD00000780873206B401C2063E08E401EE08677
:101AE0002FE02068816889070FD5E18E69B1B9F1CF
:101AF000010F0AD1216B09780173206B401C206310
:101B0000E08E401EE0864FF0000920688168C9071A
:101B10000CD0E18F51B1C068A16B0870A06B401C64
:101B2000A063E08F401EE0874FF00109FFF702FA43
:101B3000A0EB0800B84202D3781C02D0BAE7002F0D
:101B4000B8D0E08E0028CCD1E08F0028C9D1424621
:101B50003946204600F089F918B101262020606539
:101B60000BE0A06818B92068C16880680090606DBB
:101B700008B1012601E084F851A0002084F850004B
:101B8000304627E710B5401EB0F1807F01D3012019
:101B900010BD4FF0E02460610F21601700F03BFAA8
:101BA0000020A06107202061002010BDFEE700009A
:101BB0002DE9F04186B00024274800940194029456
:101BC0000394816941F010018161816901F0100184
:101BD0000491816941F020018161816901F0200156
:101BE0000491816941F004018161816901F004017E
:101BF0000491816941F0080181618069174F00F00B
:101C000008000490012208213846FFF78EF9DFF81A
:101C10005080012202214046FFF787F90420012568
:101C20008DE8310069463846FFF78AF80820032618
:101C3000CDE90005CDE9024669463846FFF780F850
:101C40000220CDE90005CDE9024669464046FFF78E
:101C500077F806B0BDE8F0810010024000080140AE
:101C6000000C01400D4810B50B4901600C49416062
:101C700000214FF480428160C0E90312416181611B
:101C8000C1610162FFF75CF9002803D0BDE8104094
:101C9000FFF742B810BD000000580040400000208F
:101CA000801A0600104810B50E4901604FF4827189
:101CB000416000218160C1604FF400720161C0E9A0
:101CC00005121022C0E90721416281620A21C16226
:101CD000FFF710FD002803D0BDE81040FFF71CB847
:101CE00010BD00000030014094000020FEE7FEE738
:101CF00010B5002208210648FFF717F9012202213A
:101D00000448FFF712F9BDE81040642000F093B9D1
:101D100000080140000C014070B50A4D0446002245
:101D200002212846FFF701F9204600F0C5F9FF20FF
:101D300000F0C2F90446012202212846FFF7F5F817
:101D4000204670BD000C014070B51B4C05460022BA
:101D500008212046FFF7E9F820222946A02000F0BC
:101D600047F8012208212046FFF7DFF8042120462A
:101D7000FFF7D6F80028F9D10720FFF7CDFF04467A
:101D80000146272000F056F8E00608D5FF21E120A3
:101D900000F050F809A0FEF71FFA102070BDA00651
:101DA00004D50BA0FEF718FA202070BD0BA0FEF79B
:101DB00013FAFF2070BD0000000801405458204D68
:101DC00041585F5458206572726F72210D0A0000ED
:101DD0005458204F4B210D0A000000005458206F2A
:101DE00074686572206572726F72210D0A000000BE
:101DF0002DE9F0410D4D16460F4604460022022102
:101E00002846FFF792F8204600F056F904461023C2
:101E1000324639460648FFF707FD012202212846CF
:101E2000FFF783F82046BDE8F0810000000C014078
:101E30009400002070B50B4D0E460446002202218E
:101E40002846FFF772F8204600F036F9044630467F
:101E500000F032F9012202212846FFF766F82046F9
:101E600070BD0000000C0140704738B50B46009271
:101E700004460022802100F009F8002804D0606D9B
:101E800040F020006065032038BD00002DE9F843D4
:101E90001E46914688460446089DFFF74BF8401BB6
:101EA000351AFFF747F8074625480068C0F3CB30DE
:101EB000684338E0701C37D0FFF73CF8C01BA842DD
:101EC00003D215B1009860B32CE02068416821F07E
:101ED000E00141606068B0F5827F0BD1A068B0F589
:101EE000004F02D0B0F5806F04D12068016821F066
:101EF00040010160A06AB0F5005F09D12068016867
:101F000021F4005101602068016841F40051016032
:101F1000012084F85100002084F850000320BDE81F
:101F2000F8830025401E00902068816838EA01008F
:101F300004D000214945BDD10020F0E70121F9E797
:101F4000100000207047FFF7EFB830B58FB02821A0
:101F50006846FEF74DF914210AA8FEF749F9012158
:101F60000804CDE900100024029402250491CDE973
:101F700007504FF4E01009906846FFF72BFA08B1BC
:101F800072B6FEE70F20CDE90A054FF48060CDE977
:101F90000C4002210AA80E94FFF750F9002801D046
:101FA00072B6FEE70FB030BD7047000010B5174C99
:101FB000002208212046FEF7B8FF052214493020F0
:101FC000FFF716FF052212492A20FFF711FF012112
:101FD0002120FFF72FFF01212220FFF72BFF1A21DD
:101FE0002420FFF727FF78212520FFF723FF0F216B
:101FF0002620FFF71FFF0E212020FFF71BFF2046A2
:102000000122BDE810400821FEF78FBF0008014003
:1020100002210008FEE70907090E002804DB00F191
:10202000E02080F80014704700F00F0000F1E0207D
:1020300080F8141D704703E00721491EC9B2FCD285
:10204000401EF9D270478A68002A01DCFEF757BAB1
:10205000521E8A604A68C0B2531C4B6010707047B1
:10206000FFF76AF8FFF771FFFFF7A2FDFFF71AFE0F
:10207000FFF7F8FDFFF73CFE0D4904200870FFF75D
:1020800095FF0C4C4FF47A752846FEF747FEE07F2B
:10209000401CE0770748FFF757FE202803D0607800
:1020A000401C6070F0E7A07F401CA077ECE70000C8
:1020B000000000202000002001B582B01020009018
:1020C000012301AA02A90348FFF765FC9DF804005B
:1020D0000EBD000094000020010202030405060763
:1020E00008090A0B0C0D0E0F101000000000000074
:1020F00000000102030406070809000000000102B5
:102100000304023AB1B1013A7474003A7474003AAB
:10211000747400003421000800000020200000003A
:102120002801000854210008200000202808000091
:102130004401000800000000010000001000000041
:10214000000000000024F400000000000000000077
:04215000000000008B
:04000005080000ED02
:00000001FF
