:020000040800F2
:10000000E0460020610200082F2300086D20000850
:100010002D230008C5090008A52A000800000000DB
:10002000000000000000000000000000A101000826
:10003000C709000800000000FD0100086524000851
:100040007B0200087B0200087B0200087B0200089C
:100050007B0200087B0200087B0200087B0200088C
:100060007B0200087B0200087B0200087B0200087C
:100070007B0200087B0200087B0200087B0200086C
:100080007B0200087B0200087B0200087B0200085C
:100090007B0200087B0200087B0200087B0200084C
:1000A0007B0200087B0200087B0200087B0200083C
:1000B0007B0200087B0200087B0200087B0200082C
:1000C0007B0200087B0200087B0200087B0200081C
:1000D0007B0200088D2A00087B0200087B020008D2
:1000E0007B0200087B0200087B0200087B020008FC
:1000F0007B0200087B0200087B0200087B020008EC
:100100007B0200087B0200087B0200087B020008DB
:100110007B0200087B020008352500087B020008EE
:100120007B0200087B0200087B0200087B020008BB
:100130007B0200087B0200087B0200087B020008AB
:100140007B0200087B0200087B0200087B0200089B
:100150007B0200087B0200087B020008992A000845
:100160007B0200087B0200087B0200087B0200087B
:100170007B0200087B0200087B02000800000000F0
:100180007B0200087B020008DFF810D000F008FCBA
:100190000048004729410008AFF30080E0460020F6
:1001A0002C4B19680868B0E8F04F80F30988BFF35A
:1001B0006F8F4FF0000080F311887047000000003F
:1001C00008480068006880F308884FF0000080F35A
:1001D000148862B661B6BFF34F8FBFF36F8F00DF35
:1001E00000BF00BF08ED00E0DFF80C00016841F43B
:1001F00070010160704700BF88ED00E0EFF30980F7
:10020000BFF36F8F134B1A681EF0100F08BF20ED5D
:10021000108A20E9F04F106009B44FF0500080F3CD
:100220001188BFF34F8FBFF36F8F04F085FD4FF040
:10023000000080F3118809BC19680868B0E8F04F25
:100240001EF0100F08BFB0EC108A80F30988BFF3CE
:100250006F8F704758000020EFF305807047000053
:100260000648804706480047FEE7FEE7FEE7FEE750
:10027000FEE7FEE7FEE7FEE7FEE7FEE725250008CE
:10028000890100082DE9F05F0546002092469B4653
:1002900088460646814640241BE02846414647469C
:1002A000224600F076FA53465A46C01A914110D3BE
:1002B00011461846224600F05DFA2D1A67EB010838
:1002C0004F4622460120002100F054FA17EB0009A6
:1002D0004E41201EA4F10104DFDC484631462A4687
:1002E0004346BDE8F09F40EA01039B0703D009E0C5
:1002F00008C9121F08C0042AFAD203E011F8013B12
:1003000000F8013B521EF9D27047D2B201E000F86A
:10031000012B491EFBD270470022F6E710B51346A9
:100320000A4604461946FFF7F0FF204610BD2DE9A6
:10033000FE4F804681EA0300C00F0C46009021F07A
:10034000004123F00045B8EB0200A94105D2404628
:10035000214690461C460B46024623F000401043BF
:1003600047D0270DC7F30A00C3F30A510290401A81
:10037000019040286BDAC3F3130040F4801B00980F
:10038000924620B10023D2EB030A63EB0B0B0198DA
:100390005946C0F14002504600F0ECF906460D46C1
:1003A00050465946019A00F004FA10EB08006141EA
:1003B000002487EA115284EAE7731A4340D0009A76
:1003C00062B3019A012A4FEA075215DC001B61EB68
:1003D00002014FF0004202EA0752CDE90042001C40
:1003E00041F5801132462B4600F03BFA03B0BDE8E0
:1003F000F08F40462146F9E7001B61EB0201001C2B
:1004000041F5801300185B412018A2F5001747EB57
:10041000030140EAD570B6196D4111E06D084FEA4D
:10042000360645EAC0754FEA0752001B61EB020130
:10043000001C41F5801149084FEA30000019514174
:1004400032462B4603B0BDE8F04F00F0FBB90098F0
:10045000012240000023D0EB020263EBE07300981E
:1004600021464FEAE074B8EB000061EB0401E9E7D4
:1004700083F000435BE781F0004158E72DE9FE4F30
:1004800081EA030404F0004421F0004100944FF09D
:10049000000B23F0004350EA01045ED052EA03044B
:1004A0005BD0C3F30A54C1F30A552C44A4F2F334CD
:1004B0000194A0FB0254C1F3130141F48011C3F372
:1004C000130343F4801301FB024400FB034E840A30
:1004D000970A44EA815447EA8357A4FB07680295C8
:1004E0008D0A05FB07854FEA932C04FB0C54270566
:1004F000029D4FEA065847EA1637B5EB08056EEB42
:10050000070C870E920E47EA811742EA8312A7FB77
:100510000201B6EB0B0164EB00042B0D43EA0C3334
:100520005E1844EB1C50DA465146E7FB0201C5F366
:1005300013044FEA0B3343EA14534FEA0432019C8D
:1005400043EA0603A4F10C040294009CCDE900B434
:1005500000F087F903B0BDE8F08F00200146F9E70D
:100560002DE9F04D81EA030404F0004B21F0004531
:1005700014464FF0000A23F0004150EA050220D053
:1005800054EA01021DD0C5F30A570246C5F313030E
:10059000C1F31300C1F30A5640F4801543F48013ED
:1005A000A7EB0608101BD64608F2FD3873EB0500D2
:1005B00002D308F1010801E092185B41B8F1000F85
:1005C00003DA00200146BDE8F08D00204FF48011D1
:1005D000064684460EE0171B73EB050705D3121B76
:1005E00063EB050306434CEA010C49084FEA30006F
:1005F00092185B4150EA0107EDD152EA030012D094
:1006000082EA040083EA0501084305D0101BAB41D0
:1006100006D20122002306E000224FF0004302E050
:100620006FF0010253101AEB06004CEB085110EB6F
:100630000A0041EB0B01BDE8F04D00F003B90EB527
:10064000C10F80EAE0700844CA07002140F233433A
:100650008DE80E000A460B4600F003F903B000BD1A
:100660000EB540F2334102910021CDE900110A4656
:100670000B4600F0F6F803B000BD70B5C1F30A52A6
:1006800001F000450024C1F3130140F2FF3341F4AF
:1006900080119A4201DA002070BD40F233439A4241
:1006A000A2F2334203DC524200F073F800E09040C3
:1006B0002C43F1D0404270BD00F0004230F00040C9
:1006C0000AD0C10D01F56071C0F3160042EA015174
:1006D000C2084007114370470020014670470000E0
:1006E00030B5041E71F1000404DB4FF000444042B9
:1006F00064EB0101141E73F1000405DB1C464FF08E
:100700000043524263EB04038B4208BF824230BD78
:1007100001F0004330B421F0004150EA010206D05C
:100720000A0DA2F56072C1F31301002A02DC30BC8D
:1007300000207047440F44EAC104C100E01830BCF7
:1007400000EBC25000F047B830B50B460146002020
:100750002022012409E021FA02F59D4205D303FA83
:1007600002F5491B04FA02F52844151EA2F1010204
:10077000F1DC30BD202A04DB203A00FA02F100202F
:1007800070479140C2F1200320FA03F319439040CF
:100790007047202A04DB203A21FA02F0002170473A
:1007A00021FA02F3D040C2F12002914008431946D9
:1007B0007047202A06DBCB17203A41FA02F043EAC1
:1007C000E07306E041FA02F3D040C2F1200291400A
:1007D0000843194670470029A8BF7047401C4900CC
:1007E00008BF20F00100704710B4B0FA80FC00FA96
:1007F0000CF050EA010404BF10BC704749B1CCF1C1
:10080000200421FA04F411FA0CF118BF012121434C
:100810000843A3EB0C01CB1D4FEA00614FEA102007
:1008200042BF002010BC704700EBC35010440029A9
:10083000A4BF10BC7047401C490008BF20F0010055
:1008400010BC704710B5141E73F1000408DA401C88
:1008500041F1000192185B411A4301D120F00100DF
:1008600010BD2DE9F04D92469B4611B1B1FA81F2CF
:1008700002E0B0FA80F220329046FFF77BFF044698
:100880000F4640EA0A0041EA0B0153465A46084324
:1008900013D0114653EA010019D0C8F14002504666
:1008A000FFF777FF05460E46504659464246FFF78A
:1008B00061FF084305D0012004E020463946BDE829
:1008C000F08D0020054346EAE0762C4337430A9832
:1008D0006305E40AA0EB08000022FD0A44EA47543D
:1008E0000A3002D500200146E9E7010510196941E7
:1008F000DDE9084500196941BDE8F04DA2E72DE9A1
:10090000F04D00231A461B1A8A4103DB00200146E2
:10091000BDE8F08DC1F30A52C1F3130141F4801513
:100920004FF0000BD10702D100186D41521E002775
:10093000044640F2FF11384601EB620A3E4680460B
:10094000024600204FF48011FFF723FFC2197141C6
:10095000BB1846EB0100B4EB030C75EB000C04D3A1
:10096000E41A65EB000517460E46241908F101004C
:100970006D4180463428E3DDF91946EB0600091B7A
:10098000A84103D24FF0FF32134601E00022134684
:100990001BEB070046EB0A51BDE8F04DFFF752BFD5
:1009A000064C074D06E0E06840F0010394E80700BC
:1009B00098471034AC42F6D3FFF7EAFB9C5200088C
:1009C000BC520008FEE7704772B6FEE72DE9F04121
:1009D0000446876D00F060F9064694F8350000255E
:1009E000022806D08020606584F834500120BDE8DC
:1009F000F0812068016821F01601016020684169DA
:100A000021F080014161206C08B9A06C20B1206800
:100A1000016821F0080101602068016821F00101EE
:100A200001600CE000F038F9801B052807D9202070
:100A30006065032084F8350084F83450D7E72068D7
:100A40000068C007EED194F85C103F208840B86081
:100A5000012084F8350084F834500020C7E790F86E
:100A60003510022903D080214165012070470521FE
:100A700080F835100068016821F001010160002054
:100A80007047000070B5044600F006F90546601C8A
:100A900002D004480078044400F0FEF8401BA04255
:100AA000FAD370BD140000202DE9F84FDFF8BCA187
:100AB0000022012503264FF00F090AF1040BAAF1C9
:100AC000040E00BF0B6805FA02F42340A34270D164
:100AD0000F7907F00307012F01D0022F16D1876885
:100AE0004FEA420806FA08FC27EA0C07D1F80CC0C6
:100AF0000CFA08FC4CEA070CC0F808C04768A7438A
:100B00000C79C4F3001494403C4344600C79E443F2
:100B1000A4070AD0C4684FEA420C06FA0CF7BC439B
:100B20008F6807FA0CF72743C7600C7904F00304B9
:100B3000022C12D1D40800EB840CDCF820405707BB
:100B4000FF0E09FA07F824EA0804D1F8108008FA21
:100B500007F848EA0408CCF8208004684FEA420C01
:100B600006FA0CF7BC430F7907F0030707FA0CF7F6
:100B7000274307604C6814F4403F70D03C4C276812
:100B800047F480472760246822F0030704F4804478
:100B90000094384C07EB040CDCF8084897074FEA40
:100BA000177809FA08F7BC43334FB84202D100273F
:100BB00024E054E0314FB84201D101271EE0304F0C
:100BC000B84201D1022719E02E4FB84201D10327C4
:100BD00014E02D4FB84201D104270FE02B4FB8424B
:100BE00001D105270AE02A4FB84201D1062705E0C6
:100BF000284FB84201D1072700E0082707FA08F775
:100C00002743CCF80878DAF800405746D1F804C0FA
:100C10009C435FEACC2C00D51C433C60DBF80040D1
:100C20005F46D1F804C09C435FEA8C2C00D51C437E
:100C30003C60DEF800407746D1F804C09C435FEA90
:100C40008C3C00D51C433C60084F083F3C68D1F801
:100C500004C09C435FEACC3C00D51C433C60521C62
:100C6000102AFFF42FAFBDE8F88F0000083C0140C8
:100C700044380240003001400000024000040240BD
:100C800000080240000C0240001002400014024024
:100C900000180240001C02400148806870470000B4
:100CA0001400002002488168027811448160704776
:100CB000140000200B4810B5016841F40071016078
:100CC000016841F480610160016841F48071016054
:100CD000032000F09FF80F2000F006F800F050F815
:100CE000002010BD003C024030B505461F4887B0CB
:100CF0000024016841F010010160006806A900F0BD
:100D00001000009001A800F031F90498A8B100F09B
:100D10004DF940001649174AB0FBF1F11648491E3B
:100D2000026040F2E732C0E90324C0E901148461A3
:100D300000F0B8FB040003D015E000F037F9E9E754
:100D40000D4800F019FC04000DD1362000F034F8F5
:100D5000102D07D200222946362000F03BF8074824
:100D6000056000E0012407B0204630BD4038024055
:100D700040420F00001000403C04002018000020FA
:100D80000C4882B0016841F480410160006800F4C1
:100D9000804000900748001F016841F080510160C9
:100DA0000068002200F0805000900F21901E02B0D9
:100DB00000F010B844380240002809DB00F01F02A0
:100DC000012191404009800000F1E020C0F80011AD
:100DD00070470000F0B40E4B1B680C46C3F30223AF
:100DE000C3F10705042D00D90425191D072901D2D7
:100DF000002300E0DB1E012606FA05F1491E214012
:100E000099409E40761E16403143F0BC01F087BEEB
:100E10000CED00E0064900F0070208684FF6FF03FA
:100E2000184040EA0220034A10430860704700005F
:100E30000CED00E00000FA052DE9F0470E46050034
:100E400065D0DFF81481D8F80000F7B200F0070091
:100E5000B04207D288F80070D8F8000000F0070010
:100E6000B04254D128683D4C810712D5400703D5C4
:100E7000206840F4E05020602878000703D52068FF
:100E800040F4604020602068A96820F0F00008432A
:100E900020602878C0072DD03049686808390128BB
:100EA00012D0022813D0032811D00968890700291D
:100EB0002DDA216821F0030101432160FFF7ECFEE8
:100EC000814641F2883A0EE009688903EFE7096834
:100ED0008901ECE7FFF7E0FEA0EB0901514502D9DB
:100EE0000320BDE8F0872068696800F00C00B0EBD3
:100EF000810FEFD1D8F80010404601F00701B14250
:100F000007D90770006800F00700B04201D0012047
:100F1000E7E72878400705D52068E96820F4E05025
:100F2000084320602878000706D52068296920F446
:100F3000604040EAC100206000F058F82168084A8B
:100F4000C1F30311515CC8400649086006480068B7
:100F5000FFF7CAFE0020C4E7003C02400838024008
:100F60003851000820000020180000200F220260E5
:100F70000C4A136803F003034360136803F0F003A3
:100F80008360136803F4E053C36012684FF4E053C6
:100F900003EAD20202610448006800F0070008601A
:100FA0007047000008380240003C024004480549F0
:100FB00000680968044AC1F38221515CC840704747
:100FC0002000002008380240485100080448054924
:100FD00000680968044AC1F34231515CC840704757
:100FE000200000200838024048510008154810B57C
:100FF000006810F00C02144813D01449042A0FD0D2
:10100000082A0ED10F4C241F2268236802F03F02E9
:101010005B0207D52068C0F38810A0FB010106E041
:10102000084610BD2168C1F38811A1FB000100230F
:10103000FFF728F92168C1F30141491C4900B0FBC1
:10104000F1F010BD083802400024F40040787D0122
:101050002DE9F84F04006ED02078DFF84C93C007DC
:10106000A9F104054AD009F104000168C1F3810126
:10107000012908D00068C0F3810002280AD1D9F8FC
:101080000000400206D52868800337D56068002834
:10109000E1D033E06068B0F5803F10D0B0F5A02F0C
:1010A000286810D020F480302860286820F4802040
:1010B00028606068A8B1FFF7EFFD06460DE02868DC
:1010C00040F48030F4E740F480202860F7E700BF68
:1010D000FFF7E2FD801B642873D828688003F7D5EA
:1010E0000CE0FFF7D9FD064605E000BFFFF7D4FD91
:1010F000801B6428F0D828688003F7D42078DFF8B4
:10110000AC8280074FF0000A3ED5A748001D016859
:1011100011F00C0F08D00068C0F3810002280BD139
:10112000D9F80000400207D42868800716D5E06887
:10113000012800D112E033E1E068B8B10120C8F81D
:101140000000FFF7A9FD064605E000BFFFF7A4FD7C
:10115000801B0228C0D828688007F7D52868216935
:1011600020F0F80040EAC10028600DE0C8F800A0B7
:10117000FFF792FD064604E0FFF78EFD801B022874
:101180001FD828688007F7D42078000722D5864F1B
:1011900087486169703771B101210160FFF77CFDFB
:1011A000064604E0FFF778FD801B022809D838685E
:1011B0008007F7D50EE0C0F800A0FFF76DFD0646EA
:1011C00005E082E0FFF768FD801B02287DD83868C3
:1011D0008007F7D42078400768D5DFF8CCB1002726
:1011E0000BF13C0BDBF80000C0000BD4DBF8001067
:1011F00041F08051CBF80010DBF80000012700F02F
:10120000805000906B4E3068C00510D4306840F4B8
:1012100080703060FFF740FD009005E0FFF73CFD77
:101220000099401A022850D83068C005F6D55E4EA5
:10123000A0686C3601280FD00528306810D020F047
:1012400001003060306820F004003060A068B8B160
:10125000FFF722FD00900FE0306840F00100F4E756
:1012600040F004003060F7E7FFF716FD0099411ADF
:1012700041F28830814266D830688007F4D50EE0AC
:10128000FFF70AFD009007E0FFF706FD0099411AFD
:1012900041F28830814256D830688007F4D42FB1AB
:1012A000DBF8001021F08051CBF80010A069C8B322
:1012B0003D49091D0968C1F3810102294AD002286C
:1012C000504607D0C8F8600000E03CE0FFF7E4FCBF
:1012D00004463BE04746C8F86000FFF7DDFC0646E1
:1012E00005E000BFFFF7D8FC801B02282BD8286838
:1012F0008001F7D4D4E907010843A16A2E4A4908BE
:1013000002EB0141626A41EA8211084394F82C1011
:1013100040EA0161C9F8001001203866FFF7BCFC03
:10132000044606E03EE000BFFFF7B6FC001B0228C3
:1013300009D828688001F7D534E000BFFFF7ACFC7E
:10134000001B022802D90320BDE8F88F286880011D
:10135000F4D427E00128F7D0D9F80000E26900F4BE
:10136000800191421CD1226A00F03F01914217D1C5
:1013700047F6C071626A0140B1EB821F10D1A26AC8
:101380004FF0FF3300F4403103EB5202B1EB024F58
:1013900006D194F82C1000F07060B0EB016F01D012
:1013A0000120D1E70020CFE7043802400000474287
:1013B000800E4742007000400000FFFF70477047FA
:1013C00010B590F83C20012A22D0012280F83C2060
:1013D000CA688C6822F4407222434C6822F480620E
:1013E00022430C6822F4006222430C6922F48052EA
:1013F00022434C6922F400522243C969002322F49B
:1014000080420A4301684A6480F83C30002010BDE5
:10141000022010BD70B590F83C20012A32D0012482
:1014200080F83C40022280F83D2003685A689D689D
:1014300022F070060A6832435A60134B02689A42DF
:1014400014D0B2F1804F11D0104B9A420ED0104BF5
:101450009A420BD00F4B9A4208D00F4B9A4205D0BC
:101460000E4B9A4202D00E4B9A4204D1496825F0A5
:1014700080031943916080F83D40002180F83C10C2
:10148000084670BD022070BD00000140000400400D
:1014900000080040000C00400004014000400140F2
:1014A0000018004010B5040003D094F83D0010B1BE
:1014B00007E0012010BD002084F83C00204600F029
:1014C0001EF8022084F83D00211D206801F038F844
:1014D000012084F8460084F83E0084F83F0084F838
:1014E000400084F8410084F8420084F8430084F806
:1014F000440084F8450084F83D00002010BD70478A
:1015000090F83D10012901D001207047022180F898
:101510003D1000681149884214D0B0F1804F11D0BD
:101520000F4988420ED00F4988420BD00E4988429D
:1015300008D00E49884205D00D49884202D00D4995
:10154000884204D1816801F00701062903D00168AF
:1015500041F00101016000207047000000000140DF
:101560000004004000080040000C0040000401405E
:10157000004001400018004090F83D10012901D0C2
:1015800001207047022180F83D100168CA6842F0CE
:101590000102CA6000681149884214D0B0F1804F3E
:1015A00011D00F4988420ED00E4988420BD00E4907
:1015B000884208D00D49884205D00D49884202D0A2
:1015C0000C49884204D1816801F00701062903D043
:1015D000016841F0010101600020704700000140F6
:1015E0000004004000080040000C004000040140DE
:1015F000004001400018004070472DE9F0410446CA
:101600000068C66805694FF00007A90713D5B10740
:1016100011D5F91E016101202077206880698007BB
:10162000204602D0FFF7E8FF04E000F0C3F82046B0
:1016300000F074F92777680716D5700714D521686C
:101640006FF004000861022020772068806910F4A0
:10165000407F204602D0FFF7CFFF04E000F0AAF859
:10166000204600F05BF92777280715D5300713D5FA
:1016700021686FF008000861042020772068C069A5
:101680008007204602D0FFF7B7FF04E000F092F891
:10169000204600F043F92777E80616D5F00614D562
:1016A00021686FF010000861082020772068C06969
:1016B00010F4407F204602D0FFF79EFF04E000F0C8
:1016C00079F8204600F02AF92777E80708D0F007D4
:1016D00006D021686FF001000861204600F084F90F
:1016E000280608D5300606D521686FF0800008610D
:1016F0002046FFF763FE680608D5700606D5216808
:101700006FF040000861204600F078F9A8060AD57D
:10171000B00608D521686FF0200008612046BDE8BA
:10172000F041FFF74CBEBDE8F081000010B586B077
:10173000044614216846FEF7EFFD2368184C00218B
:1017400018480222A34212D1036843F01003036039
:10175000006800F0100005904FF4D4400090CDE9EF
:1017600001210120CDE9031069460F4813E00F4C19
:10177000A34212D1036843F004030360006800F041
:101780000400059040200090CDE901210320CDE91F
:10179000031069460648FFF787F906B010BD000040
:1017A00000000140303802400010024000040140B7
:1017B00000080240704770B5044690F83C000026CF
:1017C0000D4601280FD0012084F83C006AB1042A9C
:1017D0001DD0082A2FD00C2A3FD00126002084F8E3
:1017E0003C00304670BD022070BD206800F022FF32
:1017F0002068816941F0080181612068816921F0D8
:1018000004018161206881692A69114311E020681F
:1018100000F040FF2068816941F400618161206827
:10182000816921F480618161206881692A6941EAC6
:1018300002218161D2E7206800F062FF2068C1695F
:1018400041F00801C1612068C16921F00401C16152
:101850002068C1692A69114311E0206800F084FF03
:101860002068C16941F40061C1612068C16921F447
:101870008061C1612068C1692A6941EA0221C161B0
:10188000ACE710B5040003D094F83D0010B107E0B8
:10189000012010BD002084F83C00204600F01EF816
:1018A000022084F83D00211D206800F049FE01203F
:1018B00084F8460084F83E0084F83F0084F8400035
:1018C00084F8410084F8420084F8430084F844001E
:1018D00084F8450084F83D00002010BD08B50C4A8E
:1018E00001680C48914207D1016841F00101016093
:1018F000006800F0010009E0074A914207D1016841
:1019000041F002010160006800F00200009008BD93
:1019100000000140443802400004014070470000CC
:1019200010B50446022249B104290ED0082913D06B
:1019300094F84100012816D0012010BD94F83E0013
:101940000128F9D184F83E200FE094F83F000128E7
:10195000F2D184F83F2008E094F840000128EBD150
:1019600084F8402001E084F841200122206800F042
:1019700053FE16492068164A884201D0904203D18E
:10198000436C43F4004343642068884213D0B0F1B1
:10199000804F10D00F4988420DD00F4988420AD09D
:1019A0000E49884207D0904205D00D49884202D0A6
:1019B0000C49884204D1816801F00701062903D04F
:1019C000016841F001010160002010BD00000140EC
:1019D000000401400004004000080040000C0040EA
:1019E000004001400018004000680349884201D1CE
:1019F000FFF758B97047000000100040704770476B
:101A000070470000F8B5016804460868CA684B6969
:101A100010F00F0F4FF0000559D003F0010602F44B
:101A20009077374365D0C10705D0D10503D5616CE8
:101A300041F001016164410705D5D90703D0616C0C
:101A400041F002016164810705D5D90703D0616CBB
:101A500041F004016164010707D502F02001314320
:101A600003D0616C41F008016164616C00293AD0D7
:101A7000800604D5900602D5204600F0CCFE2068F2
:101A80004069616CC0F38010090700D460B3204640
:101A900000F09AFE20684069400621D52068143085
:101AA00050E8001F21F0400140E80012002AF5D163
:101AB000E06BA8B16E490165E06BFEF7D0FF00282E
:101AC00011D0E06B016D01B0BDE8F040084783061E
:101AD0000FD593060DD52046BDE8F84000F09BBE1B
:101AE0002046FFF78DFFF8BD2046FFF789FF6564AC
:101AF000F8BD266B2023012E7DD1C6067BD5D606E8
:101B000079D508684868009048694FF00206400699
:101B100041D5E16B086840680004000CE8D0A28D54
:101B20008242E5D9E085C869B0F5807F2DD0206874
:101B30000C3050E8001F21F4807140E80012002AA8
:101B4000F5D12068143050E8001F21F0010140E871
:101B50000012002AF5D12068143050E8001F21F04F
:101B6000400140E80012002AF5D184F84230256394
:101B700020680C3050E8001F21F0100140E80012EE
:101B8000002AF5D1E06BFEF721FF6663A08DE18DA1
:101B9000401A81B22AE0A08DE18D401A81B2E08D19
:101BA0000028A5D00029A3D022680C3252E8000FEB
:101BB00020F4907042E80007002FF5D1206814301F
:101BC00050E8002F22F0010240E80027002FF5D155
:101BD00084F84230256320680C3050E8002F22F052
:101BE000100240E80023002BF5D166632046FFF782
:101BF00006FFF8BDFFE705062BD5150629D594F895
:101C000041002128F5D1A068B0F5805F01D120699D
:101C1000B0B1206A411C2162216800784860E08CE4
:101C2000401E0004000CE084E3D12068C16821F06C
:101C30008001C1602068C16841F04001C160D8E7FF
:101C4000206A0088C0F308004860206A801C206277
:101C5000E5E74006CDD55006CBD5CA68204622F030
:101C60004002CA6084F8413000F0AEF9C1E70000DC
:101C7000B927000870B5040004D094F8410000258D
:101C800010B106E0012070BD84F84050204600F0FD
:101C900023F8242084F841002068C16821F4005111
:101CA000C160204600F018FE2068016921F49041CF
:101CB00001612068416921F02A0141612068C16801
:101CC00041F40051C1606564202084F8410084F82B
:101CD00042006563002070BDF0B587B00446142152
:101CE0006846FEF719FB3448324B2268002432491B
:101CF0001438022503269A4233D10A6842F01002B2
:101D00000A60096801F010010591016841F00201C3
:101D10000160016801F002010591016841F00101D3
:101D20000160006802AA00F0010005908020CDE962
:101D30000005072782E8D00069462048FEF7B4FE78
:101D40002802CDE9000502AA694682E8D0001C48B5
:101D5000FEF7AAFE002205212520FFF73BF82520EB
:101D600024E0184B9A4223D10A6842F020020A600C
:101D7000096801F020010591016841F0400101600E
:101D80000068029400F0400005904FF48440CDE9D3
:101D900000050820CDE9036069460B48FEF784FE84
:101DA000002205214720FFF715F84720FFF704F828
:101DB00007B0F0BD0010014044380240000402406A
:101DC00000000240001401400018024090F8423028
:101DD000202B01D00220704721B11AB100230363E8
:101DE00000F000BE012070472DE9F0410446006874
:101DF0003449884219D13448334900788978012818
:101E000002D0022809D010E000F092FA2E490122F7
:101E1000891C2E48FFF7DAFF07E000F089FA2A490B
:101E20000122891C2A4800F0B5F82A492068884216
:101E300045D129482A4C2B49067828482A4D2B4A57
:101E40002B4B313E122E33D2DFE806F0090C101373
:101E5000171A1E2125323232323232282C2F0178C5
:101E6000491C01E00178491E017021E02078401CE6
:101E700001E02078401E20701AE00878401C01E044
:101E80000878401E087013E02878401C01E028788C
:101E9000401E28700CE01078401C01E01078401EB5
:101EA000107005E01878401C01E01878401E18708A
:101EB000BDE8F041012208490548FFF787BFBDE8AA
:101EC000F08100000014014046000020F4030020CF
:101ED000AC03002000100140450000203F0000201E
:101EE000400000204100002042000020430000206C
:101EF000440000202DE9F843044690F8410098463C
:101F000016460D46202802D00220BDE8F88385B190
:101F10007EB100206064212084F84100FEF7BCFE01
:101F2000A6848146E684A0682027B0F5805F02D0B1
:101F300003E00120E9E7206910B12E4600250EE0FC
:101F400000260CE08021204600F067FDA8B9C6B14C
:101F500016F8010B21684860E08C401EE084E08C9C
:101F60004B464FF00002CDF800800028EAD14FF038
:101F70004001204600F051FD40B184F8417003203B
:101F8000C3E735F8020BC0F30800E3E784F84170BB
:101F90000020BAE790F84130202B01D00220704792
:101FA00079B172B101628284C2840021416421212D
:101FB00080F841100068C16841F08001C1600020D4
:101FC000704701207047000000680449884203D12F
:101FD0000348407800F02EBA70470000001401401A
:101FE000460000200E4C0FA0217800F033F86178F5
:101FF0000EA000F02FF8A1780EA000F02BF8E178E9
:102000000EA000F027F821790EA000F023F86179E6
:102010000EA000F01FF8012002F08AF9E3E70000AB
:102020003F0000206E302E76616C00006E312E76FF
:10203000616C00006E322E76616C00006E332E767D
:10204000616C00006E342E76616C00006E352E7669
:10205000616C00000A46014601A000F025BD0000A9
:1020600025733D2564FFFFFF00000000FEE7000030
:1020700010B59CB01C2216496846FEF734F90021C1
:10208000684602F061F9134C11491C22E0601C31D2
:1020900007A8FEF728F9002107A802F055F90C4916
:1020A00020601C2238310EA8FEF71DF900210EA871
:1020B00002F04AF9064960601C22543115A8FEF767
:1020C00012F9002115A802F03FF9A0601CB010BD64
:1020D000C850000804000020194808B5016841F004
:1020E00040010160016801F040010091016841F088
:1020F00001010160016801F001010091016841F0F6
:1021000002010160016801F002010091016841F0E3
:1021100080010160016801F080010091016841F0D7
:1021200004010160016801F004010091016841F0BF
:1021300010010160006800F01000009008BD000070
:102140003038024010B592B000240F941C2168462C
:102150001094FEF7E1F8202107A8FEF7DDF82E48DD
:102160002C490160A721C0E9011444F61F61C0E9B0
:1021700003148021C0E90541FFF783FB08B1FEF796
:1021800023FC0F940FA924481094FFF743F908B1DA
:10219000FEF71AFC6020CDE9000402940394049435
:1021A0000594002269461C480694FFF704FB08B119
:1021B000FEF70AFC40F2DC50019004226946164802
:1021C000FFF7F9FA08B1FEF7FFFB0822694612484B
:1021D000FFF7F1FA08B1FEF7F7FB0C2269460E484B
:1021E000FFF7E9FA08B1FEF7EFFB079408940994AA
:1021F0004FF400500A94CDE90B4007A906480E940D
:10220000FFF7DEF808B1FEF7DFFB0348FFF78EFAB1
:1022100012B010BD000001401C03002010B592B0A8
:1022200000240F941C2108A81094FEF775F82021B3
:102230006846FEF771F820481E490160A721C0E9F1
:10224000011444F61F61C0E9031444618461FFF77F
:1022500018FB08B1FEF7B8FB0F940FA916481094AD
:10226000FFF7D8F808B1FEF7AFFB6020CDE908040E
:102270000A940B940C940D94002208A90E480E9415
:10228000FFF799FA08B1FEF79FFB00944FF4005056
:10229000CDE90440029401940394694606480794EA
:1022A000FFF78EF808B1FEF78FFB0348FFF73EFA01
:1022B00012B010BD00040140640300200C4810B5AA
:1022C0000A4901604FF4E1314160002181600C2234
:1022D000C160C0E904128161C161FFF7CBFC002835
:1022E00003D0BDE81040FEF76FBB10BD00100140E9
:1022F000AC0300200C4810B50A4901604FF4E131ED
:102300004160002181600C22C160C0E9041281613A
:10231000C161FFF7AFFC002803D0BDE81040FEF715
:1023200053BB10BD00140140F4030020FEE7FEE79C
:102330002DE9F04F3D4ADFF8F8A0961C92F800C056
:102340005778D21F3578537976785C1C4FF00109A5
:102350004FF0050EE4B26FF0660B012809D0022899
:1023600013D11079062859D2DFE800F03035393D15
:102370004F0FD078062821D2DFE800F003090D12B4
:102380001B078C4501D182F80390BDE8F08F8F4286
:10239000FBD1022002E00129F7D10320D070F4E73D
:1023A0000AF803105471092CEFD38D42EDD10420AB
:1023B000F4E78E42E9D182F803E02AE0002051469A
:1023C0005A460A54401C1228FBDBDEE78C45DCD160
:1023D00082F80490D9E78F42D7D1022011E0022978
:1023E000D3D103200DE01248DE07A0F112000AD07D
:1023F00018444172E0B254711228C6D38D42C4D140
:1024000004201071C1E7C154F4E78E42BDD182F8B7
:1024100004E00020507182F80690B6E70020514693
:102420005A460A54401C1228FBDBAEE74D00002040
:10243000E605002070B5074D00244FF4FA76A87029
:102440002919334601220448FFF754FD641C052C6A
:10245000F6DB70BD51000020F4030020012001F0E4
:1024600067FFFBE710B5502080F31188BFF34F8F53
:10247000BFF36F8F02F060FD18B104494FF0805038
:102480000860002080F3118810BD000004ED00E01A
:1024900030B593B030216846FDF73EFF14210CA8FB
:1024A000FDF73AFF1D480025016841F080510160A9
:1024B000006800F0805011901948016841F4804193
:1024C00001600068022400F4804011900120039014
:1024D00010200490009406940820CDE90750A8200D
:1024E000CDE9090404200B906846FEF7B1FD08B160
:1024F00072B6FEE70CA90F2081E831004FF4A0501E
:102500000F904FF48050109005210CA8FEF794FC1A
:10251000002801D072B6FEE713B030BD403802404B
:10252000007000400248016841F47001016070478A
:1025300088ED00E00148FFF760B800003C0400208F
:10254000F0B50268294C2A4D2A4E2B4F2B4B4FF0E9
:10255000804CA04209D0604507D0A84205D0B042C7
:1025600003D0B84201D0984204D122F0700E4A68DC
:1025700042EA0E02A0421BD0604519D0A84217D0F3
:10258000B04215D0B84213D0984211D01C4DA84289
:102590000ED01C4DA8420BD01B4DA84208D01B4D9D
:1025A000A84205D01A4DA84202D01A4DA84203D124
:1025B00022F44075CA682A434D6922F080022A43FA
:1025C00002608A68C2620A688262A04201D09842B0
:1025D00001D109690163012141610169C90703D082
:1025E000016921F001010161F0BD0000000001401E
:1025F0000004004000080040000C004000040140BE
:1026000000400140004401400048014000180040E3
:10261000001C00400020004010B501F01F03012104
:10262000046A99408C430462016A9A401143016232
:1026300010BD0000F0B5036A026A22F001020262D6
:1026400042688469124E24F073050C682C4323F011
:1026500002058B682B430D4DA84201D0B04205D135
:1026600023F00807CB683B4323F00403A84201D0C2
:10267000B04205D14D6922F4407215438A692A435C
:1026800042608461496841630362F0BD000001401B
:1026900000040140F0B5026A036A23F010030362EC
:1026A000436884690D6824F4E64444EA05248D688F
:1026B00022F0200242EA05120F4D104EA84201D02E
:1026C000B04206D1CF6822F0800242EA071222F01F
:1026D0004002A84201D0B04207D14D6923F44063C3
:1026E00043EA85038D6943EA850343608461496851
:1026F00081630262F0BD000000000140000401405F
:10270000F0B5026A036A23F4807303624368C46904
:1027100022F4007224F073050C68124E2C438D686D
:1027200042EA05220E4DA84201D0B04206D1CF6840
:1027300022F4006242EA072222F48062A84201D019
:10274000B04207D14D6923F4405343EA05138D6924
:1027500043EA05134360C4614968C1630262F0BD86
:10276000000001400004014030B5046A026A22F40E
:10277000805202624268C3690D6823F4E64343EA6B
:1027800005238D6824F4005444EA0534084DA8421A
:1027900002D0084DA84204D14D6922F4804242EA99
:1027A00085124260C36149680164046230BD000063
:1027B000000001400004014010B5806B0021C1857C
:1027C000C184FFF71DF910BD01680C3151E8002FDD
:1027D00022F4907241E80023002BF5D101681431F6
:1027E00051E8002F22F0010241E80023002BF5D12F
:1027F000016B012909D101680C3151E8002F22F049
:10280000100241E80023002BF5D1202180F842106E
:1028100000210163704708B590F84210222901D0C9
:10282000022008BD82684FF480539A4201D10169A9
:1028300021B1816A9A421BD04AB10AE00268816ADA
:102840005268C2F308020A80816A891C08E00269A2
:1028500072B10268526802F07F020A70816A491CF4
:102860008162C18D491E0904090CC18503D01BE09A
:1028700002685268F1E70168CA6822F02002CA6063
:102880000168CA6822F48072CA6001684A6922F04D
:1028900001024A61202180F8421000214163026B4D
:1028A000012A03D0FFF7A0FA002008BD01630168E8
:1028B0000C3151E8002F22F0100241E80023002BD8
:1028C000F5D101680A68D20602D50A684968009104
:1028D000818DFFF794F8E7E770B504460068016959
:1028E000E26821F44051114301612169A068E26965
:1028F00008436169114308432168CA6849F20C63BF
:102900009A430243CA6020684169A26921F4407178
:102910001143416131492068884202D030498842E0
:1029200002D1FEF753FB01E0FEF740FBE269002312
:10293000192164253226B2F5004F626828D0A0FB29
:102940000101930F9200FDF79DFC0146B0FBF5F0ED
:102950006FF01802504301EB800006EB0010B0FB53
:10296000F5F000F0F002B1FBF5F002EB0012B1FB64
:10297000F5F06FF01803584301EB800006EB0010F0
:10298000B0FBF5F000F00F0021681044886070BDC6
:10299000A0FB010192185B41FDF774FC0146B0FBFE
:1029A000F5F00201B1FBF5F06FF01803584301EBAD
:1029B000800006EBC000B0FBF5F000F0F80002EB81
:1029C0004002B1FBF5F0584301EB800006EBC0007C
:1029D000B0FBF5F000F00700D6E700000010014062
:1029E0000014014081628285C28500214164222158
:1029F00080F84210016921B10168CA6842F480720E
:102A0000CA6001684A6942F001024A610068C1680F
:102A100041F02001C160002070472DE9F84398463D
:102A200017460D460446089E24E0701C22D0FEF78F
:102A300033F9A0EB0800B0421AD8CEB12068C168C3
:102A4000490717D5802D15D0402D13D00168C943F3
:102A500009070FD401680025406800902046FFF761
:102A6000B3FE0820606484F840500120BDE8F8837C
:102A70000320FBE72068006835EA000004D000204E
:102A8000B842D2D00020F1E70120F9E70148FEF773
:102A9000B9BF0000AC0300200148FEF7B3BF00003F
:102AA000F4030020FEE700000FB4054B10B503A9A6
:102AB000044A029800F0C6FE10BC5DF814FB00004A
:102AC000D93B0008C000002003B4019841000098E1
:102AD00050EAC12018BF04204A0D18BF40F0010081
:102AE00040F2FF72B2EB515F08BF40F002000128D4
:102AF00008BF052002B070474100080218BF04203B
:102B00000A0E18BF40F001004FF07F4232EA010187
:102B100008BF40F00200012808BF052070470907E0
:102B2000090E002804DB00F1E02080F80014704753
:102B300000F00F0000F1E02080F8141D7047000045
:102B400010B510EE104A4FF01A402DED028B00EB3D
:102B50004400B0F1C85F4AD84FF0FC40B0EB440FDE
:102B600022D2B0EEC00AF7EE000A30EEC00AF6EE4E
:102B7000000A20EE208A18EE100A01F092FF00EE03
:102B8000100A14F0004F1DBF9FED281ADFED280A30
:102B9000B1EE400A9FED271A08BFF0EE410AF8EEA9
:102BA000001A20EE210A05E020EE008A9FED221A8D
:102BB000DFED220ADFED221A9FED222A70EEC00A15
:102BC00020EE080A08EE212ADFED1F1A48EE021A4D
:102BD0009FED1E2A08EE212ADFED1D1A48EE021A8B
:102BE000BDEC028B40EE610A30EE810A10BD4FF061
:102BF000CC40B0EB440F82BF9FED160ABDEC028BB8
:102C000010BD4FF07F40B0EB440F05D2BDEC028BFE
:102C1000BDE8104000F0ECBD012000F00DFEBDEC61
:102C2000028BBDE8104000F0E7BD00000000494005
:102C300022AA7D3A000000000000C93F22AAFD3907
:102C400024FE1C3DC78AD83C1E67383D1B93993D26
:102C5000AFAA2A3EDB0FC93F10B54FF00E412DED54
:102C6000028BB0EE408A18EE100A01EB4001B1F180
:102C7000145F5CD24FF0FE41B1EB400F24BF9FEDDB
:102C8000400AF0EE400A12D210F0004F19BFDFEDFB
:102C90003D0A9FED3D0ADFED3D0A9FED3D0AFFEE47
:102CA000001A81EE881AB0EE418A18EE100A4FF031
:102CB000FC41B1EB400F1BD210F0004FDFED351A95
:102CC0009FED352A1DBFBEEE001A70EEE10A30EE10
:102CD000420AB6EE001A04BF70EEA10A30EE020AF4
:102CE00038EE412AF7EE001A48EE011A82EE218AE8
:102CF000DFED2A1A9FED2A2A28EE081A01EE212A72
:102D0000DFED281A41EE021A9FED272A01EE212A53
:102D1000DFED261A41EE021A28EE011A01EE210A11
:102D200030EE080ABDEC028B30EE200A10BD4FF0E9
:102D3000E441B1EB400F0CD918EE100AFFF7DCFEAE
:102D4000042808BF00F060FDB0EE480ABDEC028B1D
:102D500010BD4FF07F41B1EB400F07D2B0EE480AF3
:102D6000BDEC028BBDE8104000F042BD10F0004FFA
:102D700014BF9FED0F0A9FED0F0ABDEC028B10BD33
:102D8000000000000000C9BF22AAFDB90000C93F31
:102D900022AAFD390060ED3EC30ACE372DAD65BDD8
:102DA0008FB8D53D0FB511BE61C84C3EA8AAAABECA
:102DB000DB0FC9BFDB0FC93F10B52F499FED2C1B9F
:102DC0002DED020B84B0059820F000408842D8BF5A
:102DD0009DED040B2DDD2949884209D1049840B9A5
:102DE0004FF0010000F028FD00F0E2FC06B010BD3D
:102DF00005DB9DED040B00F0CFFC06B010BD68466E
:102E00009DED040B00F0E0F810F0030004BF9DED11
:102E1000021B9DED000B0CD001280ED09DED021B76
:102E20009DED000B022817D0012000F01DFC06B01C
:102E300010BD00F0E5FA06B010BD9DED021B9DED42
:102E4000000B012000F010FC51EC100B81F0004150
:102E500006B041EC100B10BD00F0D2FA51EC100B93
:102E600081F0004106B041EC100B10BD00000000E5
:102E70000000000000000000FB21E93F0000F07F9F
:102E800010B52F499FED2C1B2DED020B84B005983A
:102E900020F000408842DCBF00209DED040B32DDB5
:102EA0002849884209D1049840B94FF0010000F048
:102EB000C3FC00F07DFC06B010BD05DB9DED040BEE
:102EC00000F06AFC06B010BD68469DED040B00F0F2
:102ED0007BF810F0030011D0012818D09DED021BE3
:102EE0009DED000B02281AD000F08AFA51EC100B6D
:102EF00081F0004106B041EC100B10BD9DED021BAE
:102F00009DED000B012000F0AFFB06B010BD9DED64
:102F1000021B9DED000B00F073FA06B010BD0120FE
:102F200000F0A2FB51EC100B81F0004106B041EC27
:102F3000100B10BD000000000000000000000000A9
:102F4000FB21E93F0000F07F00B52DED048BB0EED2
:102F5000409AF0EE609A83B051EC190BFDF7CFFC6C
:102F600041EC180B18EE100A18EE901A8DED008B3C
:102F7000002818BF0120084320F00040C0F17F6006
:102F800000F1E040C00F14D019EE101A19EE900AAB
:102F90008DED009B002918BF0121084320F000405F
:102FA000C0F17F6000F1E040C00F04BF012000F0DD
:102FB00043FCB0EE480A03B0F0EE680ABDEC048BA7
:102FC00000BD0000000000002DE9F14F04462DED8A
:102FD000020B2DED088B8AB09FEDE70B80ED020B05
:102FE000139EE74826F0004585420ADC9DED120B52
:102FF000002084ED000B0AB0BDEC088B03B0BDE8E7
:10300000F08FE0489FEDE0AB9FEDE1BBA84247DDCC
:10301000E14F9FEDE39B9FEDE48B9DED120B53EC95
:103020001A2B51EC100B002E1CDDFDF721FA41ECA0
:10303000100BBD4208D053EC1B2B51EC100BFDF7CD
:1030400017FAC4E900010BE053EC192B51EC100BFB
:10305000FDF70EFA53EC182BFDF70AFAC4E900014C
:103060000120C8E7FDF763F941EC100BBD4208D021
:1030700053EC1B2B51EC100BFDF759F9C4E900017F
:103080000BE053EC192B51EC100BFDF750F953ECFE
:10309000182BFDF74CF9C4E900014FF0FF30AAE707
:1030A000C348A84279DB9DED120B51EC100B00F0E8
:1030B000DDFC41EC180B9FEDC00B53EC102BFDF722
:1030C000DDF99FEDBF1B53EC112BFDF730F9FDF738
:1030D000D4FA0746FDF7B3FA41EC190B53EC1A2B5F
:1030E000FDF7CCF953EC182BFDF7C5F941EC180BA3
:1030F00053EC1B2B51EC190BFDF7C0F9DFF8C8A2FC
:1031000041EC100B4FEA15580125FA4453EC102BF3
:1031100051EC180BFDF7ACF9032DC4E900013DD0CB
:10312000C1F30A5005EB4511A8EB000011398142AB
:1031300034DA0AEB051BB0EE48AA9BED000BF0EE6B
:1031400068AA53EC102B51EC190BFDF797F941ECE1
:103150001B0B51EC1A0B53EC1B2BFDF789F941ECBF
:10316000180B51EC1A0B53EC182BFDF781F953ECAB
:103170001B2BFDF77DF99BED020B41EC1A0B53EC79
:10318000102B51EC190BFDF779F953EC1A2BFDF7C5
:103190006FF941EC100B6D1CB8E70EE0002EA8BFD4
:1031A0003846BFF628AF94ED000B51EC100B81F0C0
:1031B0000041C4E9000178421DE7C6F3130040F462
:1031C000801EC6F30A50A0F2F530471100F01F052B
:1031D000C5F12000DDF848B0089000200690079067
:1031E0000520EC467949002D07EB0002794408BF21
:1031F00051F8221009D051F8223001EB8201AB4086
:103200004A68089922FA01F11943A1FB0E26A1FB95
:103210000B131A449A4234BF0123002303EB060820
:103220000CEB8003D3E901A60E448E4234BF01218A
:10323000002192448A4411B1924502D903E092459B
:1032400001D2012100E00021C3E901A641444CF86C
:103250002010011EA0F10100C4DC029800F1005012
:10326000850F0298DDE903678000DDF81480FDF723
:10327000E6F941EC1A0B3046FDF7F2F99FED541BCD
:1032800053EC112BFDF7FAF841EC1B0B3846FDF718
:10329000E7F99FED511B53EC112BFDF7EFF841ECD3
:1032A000180B4046FDF7DCF99FED4D1B53EC112B3D
:1032B000FDF7E4F841EC190B51EC180B53EC192B0A
:1032C000FDF735F853EC1B2BFDF731F853EC1A2BB7
:1032D000FDF72DF8CDE90801002008909DED080BC1
:1032E00053EC1A2B51EC100BFDF7C2F853EC1B2BCF
:1032F000FDF7BEF853EC182BFDF7BAF853EC192B79
:10330000FDF7B9F89FED381B53EC112BFDF7B6F81C
:103310009FED370B41EC180B53EC102B9DED080B78
:1033200051EC100BFDF7AAF853EC182BFCF7FFFF3C
:103330009FED310B41EC180B53EC102B9DED080B5E
:1033400051EC100BFDF79AF853EC182BFCF7EFFF3C
:1033500041EC100B139810F0004F06D06D4251EC69
:10336000100B81F0004141EC100B284684ED000B5E
:1033700041E6000000000000000000000000000026
:10338000FB21E93F7CD9024000004054FB21F93F7A
:103390003163621A61B4D03DFB21F93F00000000A7
:1033A0000000601A61B4D03D7370032E8A19A33BEC
:1033B000FB2139410000000083C8C96D305FE43F44
:1033C000000000000000E03F72200000C01F00006D
:1033D000000000000000103E000000000000103C53
:1033E000000000000000103A182D4454FB21F93D64
:1033F0003326A611460B113C00000054FB21F93D79
:1034000010B52DED040B2DED088B82B0B0EE419A76
:10341000F0EE619A0B9820F000449FED4BABB4F1B5
:10342000795F11DA9DED0A0B51EC100BFDF725F9D0
:10343000002801BFB0EE4A0AF0EE6A0A02B0BDEC05
:10344000088B04BF04B010BD9DED0A0B53EC102B8C
:1034500051EC100BFDF712F841EC180B3C4806211B
:10346000B0EE480AF0EE680A784400F081F853ECB8
:10347000182B51EC100BFDF701F89DED0A0B41ECF8
:103480001B0B53EC192B51EC100BFCF7F7FF41EC25
:10349000190B53EC1B2B51EC180BFCF7EFFF53EC03
:1034A000192BFCF7E5FF9FED2C0B41EC190B53ECAE
:1034B000102B51EC180BFCF7E1FF41EC100B2848E6
:1034C000844210DA53EC192B51EC100BFCF7D0FFAF
:1034D00053EC1A2BFCF7CFFF41EC100B02B0BDEC04
:1034E000088B04B010BD1F48A042BCBF9FED1E1B3F
:1034F0008DED001B06DBA4F500100190002000906C
:103500009DED001B51EC100B53EC112BFCF7B0FFA1
:103510009DED000B41EC180B53EC102B51EC1A0BEA
:10352000FCF7A6FF41EC1A0B53EC192B51EC180BCE
:10353000FCF79EFF53EC1A2BFCF79DFF41EC100BA0
:10354000CCE7000000000000000000000000F03F99
:10355000E41C000000000000000000000000E03F4C
:103560003333D33F0000E93F000000000000D23FAA
:1035700070B504462DED028B4D1E00EBC500B0EE7C
:10358000408AF0EE608A90ED000B35F0060017D00F
:1035900053EC182B51EC100BFCF770FF41EC100BA7
:1035A0006D1E04EBC50090ED001B51EC100B53ECAD
:1035B000112BFCF7BCFE41EC100B35F00600E7D1F7
:1035C000022D36D0042D1CD0062D1CBFBDEC028B65
:1035D00070BD53EC182B51EC100BFCF74FFF94ED22
:1035E0000A1B53EC112BFCF7A2FE53EC182BFCF733
:1035F00045FF94ED081B53EC112BFCF798FE41ECB2
:10360000100B53EC182B51EC100BFCF737FF94ED1B
:10361000061B53EC112BFCF78AFE53EC182BFCF71E
:103620002DFF94ED040B53EC102BFCF780FE41ECC6
:10363000100B53EC182B51EC100BFCF71FFF94ED03
:10364000021B53EC112BFCF772FE53EC182BFCF70A
:1036500015FF94ED001B53EC112BFCF768FEBDEC3D
:10366000028B41EC100B70BD31B504462DED040BFF
:103670002DED0A8BB0EE41BAF0EE61BA0B989DEDDC
:103680000A0B20F00040B0F1795F0DDA51EC100B1D
:10369000FFF71AFA042808BF00F09AF89DED0A0B0C
:1036A000BDEC0A8B05B030BD53EC102B51EC100B68
:1036B000FCF7E4FE41EC180B9DED0A0B53EC182BC4
:1036C00051EC100BFCF7DAFE41EC190B2C48B0EE74
:1036D000480AF0EE680A05217844FFF749FF9FED9C
:1036E0002ACBB0EE40AAF0EE60AA9CB353EC1C2BA0
:1036F00051EC190BFCF7C2FE41EC1C0B53EC1A2BDE
:1037000051EC190BFCF7BAFE9FED210B41EC190BA4
:1037100053EC102B51EC1B0BFCF7B0FE53EC192BA8
:10372000FCF7A6FE53EC182BFCF7A8FE53EC1B2B62
:10373000FCF79EFE53EC1C2BFCF79AFE9DED0A1B3A
:1037400053EC112BFCF797FEBDEC0A8B05B041EC56
:10375000100B30BDFFE753EC1A2B51EC180BFCF7A4
:103760008DFE53EC1C2BFCF7E2FD53EC192BFCF700
:1037700085FE9DED0A1B53EC112BFCF7D8FDE3E70A
:103780006C1B000000000000495555555555C5BF3C
:10379000000000000000E03F10B553EC102B51EC8E
:1037A000100BFCF7C4FD41EC100B10BD0000000035
:1037B0009FED050B10B553EC102B51EC100BFCF7E3
:1037C000CFFE41EC100B10BD000000000000000017
:1037D0009FED050B10B553EC102B51EC100BFCF7C3
:1037E0004DFE41EC100B10BD000000000000001069
:1037F00030EE000A70470000DFED020A80EEA00AFA
:1038000070470000000000009FED020A20EE000A51
:10381000704700000000001002E008C8121F08C135
:10382000002AFAD170477047002001E001C1121F41
:10383000002AFBD170470000014908607047000072
:10384000C40000202DE9FF4F8BB09A460F46054675
:10385000002606E025280BD052460D9990476D1C96
:10386000761C28780028F5D10FB03046BDE8F08FDF
:103870000024A0460122604900E0044315F8013FFE
:10388000203B02FA03F00842F7D128782E2817D1FE
:1038900015F8010F44F004042A280ED06FF02F020F
:1038A0002878A0F1300109290AD808EB880102EB39
:1038B000410100EB01086D1CF2E757F8048B6D1C09
:1038C000287869283ED006DC0028CDD063280BD0AC
:1038D000642804D136E0732810D075284BD05246A6
:1038E0000D999047761C85E017F8040B8DF80000C1
:1038F00000208DF80100E946012003E057F8049B01
:103900004FF0FF3061074FF0000401D40AE0641C5F
:1039100044450DDA8442FADB19F804100029F6D187
:1039200006E0641C8442FCDB19F804100029F8D17D
:10393000264404E019F8010B52460D999047641E85
:10394000F8D257E001CF4FF00A0B002802DA4042CC
:103950002D2102E0210504D52B218DF82410012111
:1039600003E0E10705D02021F7E70DF120090891D8
:103970000CE00021F9E701CF4FF00A0BF9E75946B7
:10398000FCF7E2FE01F1300209F8012D0028F6D122
:10399000ADEB090000F1200B600701D44FF00108E6
:1039A000D84502DDA8EB0B0000E000208046002493
:1039B00006E009A85246005D0D999047641C761CEC
:1039C00008988442F5DB04E0302052460D99904778
:1039D000761CB8F10001A8F10108F5DC05E019F842
:1039E000010B52460D999047761CBBF10001ABF1DB
:1039F000010BF4DC6D1C34E709280100B5EEC00AA8
:103A0000F1EE10FA01DCB1EE400A704710B54FF448
:103A10007A742DED048BB0EE608AF0EE408A9FED53
:103A2000119A2046B0EE491A00F002FF20469FEDA1
:103A30000E1AF0EE480AB0EE680A00F0F9FE00F047
:103A400063FB40F2DC5000F073FCB0EE491AF0EE7C
:103A5000480AB0EE680ABDEC048B2046BDE8104071
:103A600000F0E6BE000020430000F64282B0CDE93F
:103A7000000121F0004001909DED000B02B051ECDF
:103A8000100B7047DFF84481514D524CA8F14807A4
:103A900007F170092878102804D0112811D01228B5
:103AA0000ED14FE02178D7ED091A08EBC10097ED50
:103AB000081A90EC020A00F017FE2078401C2070D3
:103AC0007FE0002635E0287801280FD002280DD0AD
:103AD00003280BD0042809D0052807D0062805D0D4
:103AE000072803D0082801D0092822D1012E07EB8E
:103AF000C0000ED8227850ED011A08EBC20110ED7B
:103B0000021A91EC020A00F0EFFD2078401C2070B0
:103B10000DE0627850ED011A09EBC20110ED021AB6
:103B200091EC020A00F0E0FD6078401C6070761CA9
:103B3000F6B2012000F0FCFB042EC4D341E00120CA
:103B400000F0F6FBA0780128F9D10026287801289A
:103B50000FD002280DD003280BD0042809D0052847
:103B600007D0062805D0072803D0082801D0092847
:103B700025D1012E07EBC0000ED8227850ED011A96
:103B800008EBC20110ED021A91EC020A00F0ACFD44
:103B90002078401C20700DE0627850ED011A09EB8E
:103BA000C20110ED021A91EC020A00F09DFD60784E
:103BB000401C6070761CF6B2012000F0B9FB042EA8
:103BC000C4D3012000F0B4FB64E7000084050020AA
:103BD000450000203C00002013B54FF6FF73012282
:103BE00069460248FEF786F900981CBDAC03002028
:103BF00010B54FF47A742DED048BB0EE608AF0EEC0
:103C0000408A9FED119A2046B0EE491A00F010FE4E
:103C100020469FED0E1AF0EE480AB0EE680A00F05A
:103C200007FE00F079FA40F2DC5000F081FBB0EEC4
:103C3000491AF0EE480AB0EE680ABDEC048B204643
:103C4000BDE8104000F0F4BD000020430000F64243
:103C50004FF47A709FED031ADFED030A9FED030A1C
:103C600000F0E6BD0000204300008C420000000090
:103C700070B52DED040B2DED108BF0EE60FAF0EE2B
:103C800041EA9DED100A20EE000A0FEEAF0A10EE99
:103C9000100AFCF711FD41EC100BFFF755F951EC40
:103CA000100BFCF735FDFA4CB2EE040A0DEE900A4B
:103CB000D4ED000A80EE808AD4ED010AC0EE80AA1D
:103CC000D4ED020A3EEEC8CAC0EE809AD4ED030AD3
:103CD00080EE80EA7DEECECA2CEEAC0AB0EE40DA81
:103CE0000CEE0C0A10EE100AFCF7E6FC41EC100B8F
:103CF000FFF72AF951EC100BFCF70AFDE54D08EE31
:103D0000900A95ED010A38EE000A9FEDE3BB9FEDA6
:103D1000E48AB4EEEE0AF1EE10FA08D23AEEA90AFD
:103D200030EE0E0AB4EEED0AF1EE10FA08D284ED90
:103D3000108A84ED118A84ED128A84ED138A90E052
:103D40002AEEAA9AB0EE000A28EE80FAF0EE490AAE
:103D500048EEA80A2FEE2A1A49EEE90A80EE810AF7
:103D6000FEF7EEFE10EE100AFCF7A6FC53EC1B2B40
:103D7000FCF784FB08EEA8DA6FEE2C0A41EC1E0B70
:103D80000CEE4CDA8DEE200AFEF7DAFE10EE100A89
:103D9000FCF792FC53EC1B2BFCF770FB9FEDC1DB97
:103DA00053EC1D2BFCF767FB53EC1E2BFCF760FB61
:103DB000FCF7AEFC09EEA99AB0EE000A0AEE100A72
:103DC0002AEE800A08EEE89A60EE290A89EE200AB7
:103DD000FEF7B6FE10EE100AFCF76EFC53EC1B2B40
:103DE000FCF74CFB9FEDB11B53EC112BFCF743FB95
:103DF000FCF78EFC68EEA80A2FEE0C1A09EE100AEA
:103E00004CEE0C0A4CEEEC0A80EE810AFEF798FEAE
:103E100010EE100AFCF750FC53EC1B2BFCF72EFBAA
:103E200069EEA90A2FEE291A41EC1C0B48EEA80AEC
:103E30004AEEEA0A80EE810AFEF782FE10EE100AD0
:103E4000FCF73AFC53EC1B2BFCF718FB53EC1D2B37
:103E5000FCF711FB53EC1C2BFCF70AFBFCF758FC9E
:103E6000064619EE100A9349884207DA84ED108A53
:103E700084ED118A84ED128A84ED138A1AEE100AF9
:103E80008D49884207DD84ED108A84ED118A84ED26
:103E9000128A84ED138A19EE100A8849884207DDD8
:103EA00084ED108A84ED118A84ED128A84ED138AE0
:103EB0002868FCF701FC3AEE090A41EC1C0BDFED27
:103EC000800A30EE600A10EE100AFCF7F5FB53ECA6
:103ED0001B2BFCF745FB41EC100BFEF76DFFB0EE22
:103EE00040DAF0EE60DA19EE900AFCF7E5FB53ECED
:103EF0001D2BFCF7C3FA41EC1D0B1AEE100AFCF760
:103F0000DBFB53EC1B2BFCF72BFB41EC100BFEF700
:103F1000B7FFB0EE40EAF0EE60EA1AEE900AFCF766
:103F2000CBFB53EC1E2BFCF7A9FA53EC1D2BFCF733
:103F3000FEF953EC1C2BFCF7D3FB07D884ED108A59
:103F400084ED118A84ED128A84ED138ADDED100A66
:103F500080EEAF0AFEF780FE10EE100AFCF7ACFB15
:103F600053EC1B2BFCF78AFAFCF7D2FB206184EDA3
:103F700005AA84ED069AE661FCF79EFB9FED51BB16
:103F800053EC1B2BFCF77AFA9FED50CB53EC1C2B18
:103F9000FCF7E6FA95ED020A41EC1D0B30EE080A3B
:103FA00010EE100AFCF788FB53EC1D2BFCF760FAAF
:103FB000FCF763FB00EE100A1AEE100AB8EEC00A16
:103FC00084ED100AFCF778FB53EC1B2BFCF756FA38
:103FD00053EC1C2BFCF7C4FA95ED030A41EC1A0BC9
:103FE00030EE080A10EE100AFCF766FB53EC1A2BB1
:103FF000FCF73EFAFCF741FB00EE100A19EE100A3E
:10400000B8EEC00A84ED110AFCF756FB53EC1B2BEB
:10401000FCF734FA53EC1C2BFCF7A2FA95ED050AD9
:1040200041EC190B30EE080A10EE100AFCF744FBC5
:1040300053EC192BFCF77BF9FCF71FFB00EE100A81
:104040003046B8EEC00A84ED120AFCF735FB53EC9B
:104050001B2BFCF713FA53EC1C2BFCF781FA95EDA4
:10406000040A41EC190B30EE080A10EE100AFCF7B6
:1040700023FB53EC192BFCF75AF9FCF7FEFA00EE80
:10408000100AB8EEC00A84ED130ABDEC108B7FBD98
:10409000E404002024000020B694631ADCA54C4000
:1040A0000080BB440000000000805640000000007B
:1040B000008066400000A0400000AA4200000543C6
:1040C0000000B4420000000000409F4000000000DB
:1040D00000E0704070B50646FFF7CAFD094D0024A8
:1040E00005EB8400324690ED100A2046BDEEC00A72
:1040F00010EE101A00F08EFC641C042CF0DB012082
:1041000070BD0000E40400200249002009684863F3
:104110007047000064030020024944F250600968BF
:104120004863704764030020FCF7C4FDFEF7B0F954
:10413000FDF7D2FFFEF706F8FEF7DCF8FEF7BEF853
:10414000FEF76CF85748FDF7DBF95748FDF7D8F94B
:1041500000215448FDF7E4FB04215248FDF7E0FB41
:1041600008215048FDF7DCFB0C214E48FDF7D8FB39
:1041700000214D48FDF7D4FB00F0EAFB4FF4FA6054
:10418000FCF780FC4A494948D1ED001A9FED491AD5
:10419000DFED490A9FED490A00F070FC0122484911
:1041A0004848FDF713FE012247494848FDF70EFE37
:1041B0009FED470A4748DFED480A80EC020ADFED31
:1041C000470AC0ED020ADFED460AC0ED030ADFED43
:1041D000450AC0ED040ADFED440AC0ED050A80ED92
:1041E000060A9FED420A80ED070A9FED410A80ED25
:1041F000080A9FED400A80ED090A40489FED3E0AFB
:1042000080ED000A9FED3E1A80ED011A9FED3D1AE8
:1042100080ED020A80ED031A80ED040AC0ED050A64
:10422000DFED390A80ED060AC0ED070A80ED080AC5
:104230009FED360AF3EE0E0A80ED090A3448C0ED10
:10424000000ADFED341AB8EE081AC0ED011A80ED4D
:10425000021A9FED310AC0ED031A80ED040AC0ED89
:10426000051ADFED2E1AC0ED060AC0ED071A80ED23
:10427000081AC0ED091A80ED0A0AC0ED0B1AC0ED4C
:104280000C0ADFED270AC0ED0D0A80ED0E1AC0ED15
:104290000F0A80ED100AC0ED110AFDF7E9FE00F0EB
:1042A0004EF8FEE71C03002064030020E404002015
:1042B000000000200000C4420000D2420000B442CE
:1042C00045000020AC03002048000020F40300203B
:1042D0000000A2C28405002000005C420000A6C2CB
:1042E0000000A0420000A0C20000D642000001432E
:1042F0000000AEC20000194300009E42AC05002041
:10430000000064420000A4420000054300001F4377
:104310003C0500200000BE42000010C20000FC422C
:104320000000204301460020842900D0C81C7047AB
:1043300010B500B9012000F09BFC002010BD10B5A5
:1043400000F0BCFC002010BD7FB50D46044641695D
:10435000B0F9080081B1A16971B1FFF7E3FFD4E9B9
:1043600005128DE80700D4E900102B46226900F001
:10437000B8FD039004B070BDFFF7D4FF03A9CDE9E9
:104380000001208A2B4682B2D4E9001000F07CFDA7
:10439000012801D00020EDE70398EBE72DE9F0417B
:1043A000184C0F460546E6682068001D00F098FB93
:1043B00038B9206890F82C10012088402169814389
:1043C0002161681C07D137B12168BDE8F0410E4872
:1043D000091D00F0C9BB20683544B542456021681D
:1043E00005D2A06BBDE8F041091D00F0A5BB606BD4
:1043F000091D00F0A1FBA06A854200D2A562BDE8BC
:10440000F081000058000020CC0600202DE9F0418A
:10441000054600F0B5FB2E4CA068401CA06020684B
:104420002C4F10B1606940B32DE02560A0680128D1
:1044300029D1002606EB860007EB800000F06EFB1A
:10444000761C072EF6D323488C3000F067FB2148FA
:10445000A03000F063FB1F48B43000F05FFB1D4844
:10446000C83000F05BFB1B48DC3000F057FB1948FC
:104470008C3060631430A06305E02068E96AC06A8C
:10448000884200D82560606A401C6062E96A0120A9
:10449000226988401043206101EB810007EB800016
:1044A000291D00F061FB00F08BFB606900280CD037
:1044B0002068E96AC06A884207D207494FF08050F5
:1044C0000860BFF34F8FBFF36F8FBDE8F08100002E
:1044D00058000020F005002004ED00E010B504466F
:1044E00090F8510058B101280CD002280FD050206C
:1044F00080F31188BFF34F8FBFF36F8FFEE7206B00
:1045000000F072FB2046BDE8104000F06DBB10BD0E
:1045100010484FF47051420706D0C01D0D4920F0DD
:104520000700411AC1F570510B4A00230144C2E94A
:1045300000030839183A21F0070111604B600B6045
:104540000B1AC0E9001393604FF0004053605061B4
:1045500070470000E0060020AC000020144E154C0F
:10456000A6F1C8074FF08058DFF84C9012E000BF6A
:1045700000F006FBF068C568281D00F0B1FAA068DD
:10458000401EA0606068401E606000F019FB284675
:10459000FFF7A4FF60680028EAD138680128F9D93C
:1045A000C9F80080BFF34F8FBFF36F8FF2E70000B1
:1045B000B80600205800002004ED00E02DE9F04787
:1045C0009A46DDE9098481466FF00303206B03EB13
:1045D00082021044089E20F00707780707D0502079
:1045E00080F31188BFF34F8FBFF36F8FFEE7002575
:1045F00061B1002023180A5C83F834200A5C12B1F0
:10460000401C1028F6D384F8435001E084F834505D
:10461000072E00D30626E662C4E91165201D00F0CE
:1046200088FA04F1180000F084FA2461C6F107004A
:104630006462A061E56484F85050524649463846A9
:1046400000F0E0F82060B8F1000F01D0C8F8004099
:10465000BDE8F08730B5114900E011460A68824292
:10466000FBD34B685C18844203D14068184448600F
:10467000084643681C18944209D1084C183C246829
:10468000A24209D052681A4442600A681268026065
:10469000814200D0086030BD0460F9E7AC00002022
:1046A0000648416B096829B1416BC968C968496806
:1046B000816270474FF0FF31FAE700005800002098
:1046C00008484068401C4FF0500080F3118804D027
:1046D000BFF34F8FBFF36F8FFEE7BFF34F8FBFF373
:1046E0006F8FFEE7B400002010B52DED048BB0EE07
:1046F000419AF0EE619AB0EE408AF0EE608AFFF7E0
:10470000A7FAF0EE680AB0EE480AFFF771FAF0EE89
:10471000690AB0EE490AFFF779F9BDEC048BBDE8F0
:104720001040FFF795BA00002DE9F041054600273B
:1047300000F0FAFA324E306808B9FFF7E9FE706906
:1047400005424ED1C5B3083568070ED005F0070005
:10475000C0F108000544680707D0502080F3118895
:10476000BFF34F8FBFF36F8FFEE72DB370688542A5
:1047700037D82348183001460C6801E020460C4623
:104780006168A94202D221680029F7D131688C42C0
:1047900027D007682168016060680837411B10292D
:1047A0000FD96019420708D0502080F31188BFF359
:1047B0004F8FBFF36F8FFEE713E041606560FFF737
:1047C00049FF61687068401A7060B268904200D218
:1047D000B060706901430020C4E90001F068401C2A
:1047E000F06000F00FFC780707D0502080F31188AC
:1047F000BFF34F8FBFF36F8FFEE73846BDE8F08100
:104800009400002010B5031F4FF080741C601B1F24
:1048100021F001011960191F044B0B6014390A6063
:10482000091F6FF0020244380A6010BDC14600083B
:1048300010B50446FFF74EFC04F59670BDE8104035
:10484000FFF776BD1A4E1B4C0325002000F034F80C
:1048500096ED010A2168BCEEC00A10EE100A48630A
:10486000012000F029F81248216890ED040ABCEEFE
:10487000C00A10EE100A8863022000F01DF80C48F0
:10488000216890ED070ABCEEC00A10EE100AC8635A
:10489000284600F011F80648216890ED0A0ABCEE9F
:1048A000C00A10EE100A08641420FFF741FDCCE79F
:1048B000840400201C03002070B5234900EB400055
:1048C00001EB80052DED028B95ED020AB5EEC00AD5
:1048D000F1EE10FA2BD031F8204040F6BA108442A5
:1048E00003DC4FF4FA70844200DA044600EE104A0A
:1048F000D5ED010AB8EEC00A30EE600AFFF77EF887
:10490000B0EE408A95ED020A30EE000AFFF776F825
:10491000B4EEC08AF1EE10FA0CD800EE104AB8EEF0
:10492000C00A85ED010A9FED090A85ED020ABDEC7A
:10493000028B70BD95ED010AD5ED020A30EE200A1A
:1049400085ED010AF3E70000840400200000000068
:1049500010B528489FED280ADFED280A002140F213
:10496000DC5341F2883400BF01EB4102491C20F8BE
:10497000223000EB8202C9B282ED010AC2ED020AC6
:1049800054800829F0D31E4990ED010AD1ED000AA8
:104990001C4930EE200A0B68BCEEC00A10EE102A4B
:1049A0005A63194A90ED040A0B68D2ED000A30EE02
:1049B000200ABCEEC00A10EE102A9A63134A90ED4A
:1049C000070A0B68D2ED000A30EE200ABCEEC00ADE
:1049D00010EE102ADA6390ED0A0A0D480968D0ED4E
:1049E000000A30EE200ABCEEC00A10EE100A08647D
:1049F00010BD0000840400200080BB4400000000C3
:104A00002C0000201C030020300000203800002073
:104A10003400002070B58DB200EB4003144990B211
:104A20002DED028B01EB830421F823506080FBF70E
:104A300017FE9FED101B53EC112BFBF791FD00EEC1
:104A4000105AD4ED010A41EC180BB8EE400A30EED2
:104A5000600A10EE100AFBF72FFE53EC182BFBF741
:104A60007FFDFBF755FEA060BDEC028B70BD000022
:104A7000840400200000000000003440B2EE042A4C
:104A800020EE020A80ED000A20EE820A80ED010A83
:104A900021EE020A80ED020A21EE820A80ED030A6D
:104AA000704710B500EE100A2DED028BB1EEC08AF2
:104AB00018EE100A20F00040C0F1FF40C00F0AD0ED
:104AC00010EE100A20F00040C0F1FF40C00F04BFFC
:104AD0000120FEF7B1FE18EE100ABDEC028B10BDEE
:104AE000D0E9013201699A60D0E901235A604A682D
:104AF000824201D182684A60002202610868401E39
:104B00000860086870470000034B036003F154001D
:104B10000860802010607047C800002000F1080184
:104B20004FF0FF32C0E90112C16001610021016054
:104B3000704700210161704730B50B685A1C02D0E4
:104B400000F1080202E0026904E022465468256888
:104B50009D42FAD953684B6099608A605160086140
:104B60000168491C016030BD42684A6093688B60EF
:104B700093685960916008610168491C0160704741
:104B8000502080F31188BFF34F8FBFF36F8F0A4916
:104B90004868401C486001280CD10848006810F0A3
:104BA000FF0F07D0502080F31188BFF34F8FBFF362
:104BB0006F8FFEE770470000B400002004ED00E0B6
:104BC0000849486828B1401E486001D180F3118827
:104BD0007047502080F31188BFF34F8FBFF36F8F62
:104BE000FEE70000B400002070B500282AD0164D62
:104BF000A0F1080460686969084207D1502080F379
:104C00001188BFF34F8FBFF36F8FFEE722683AB171
:104C1000502080F31188BFF34F8FBFF36F8FFEE7F3
:104C20008843606000F080F86068696808446860E4
:104C30002046FFF70FFD2869401C2861BDE8704041
:104C400000F0E0B970BD0000940000204FF0E020BB
:104C500000210161816105494FF47A720968B1FB55
:104C6000F2F1491E416107210161704720000020D7
:104C700010B5020014D00F48006B38B1502080F3FB
:104C80001188BFF34F8FBFF36F8FFEE700F04CF832
:104C900000211046FFF782FB00F0B4F9002807D18D
:104CA00005494FF080500860BFF34F8FBFF36F8FFF
:104CB00010BD00005800002004ED00E010B586B0E3
:104CC0000024039405AA04A903A80494FFF71CFF79
:104CD000DDE903010094CDE9011000230EA1104885
:104CE000059A00F0FEF80F490028C86211D0502044
:104CF00080F31188BFF34F8FBFF36F8F4FF0FF30FA
:104D0000886201204861CC6006B0BDE8104000F028
:104D100041B806B010BD000049444C4500000000F9
:104D20005D450008580000200248016B491C0163E2
:104D300070470000580000201448016B11B1012198
:104D4000C16170470021C1610169B1FA81F1C1F10E
:104D50001F0101EB81020E4951F822306BB101EBCA
:104D6000820101F108034A6852684A609A4201D1FF
:104D700052684A60D16801607047502080F3118802
:104D8000BFF34F8FBFF36F8FFEE700005800002086
:104D9000F00500201CB537480168374A914207D119
:104DA000502080F31188BFF34F8FBFF36F8FFEE762
:104DB00000683149491E884207D1502080F311888C
:104DC000BFF34F8FBFF36F8FFEE72C490878019038
:104DD000FF20087008788DF800009DF800009DF80D
:104DE000002000F0F000904207D0502080F311889E
:104DF000BFF34F8FBFF36F8FFEE79DF80000204C8D
:104E000000F0500020700720A06005E09DF8002011
:104E100052008DF80020401E9DF800201206F5D4A7
:104E2000A060032807D0502080F31188BFF34F8F74
:104E3000BFF36F8FFEE74FF44070A06001980870D9
:104E40000C482030016841F470010160016841F0B4
:104E500070410160FFF7FAFE00206060FBF7C4F9C3
:104E60000848016841F040410160FBF7A9F90020C2
:104E70001CBD000000ED00E071C20F4100E400E045
:104E8000B400002034EF00E02DE9FF5F8346DDE948
:104E90000E87994616468A469000FFF745FC0500A6
:104EA0001CD05420FFF740FC040014D000202563E0
:104EB00084F85100CDE90240CDE900874B463246E7
:104EC00051465846FFF77AFB2046FFF79FFA01202C
:104ED00004B0BDE8F09F2846FFF786FE4FF0FF3094
:104EE000F6E7F0B585B0DDE90B640A9DA6B1DCB14B
:104EF000542700972663022684F85160002604AFE9
:104F0000CDE90246CDE90057FFF758FB2046FFF7F1
:104F10007DFA049805B0F0BD502080F31188BFF3EE
:104F20004F8FBFF36F8FFEE7502080F31188BFF3E0
:104F30004F8FBFF36F8FFEE72DE9F0412F4C002616
:104F4000206B28B1A069401CA0613046BDE8F0810B
:104F5000E5686D1CE56013D1606B006838B15020C6
:104F600080F31188BFF34F8FBFF36F8FFEE7606B45
:104F7000A16B6163A063206A401C2062FFF790FB75
:104F8000A06ADFF87C80854209D3606B0068A0B11D
:104F9000606BC068C7687868854211D2A0622068DB
:104FA000C06A00EB800158F82100012800D90126D1
:104FB000E0690028C9D00126C7E74FF0FF30EDE7D0
:104FC000381DFFF78DFDB86A18B107F11800FFF71B
:104FD00087FDF96A0120226988401043206101EBB6
:104FE000810108EB8100391DFFF7BEFDF86A2168D9
:104FF000C96A8842C9D30126C7E7000058000020CB
:10500000F00500202DE9F0472C4D00242746286BA1
:1050100038B1FFF7B5FD286B401E2863286B40B1FF
:1050200046E0502080F31188BFF34F8FBFF36F8F9E
:10503000FEE7A968224E0120D1B3A6F1B40980464B
:105040003068E8B1F068C46804F11800FFF748FD63
:10505000201DFFF745FDE06A2A6908FA00F11143B7
:10506000296100EB800109EB8100211DFFF77CFD28
:10507000E06A2968C96A8842E2D3C5F81C80DFE784
:105080000CB1FFF70DFBAC6944B14646FFF754FF86
:1050900000B1EE61641EF9D10020A861E86938B161
:1050A0000849012738070860BFF34F8FBFF36F8FA0
:1050B000FFF786FD3846BDE8F08700005800002065
:1050C000A406002004ED00E0845200085D240008DE
:1050D0000000000000000000800000000000000050
:1050E0000000000078520008454800080100000058
:1050F0000000000080000000000000000000000030
:1051000090520008853A00080000000000000000EE
:105110008000000000000000000000007052000845
:10512000E51F0008000000000000000080000000F3
:10513000000000000000000000000000000000006F
:10514000010203040607080900000000010203042D
:105150004C5555555555A53F7751C1166CC156BF95
:105160009015CB19A001FA3EAD529C804F7E92BEA5
:10517000C4B1B4BD9EEE213ED43888BEE9FAA8BDC4
:1051800000004054FB21F93F3163621A61B4D03D05
:105190000000601A61B4D03D7370032E8A19A33BDE
:1051A0000000002E8A19A33BC14920259A837B3930
:1051B00000000000000000006E83F9A22915444E93
:1051C000D15727FCC0DD34F5999562DB4190433C13
:1051D000AB6351FE61C5BBDE3A6E24B7E0D24D42EF
:1051E000EA2E49061C92D1091CEB1DFE3EA729B1EF
:1051F000F53582E88444BB2E26709CE9417E5FB47D
:1052000039D69139F43953838B5F849C3B28F9BD9F
:10521000FF97F81F0F9805DE8B112FEF1F6D0A5AAD
:10522000CF7E366DB709CB27663F464F2DEA5F9E8E
:10523000C7BA27757BF1E5EBF739073DEA92528A49
:10524000B15FFB6B085D8D1FA6F810111111813F36
:10525000D561C119A0012ABF7DFEB157E31DC73E2C
:10526000EB9C2B8AE6E55ABE7CD5CF5A3AD9E53D70
:10527000484D495461736B00736572766F54617366
:105280006B00000064656661756C745461736B003B
:10529000666C6F775461736B00000000BC520008AD
:1052A00000000020C80000001838000884530008DF
:1052B000C800002018460000283800080000A0415F
:1052C00000000000000000000000000000000000DE
:1052D0000100000010000000000000000024F400A5
:1052E000000070420000D041000020C1000020C139
:1052F0000000A0C0000070C100000000000000001D
:10530000000002000000000000434B5946434B9947
:1053100059460000000000000000000000000000EE
:10532000000000000000000000000000000000007D
:10533000000000000000000000000000000000006D
:10534000000000000000000000000000000000005D
:10535000000000000000000000000000000000004D
:10536000000000000000000000000000000000003D
:1053700000000000AAAAAAAA000000000000000085
:045380000000000029
:040000050800018965
:00000001FF
