:020000040800F2
:10000000C804002001010008CF1700089716000857
:10001000CD1700082D070008F91C0008000000009B
:10002000000000000000000000000000611B00084C
:100030002F07000800000000C9190008631B000812
:100040001B0100081B0100081B0100081B01000820
:100050001B0100081B0100081B0100081B01000810
:100060001B0100081B0100081B0100081B01000800
:100070001B0100081B0100081B0100081B010008F0
:100080001B0100081B0100081B0100081B010008E0
:100090001B0100081B0100081B0100081B010008D0
:1000A0001B0100081B0100081B0100081B010008C0
:1000B0001B0100081B0100081B0100081B010008B0
:1000C0001B0100081B0100081B0100081B010008A0
:1000D0001B0100081B0100081B0100081B01000890
:1000E0001B0100081B0100081B010008DFF80CD0F1
:1000F00000F08CFA0048004739260008C8040020A8
:100100000648804706480047FEE7FEE7FEE7FEE7B1
:10011000FEE7FEE7FEE7FEE7FEE7FEE7C51B000899
:10012000ED000008202A04DB203A21FA02F0002129
:10013000704721FA02F3D040C2F1200291400843F7
:1001400019467047D2B201E000F8012B491EFBD2DC
:1001500070470022F6E710B513460A4604461946D2
:10016000FFF7F0FF204610BDC10F80EAE0700844A1
:10017000CA079623002100F063B800F0004230F077
:1001800000400AD0C10D01F56071C0F3160042EACB
:100190000151C208400711437047002001467047D3
:1001A00030B50B46014600202022012409E021FA47
:1001B00002F59D4205D303FA02F5491B04FA02F544
:1001C0002844151EA2F10102F1DC30BD2DE9F05FDB
:1001D0000546002092469B468846064681464024B6
:1001E0001BE02846414647462246FFF79BFF534601
:1001F0005A46C01A914110D311461846224600F0C3
:1002000017FA2D1A67EB01084F46224601200021FC
:1002100000F00EFA17EB00094E41201EA4F1010474
:10022000DFDC484631462A464346BDE8F09F0029B8
:10023000A8BF7047401C490008BF20F0010070476C
:1002400010B4B0FA80FC00FA0CF050EA010404BFCC
:1002500010BC704749B1CCF1200421FA04F411FA22
:100260000CF118BF012121430843A3EB0C01CB1D66
:100270004FEA00614FEA102042BF002010BC7047D7
:1002800000EBC35010440029A4BF10BC7047401CB1
:10029000490008BF20F0010010BC70472DE9FE4F57
:1002A000804681EA0300C00F0C46009021F0004117
:1002B00023F00045B8EB0200A94105D24046214693
:1002C00090461C460B46024623F00040104347D0A0
:1002D000270DC7F30A00C3F30A510290401A019098
:1002E00040286BDAC3F3130040F4801B0098924659
:1002F00020B10023D2EB030A63EB0B0B01985946A4
:10030000C0F14002504600F093F906460D465046B3
:100310005946019A00F09BF910EB08006141002456
:1003200087EA115284EAE7731A4340D0009A62B315
:10033000019A012A4FEA075215DC001B61EB02010A
:100340004FF0004202EA0752CDE90042001C41F59D
:10035000801132462B4600F09BF903B0BDE8F08FC8
:1003600040462146F9E7001B61EB0201001C41F504
:10037000801300185B412018A2F5001747EB03011A
:1003800040EAD570B6196D4111E06D084FEA3606A6
:1003900045EAC0754FEA0752001B61EB0201001CE1
:1003A00041F5801149084FEA3000001951413246A9
:1003B0002B4603B0BDE8F04F00F05BB90098012276
:1003C00040000023D0EB020263EBE073009821466B
:1003D0004FEAE074B8EB000061EB0401E9E783F059
:1003E00000435BE781F0004158E72DE9FE4F81EAC9
:1003F000030404F0004421F0004100944FF0000B8E
:1004000023F0004350EA01045ED052EA03045BD0BB
:10041000C3F30A54C1F30A552C44A4F2F3340194F3
:10042000A0FB0254C1F3130141F48011C3F3130381
:1004300043F4801301FB024400FB034E840A970A35
:1004400044EA815447EA8357A4FB076802958D0A62
:1004500005FB07854FEA932C04FB0C542705029DEE
:100460004FEA065847EA1637B5EB08056EEB070C5E
:10047000870E920E47EA811742EA8312A7FB020118
:10048000B6EB0B0164EB00042B0D43EA0C335E1852
:1004900044EB1C50DA465146E7FB0201C5F3130456
:1004A0004FEA0B3343EA14534FEA0432019C43EA08
:1004B0000603A4F10C040294009CCDE900B400F002
:1004C000E7F803B0BDE8F08F00200146F9E72DE919
:1004D000F04D81EA030404F0004B21F0004514467E
:1004E0004FF0000A23F0004150EA050220D054EA00
:1004F00001021DD0C5F30A570246C5F31303C1F329
:100500001300C1F30A5640F4801543F48013A7EB9F
:100510000608101BD64608F2FD3873EB050002D31F
:1005200008F1010801E092185B41B8F1000F03DA0D
:1005300000200146BDE8F08D00204FF480110646F2
:1005400084460EE0171B73EB050705D3121B63EB04
:10055000050306434CEA010C49084FEA30009218A3
:100560005B4150EA0107EDD152EA030012D082EA62
:10057000040083EA0501084305D0101BAB4106D2F5
:100580000122002306E000224FF0004302E06FF05A
:10059000010253101AEB06004CEB085110EB0A0055
:1005A00041EB0B01BDE8F04D00F063B8C1F30A5216
:1005B000C1F3130140F2FF3341F480119A4202DA91
:1005C00000200146704740F233439A42A2F2334280
:1005D00002DC5242FFF7A6BD00F02AB830B5041E77
:1005E00071F1000404DB4FF00044404264EB010170
:1005F000141E73F1000405DB1C464FF00043524209
:1006000063EB0403994208BF904230BD064C074D8E
:1006100006E0E06840F0010394E8070098471034D2
:10062000AC42F6D3FFF766FD2C2700084C270008E4
:10063000202A04DB203A00FA02F1002070479140A2
:10064000C2F1200320FA03F3194390407047202A97
:1006500006DBCB17203A41FA02F043EAE07306E0EA
:1006600041FA02F3D040C2F12002914008431946FA
:10067000704710B5141E73F1000408DA401C41F1F4
:10068000000192185B411A4301D120F0010010BD16
:100690002DE9F04D92469B4611B1B1FA81F202E08C
:1006A000B0FA80F220329046FFF7C2FF04460F46B0
:1006B00040EA0A0041EA0B0153465A46084313D068
:1006C000114653EA010019D0C8F140025046FFF725
:1006D00029FD05460E46504659464246FFF7A8FFFB
:1006E000084305D0012004E020463946BDE8F08DDE
:1006F0000020054346EAE0762C4337430A98630519
:10070000E40AA0EB08000022FD0A44EA47540A303C
:1007100002D500200146E9E7010510196941DDE92C
:10072000084500196941BDE8F04DA2E7FEE77047B2
:1007300072B6FEE72DE9F84FDFF8B8910024A9F171
:10074000040B23460F2709F1040AABF1040EC9E09C
:100750000125A5402A40AA427DD1674ED1F804C0A8
:10076000ACEB0608B44532D014DCBCF1030F3AD030
:1007700009DCBCF1000F2AD0BCF1010F1CD0BCF188
:10078000020F31D11DE0BCF1110F17D0BCF1120FD7
:100790002AD119E0B8F5881F19D006DCB8F5803FDA
:1007A00015D0B8F5801F1FD111E0B8F5001F0ED08D
:1007B000B8F5041F18D10AE0CB6815E0CB681B1D03
:1007C00012E0CB6808330FE0CB680C330CE08B6889
:1007D0002BB1012B4FF0080303D0456104E0042343
:1007E00002E0056100E00023FF2A01D8064601E08F
:1007F00000F104064FEA840501D9A5F12005D6F8D9
:10080000008007FA05FC28EA0C0803FA05F548EA17
:100810000508C6F800804D68ED0062D5374DAE6919
:1008200046F00106AE61AD6924F0030605F001054E
:100830000095334D06EB050CDCF80850A607360F83
:1008400007FA06F825EA0805DFF8B880404503D125
:100850004FF0000817E044E0DFF8AC80404502D1DB
:100860004FF001080FE0DFF8A480404502D14FF0BF
:10087000020808E0DFF89880404502D14FF00308F5
:1008800001E04FF0040808FA06F848EA0508CCF839
:1008900008804D68D9F80060ED024D4601D5164339
:1008A00000E096432E604D68DAF80060AD025546D0
:1008B00001D5164300E096432E604D68DBF80060DA
:1008C000AD035D4601D5164300E096432E604D68AA
:1008D000DEF80060ED03754601D5164300E096434F
:1008E0002E60641C0D682A46E5407FF431AFBDE8F8
:1008F000F88F0000080401400000111000100240B1
:100900000000014000080140000C014000100140BF
:10091000001401400AB1016170470904FBE70000BF
:100920000148806870470000140000200248816878
:10093000027811448160704714000020074810B508
:10094000016841F010010160032000F067F80F20FA
:1009500000F006F800F024F8002010BD002002404E
:1009600070B50D4D04464FF47A712878B1FBF0F064
:100970000A490968B1FBF0F000F0C1FD48B9102C3C
:1009800007D200222146501E00F028F800206C609B
:1009900070BD012070BD0000140000202000002068
:1009A0000C4808B5816941F001018161816901F05C
:1009B00001010091C16941F08051C161C06900F03D
:1009C000805000900448416821F0E06141F00071DE
:1009D000416008BD0010024000000140F0B40E4B21
:1009E0001B680C46C3F30223C3F10705042D00D98D
:1009F0000425191D072901D2002300E0DB1E012672
:100A000006FA05F1491E214099409E40761E164087
:100A10003143F0BC01F082B90CED00E0064900F072
:100A2000070208684FF6FF03184040EA0220034A15
:100A300010430860704700000CED00E00000FA056C
:100A40002DE9F0470F46050061D0434E306800F0B5
:100A50000700B84209D2306820F007003843306000
:100A6000306800F00700B84251D128683B4C81073C
:100A700012D5400703D5606840F4E06060602878D4
:100A8000000703D5606840F4605060606068A96842
:100A900020F0F000084360602878C00728D068681C
:100AA000012810D02168022810D0890700292EDAE9
:100AB000616821F0030101436160FFF731FF804667
:100AC00041F288390DE021688903EFE78901EDE7FC
:100AD000FFF726FFA0EB0801494502D90320BDE836
:100AE000F0876068696800F00C00B0EB810FEFD10F
:100AF000306800F00700B8420BD9306820F00700DA
:100B000038433060306800F00700B84201D001205F
:100B1000E5E72878400705D56068E96820F4E060DB
:100B2000084360602878000706D56068296920F4CA
:100B3000605040EAC100606000F038F86168084A1F
:100B4000C1F30311515CC8400649086006480068BB
:100B5000FFF706FF0020C2E700200240001002401D
:100B60000E27000820000020180000200448054936
:100B700000684968044AC1F30221515CC8407047CB
:100B800020000020001002401E27000804480549EC
:100B900000684968044AC1F3C221515CC8407047EB
:100BA00020000020001002401E2700080E4A516855
:100BB0000E4801F00C03042B11D0082B0FD10C4868
:100BC000C1F38343C903C05C0AD55168084AC1F325
:100BD0004041921E515C054A5043B0FBF1F0704712
:100BE00004494843704700000010024000127A0098
:100BF000FE26000800093D002DE9F84F040070D0E2
:100C00002078C04DC00749D06868C0F38100012832
:100C100007D06868C0F38100022809D16868C00362
:100C200006D52868800339D560680028E7D035E00C
:100C30006068B0F5803F0BD010B1B0F5A02F11D097
:100C4000286820F480302860286820F4802002E0A2
:100C5000286840F480302860606890B1FFF760FE3B
:100C600006460AE0286840F480202860F0E700BFCC
:100C7000FFF756FE801B642873D828688003F7D5D9
:100C80000CE0FFF74DFE064605E000BFFFF748FE0B
:100C9000801B6428F0D828688003F7D420789A4E07
:100CA00080074FF001094FF0000839D5686810F04F
:100CB0000C0F07D06868C0F38100022809D168686A
:100CC000C00306D42868800714D52069012808D1FC
:100CD00010E02069B0B1C6F80090FFF721FE07468A
:100CE00005E00AE1FFF71CFEC01B0228C4D82868F3
:100CF0008007F7D52868616920F0F80040EAC10054
:100D000028600DE0C6F80080FFF70AFE074604E001
:100D1000FFF706FEC01B022823D828688007F7D4F7
:100D2000207800072CD57948A169D9B1C0F8009086
:100D3000FFF7F6FD074604E0FFF7F2FDC01B0228AF
:100D40000FD8686A8007F7D571484FF4FA510068E8
:100D5000B0FBF1F0009000BF0098411E0091FAD264
:100D60000EE080E0C0F80080FFF7DAFD074604E0FF
:100D7000FFF7D6FDC01B022875D8686A8007F7D434
:100D80002078400760D5E8690027C00008D4E869EA
:100D900040F08050E861E869012700F08050009041
:100DA0005C480168C90513D40168834641F4807129
:100DB0000160FFF7B5FD824606E000BFFFF7B0FD1A
:100DC000A0EB0A0064284ED8DBF80000C005F5D57A
:100DD000E06801280AD008B1052813D0286A20F05D
:100DE00001002862286A20F0040002E0286A40F02E
:100DF00001002862E06841F2883B98B1FFF790FD5E
:100E000082460BE0286A40F004002862EEE700BF4B
:100E1000FFF786FDA0EB0A0159455AD8286A8007DA
:100E2000F6D50CE0FFF77CFD824605E0FFF778FD84
:100E3000A0EB0A0159454CD8286A8007F6D41FB1A7
:100E4000E86920F08050E861E06988B36968C1F31F
:100E50008101022944D00228C6F8608004D0FFF73F
:100E60005FFD044638E034E0FFF75AFD074604E032
:100E7000FFF756FDC01B02282BD828688001F7D445
:100E8000206AB0F5803F05D16868A16820F4003081
:100E900008436860D4E908010843696821F47411C3
:100EA00008436860C6F86090FFF73AFD044606E024
:100EB00025E000BFFFF734FD001B022809D8286891
:100EC0008001F7D51BE000BFFFF72AFD001B0228B9
:100ED00002D90320BDE8F88F28688001F4D40EE021
:100EE0000128F7D06868226A00F48031914204D169
:100EF000616A00F47010884201D00120EAE7002006
:100F0000E8E7000000100240000042428004424234
:100F1000200000200070004070B5040009D0606A15
:100F2000002540B125616561A56294F8510040B18A
:100F30000CE0012070BD6068B0F5827FF4D0E561FF
:100F4000F2E784F85050204600F040F8022084F880
:100F500051002068016821F040010160A0882189CA
:100F600000F4827001F404410843A18901F4006196
:100F70000843217C01F002010843217D01F00101B9
:100F80000843218B01F400710843217F01F03801EF
:100F9000084394F8201001F080010843218D01F4EA
:100FA0000051084321680860A069042101EA10404B
:100FB000216848602068C16921F40061C1616565EC
:100FC000012084F85100002070BD000030B585B0CC
:100FD0000024009401940294039400681749884205
:100FE0002AD11748816941F480518161816901F4F6
:100FF00080510491816941F0080181618069114D3E
:1010000000F00800049028200090022001900320A6
:10101000039069462846FFF78DFB1020CDE90004B8
:10102000694628460294FFF785FB0748416841F06E
:10103000E06141F00101416005B030BD0030014088
:1010400000100240000C0140000001402DE9F84F63
:10105000044690F85100984616460F460025012890
:1010600001D0022598E060684FF0040BB0F5827F54
:1010700001D1A068F8B194F85000012826D04FF0B3
:10108000010984F85090FFF74BFC8246002F7FD077
:10109000002E7DD084F851B000206065A763A6873C
:1010A000E6872063A086E08620646064A068B0F5CF
:1010B000004F0DD016E084F851B013460A46204682
:1010C000CDF8008000F024F9BDE8F88F0220FBE79E
:1010D0002068016821F0400101602068016821F466
:1010E0008041016020680168490603D4016841F02D
:1010F00040010160E068D8B13BE020688168C90721
:1011000009D0007BA16B0870A06B401CA063E08F2E
:10111000401EE0870CE0FFF703FCA0EB0A0141450D
:1011200003D3B8F1FF3F03D006E0B8F1000F03D0BE
:10113000E08F0028E1D11FE003252BE020688168C3
:10114000C90709D0C068A16B0880A06B801CA06390
:10115000E08F401EE0870CE0FFF7E2FBA0EB0A0106
:10116000414503D3B8F1FF3F03D0E5E7B8F1000FE5
:10117000E2D0E08F0028E1D152464146204600F0FF
:1011800055FC08B120206065606D00E000E008B10A
:10119000012501E084F85190002084F85000284691
:1011A00092E72DE9F84F044690F850000026984643
:1011B00015468A4601280CD0012784F85070FFF7A5
:1011C000AFFB814694F85100B346012804D00226B3
:1011D0009AE00220BDE8F88FBAF1000F6FD0002D21
:1011E0006DD0032084F85100C4F854B0C4F830A086
:1011F000A586E586C4F838B0A4F83CB0A4F83EB0A3
:10120000C4F844B0C4F840B0A068B0F5004F09D1AC
:101210002068016821F0400101602068016841F404
:101220008041016020680168490603D4016841F0EB
:1012300040010160E068B0F5006F606803D058B30A
:10124000012D29D049E008B1012D1FD1206B216863
:101250000088C86006E020688168890709D5216B8D
:101260000988C160206B801C2063E08E401EE086F0
:101270000CE0FFF755FBA0EB0901414503D3B8F1A2
:10128000FF3F03D006E0B8F1000F03D0E08E002846
:10129000E1D125E0032635E0206B21680078087352
:1012A00006E02068816889070AD5216B09780173F7
:1012B000206B401C2063E08E401EE0860DE01FE0A6
:1012C000FFF72EFBA0EB0901414503D3B8F1FF3F27
:1012D00003D0DFE7B8F1000FDCD0E08E0028E0D1CA
:1012E0004A464146204600F0CFFB08B12020606509
:1012F000A06818B92068C16880680090606D08B166
:10130000012601E084F8517084F850B0304661E75E
:101310002DE9FF4F81B0044690F8500000260E9F43
:101320001D4693464FF0010901280FD04FF0010AE6
:1013300084F850A0FFF7F4FA804694F851006168F1
:1013400001280DD0B1F5827F08D103E0022005B05D
:10135000BDE8F08FA16809B9042801D00226C9E0D0
:101360000298002865D0BBF1000FFBD0002DF9D00A
:1013700094F85100042802D0052084F85100002080
:101380006065C4F838B0E587A58702992163E586D2
:10139000A5862064606420680168490603D401685A
:1013A00041F040010160E068B0F5006F606803D073
:1013B000F0B3012D47D081E008B1012D3CD1206B65
:1013C00021680088C860206B801C2063E08E401E6E
:1013D000E08631E02068816889070FD5E18E69B128
:1013E000B9F1010F0AD1216B0988C160206B801C03
:1013F0002063E08E401EE0864FF00009206881687F
:10140000C9070CD0E18F51B1C068A16B0880A06BF7
:10141000801CA063E08F401EE0874FF00109FFF7BA
:101420007FFAA0EB0800B84206D3781C04D001E094
:1014300009E05BE003265BE0E08E0028CAD1E08F84
:101440000028C7D140E0206B216800780873206B2A
:10145000401C2063E08E401EE0862FE020688168FB
:1014600089070FD5E18E69B1B9F1010F0AD1216B5E
:1014700009780173206B401C2063E08E401EE086DB
:101480004FF0000920688168C9070CD0E18F51B185
:10149000C068A16B0870A06B401CA063E08F401E69
:1014A000E0874FF00109FFF73BFAA0EB0800B842D4
:1014B00002D3781C02D0BAE7002FB8D0E08E002803
:1014C000CCD1E08F0028C9D142463946204600F0F1
:1014D000DBFA18B10126202060650BE0A06818B97E
:1014E0002068C16880680090606D08B1012601E045
:1014F00084F851A0002084F85000304627E710B54A
:10150000401EB0F1807F01D3012010BD4FF0E024D8
:1015100060610F21601700F001FC0020A06107202E
:101520002061002010BD70B5040004D094F8410083
:10153000002510B106E0012070BD84F8405020461F
:1015400000F024F8242084F841002068C16821F4C8
:101550000051C160204600F037FB2068016921F48A
:10156000904101612068416921F02A0141612068B0
:10157000C16841F40051C1606564202084F84100D5
:1015800084F842006563002070BD000030B585B06E
:101590000024009401940294039400681449884242
:1015A00024D11448816941F480418161816901F449
:1015B00080410491816941F00401816180690E4D8F
:1015C00000F0040004904FF400700090022001909D
:1015D0000320039069462846FFF7ACF82815CDE9AB
:1015E0000004694628460294FFF7A4F805B030BD10
:1015F0000038014000100240000801402DE9F84386
:10160000044690F841001F4616460D46202802D099
:101610000220BDE8F8837DB176B10020606421200E
:1016200084F84100FFF77CF9A6848046E684A06830
:10163000B0F5805F02D003E00120EAE7206910B135
:101640002E4600250EE000260CE08021204600F00A
:1016500017FBA0B9AEB116F8010B21684860E08C09
:10166000401EE084E08C43464FF0000200970028C3
:10167000EBD14FF04001204600F002FB30B10320D7
:10168000C7E735F8020BC0F30800E6E7202084F82E
:1016900041000020BDE7FEE72DE9F04186B00024BF
:1016A00027480094019402940394816941F0100149
:1016B0008161816901F010010491816941F020018B
:1016C0008161816901F020010491816941F0040187
:1016D0008161816901F004010491816941F008018F
:1016E00081618069174F00F00800049001220821F1
:1016F0003846FFF70FF9DFF85080012202214046FB
:10170000FFF708F9042001258DE8310069463846C5
:10171000FFF710F808200326CDE90005CDE90246C1
:1017200069463846FFF706F80220CDE90005CDE905
:10173000024669464046FEF7FDFF06B0BDE8F0816F
:101740000010024000080140000C0140104810B594
:101750000E4901604FF48271416000218160C160D7
:101760004FF400720161C0E905121022C0E907219F
:10177000416281620A21C162FFF7CEFB002803D0DB
:10178000BDE81040FEF7D4BF10BD0000003001409E
:10179000280000200C4810B50A4901604FF4E131DF
:1017A0004160002181600C22C160C0E904128161A6
:1017B000C161FFF7B8FE002803D0BDE81040FEF776
:1017C000B7BF10BD0038014080000020FEE7FEE7F3
:1017D0001FB512A10522D1E90001CDE9020102A93C
:1017E000302000F0B5F805226946102000F044F8DA
:1017F000002069460A5CA52A03D1401CC0B2052816
:10180000F8D3052805D007A000F078FA012004B02D
:1018100010BD0AA000F072FA0020F8E7A5A5A5A562
:10182000A50000006E524632344C303120544553EE
:1018300054204641494C0D0A000000006E524632C9
:10184000344C30312054455354204F4B0D0A000086
:1018500010B5002208210648FFF75CF8012202219A
:101860000448FFF757F8BDE81040642000F0CFBEF1
:1018700000080140000C01402DE9F0410D4D1646D5
:101880000F460446002202212846FFF743F820466F
:1018900000F024FF04461023324639460648FFF77D
:1018A000D5FB012202212846FFF734F82046BDE887
:1018B000F0810000000C01402800002070B50A4DA6
:1018C0000446002202212846FFF724F8204600F0B3
:1018D00005FFFF2000F002FF0446012202212846F6
:1018E000FFF718F8204670BD000C014070B50546A2
:1018F0000720FFF7E3FF04460146272000F04AF8DF
:10190000A00602D50AA000F0F9F960060DD508225C
:1019100029466120FFF7B0FFFF21E22000F03AF8EE
:1019200007A000F0EBF9002070BD012070BD0000A1
:1019300052582073656E642061636B210D0A0000AC
:10194000525820726561642064617461210D0A003F
:101950002DE9F0410D4D16460F46044600220221A6
:101960002846FEF7D7FF204600F0B8FE04461023B5
:10197000324639460648FFF714FC01220221284668
:10198000FEF7C8FF2046BDE8F0810000000C0140D2
:101990002800002070B50B4D0E460446002202219F
:1019A0002846FEF7B7FF204600F098FE0446304672
:1019B00000F094FE012202212846FEF7ABFF2046EC
:1019C00070BD0000000C01407047000010B5154CC0
:1019D000002208212046FEF79DFF052212492A20F9
:1019E000FFF7B6FF01212120FFF7D4FF01212220BC
:1019F000FFF7D0FF78212520FFF7CCFF0821312009
:101A0000FFF7C8FF0F212620FFF7C4FF0F2120207A
:101A1000FFF7C0FF20460122BDE810400821FEF775
:101A200079BF00000008014026270008F8B50446E9
:101A300040684FF48273984217D1A0684FF48065D4
:101A4000B0F5004F01D0A8420FD12068066826F0FB
:101A5000400606606068984207D1A068A84204D199
:101A600000920B460022012103E000920B46002267
:101A70008021204600F018F8002804D0606D40F066
:101A8000200060650320F8BD38B50B46009204467F
:101A90000022802100F008F8002804D0606D40F09A
:101AA00020006065032038BD2DE9F8431E469146AD
:101AB00088460446089DFEF733FF401B351AFEF7A3
:101AC0002FFF074625480068C0F3CB30684338E055
:101AD000701C37D0FEF724FFC01BA84203D215B1FB
:101AE000009860B32CE02068416821F0E00141607B
:101AF0006068B0F5827F0BD1A068B0F5004F02D0CE
:101B0000B0F5806F04D12068016821F040010160C8
:101B1000A06AB0F5005F09D12068016821F4005186
:101B200001602068016841F400510160012084F8DF
:101B30005100002084F850000320BDE8F883002500
:101B4000401E00902068816838EA010004D000211E
:101B50004945BDD10020F0E70121F9E72000002030
:101B60007047FEF7E3BE30B58FB028216846FEF718
:101B7000F0FA14210AA8FEF7ECFA01210804CDE9D5
:101B800000100024029402250491CDE907504FF47F
:101B9000E01009906846FFF72FF808B172B6FEE72B
:101BA0000F20CDE90A054FF48060CDE90C400221F9
:101BB0000AA80E94FEF744FF002801D072B6FEE793
:101BC0000FB030BD7047000070B504460068016971
:101BD000E26821F44051114301612169A068084382
:101BE000616908432168CA6841F20C639A43024361
:101BF000CA6020684169A26921F4407111434161C2
:101C00001E492068884202D1FEF7C0FF01E0FEF7BE
:101C1000ADFF00EBC00101EB0012606864218000A1
:101C2000B2FBF0F3B3FBF1F36FF018067343B2FBB2
:101C3000F0F5B2FBF0F605EB8305322303EB051557
:101C4000B5FBF1F5B6FBF1F605F0F00505EB061571
:101C5000B2FBF0F6B2FBF0F0B0FBF1F06FF018025F
:101C6000504306EB800003EB0010B0FBF1F021685D
:101C700000F00F002844886070BD0000003801406B
:101C80002DE9F041984617460E460446069D27E08A
:101C9000681C25D02DB1FEF743FEA0EB0800A8423A
:101CA0001ED920680C3050E8001F21F4D07140E8A4
:101CB0000012002AF5D12068143050E8001F21F0EE
:101CC000010140E80012002AF5D1202084F84100EB
:101CD00084F84200002084F840000320BDE8F08131
:101CE0002068006836EA000004D00020B842CFD057
:101CF0000020F3E70120F9E7FEE700000FB4054BF1
:101D000010B503A9044A029800F0EAF810BC5DF887
:101D100014FB000021260008240000200907090EFA
:101D2000002804DB00F1E02080F80014704700F088
:101D30000F0000F1E02080F8141D704702E008C891
:101D4000121F08C1002AFAD170477047002001E035
:101D500001C1121F002AFBD1704700002DE9FF5F6F
:101D600082B00021DDE90430020DDDF840B003430C
:101D700018D044F61050A2F2FF32424315141198C5
:101D800001281FD0A5EB0B00401C5FEA000A4FF0B2
:101D900000064E4FDFF83891B046504615D5CAF1CF
:101DA000000413E0119801244AA3012801D16FEA2D
:101DB0000B010298119AC0E90031C0E9024206B055
:101DC000BDE8F09FCBF10000DFE704460021404A68
:101DD000491842EB0450CDE9001012E0E00707D0AB
:101DE00032463B4640464946FEF7FFFA8046894662
:101DF00032463B4610461946FEF7F7FA06460F46AE
:101E00006410002CEAD1DDE90401DDE90023BAF118
:101E1000000F06DAFEF7E9FA42464B46FEF7E5FA0E
:101E200005E0FEF754FB42464B46FEF750FB0446E6
:101E30000E460022284BFEF7D1FB03D84FF0FF30AF
:101E4000014607E00022254B20463146FEF726FAE0
:101E5000FEF7ACFB102409E0002C0ADB0A22002369
:101E6000FEF7B4F9039B30321A55641E50EA0102A2
:101E7000F2D1641C039AC4F111031444119A012A8B
:101E800003D0012208430DD10AE0084304D000200A
:101E90004FF0110B119072E7A3EB0B056D1E0DE0D7
:101EA0005B4504DD4FF0000205F1010504E003DAB3
:101EB0004FF00002A5F10105002AECD0029811991B
:101EC000C0E90231C0E9004579E700000000144094
:101ED0000000F03F300000000000F0430000E03F51
:101EE0002DE9FF4F95B09B468946064600250FE237
:101EF000252877D100242746F84A0121059400E0DF
:101F0000044316F8013F203B01FA03F01042F7D1D9
:101F100030782A2811D06FF02F033078A0F13002EA
:101F2000092A16D8059A44F0020402EB820203EB58
:101F300042021044761C0590EFE759F8042B0592F5
:101F4000002A03DA504244F40054059044F002049D
:101F5000761C30782E2816D116F8010F44F00404B0
:101F60002A280DD06FF02F023078A0F13003092B12
:101F700009D807EB870302EB4303C718761CF3E786
:101F800059F8047B761C30786C280FD006DC4C287E
:101F900017D068280DD06A2814D104E0742810D016
:101FA0007A280FD10DE044F400140AE044F48014C0
:101FB00001E044F440147278824202D104F58014A6
:101FC000761C761C307866280BD013DC582877D026
:101FD00009DC002875D04528F6D04628F4D04728DB
:101FE0001AD19DE118E0632835D0642879D065289E
:101FF00012D195E1702873D008DC6728F1D06928E8
:102000006FD06E280DD06F2806D1B5E073282CD084
:10201000752875D0782874D05A46179990476D1C4A
:1020200075E1C4F30250022809D003280DD0D9F875
:10203000001004280DD00D6009F1040967E1D9F8FA
:102040000010EA17C1E90052F6E7D9F800100D8038
:10205000F2E70D70F0E719F8041B8DF8001000206E
:102060008DF80100EA46012003E059F804AB4FF077
:10207000FF3061074FF0000102D40DE008F10101CB
:102080008846B9420FDA8045F8DB1AF808100029B3
:10209000F4D108E008F1010188468142FADB1AF820
:1020A00008100029F6D105985B46A0EB08072146E9
:1020B0003846179A00F094FA284400EB080507E028
:1020C0004DE029E10DE01AF8010B5A4617999047A7
:1020D000B8F10108F7D25B4621463846179A13E15A
:1020E00042E00A220092C4F302524FF0000A022A90
:1020F00008D059F804CB032A4FEAEC710AD00DE05E
:1021000029E02AE009F1070121F00702F2E802C103
:10211000914609E00FFA8CFC4FEAEC71042A03D1D6
:102120004FFA8CFC4FEAEC71002907DA0A460021CD
:10213000DCF1000C61EB02012D2202E0220504D546
:102140002B228DF80420012203E0E20701D0202297
:10215000F7E7904659E00A2102E010220DE0102135
:102160004FF0000A00910BE010224FF0000A44F0FB
:1021700004040827009203E008224FF0000A0092AE
:10218000C4F30252022A05D059F804CB0021032AD5
:1021900008D009E009F1070121F00702F2E802C1C5
:1021A000914605E01FFA8CFC042A01D10CF0FF0CCB
:1021B0004FF00008220728D5702806D0009B83F036
:1021C000100353EA0A0305D00EE040228DF80420E4
:1021D000012208E05CEA010206D030228DF80420DA
:1021E0008DF8050002229046009B83F0080353EA15
:1021F0000A030AD15CEA010201D1620705D5302247
:102200008DF804204FF001087F1E582804D034A018
:1022100003900EA802900DE036A0F9E75346604601
:10222000009AFDF7D3FF84460398825C0298401E13
:10223000029002705CEA0100F0D1029806A9081A27
:1022400000F1200A600702D524F4803400E0012761
:10225000574502DDA7EB0A0000E0002000EB0A0171
:10226000009005984144401A0590E00306D45B466F
:102270002146179A059800F0B3F90544002706E0B7
:1022800001A85A46C05D179990476D1C7F1C4745B1
:10229000F6DBE0030CD55B462146179A059800F063
:1022A0009FF9054404E030205A46179990476D1C69
:1022B0000099481E00900029F5DC08E00298029978
:1022C0005A460078491C0291179990476D1CBAF143
:1022D0000001AAF1010AF1DC65E100000928010012
:1022E000303132333435363738396162636465668C
:1022F000000000003031323334353637383941424E
:10230000434445460000000000F058F90544761C9F
:10231000307800287FF4ECAD19B02846BDE8F08F86
:10232000620700D4062709F1070222F0070CFCE837
:102330000223E14603F000485FEA080C02D00FF2E6
:10234000702C0DE05FEA045C02D50FF2682C07E008
:102350005FEAC47C02D00FF2602C01E0AFF2700C97
:102360004FF0FF3823F00043CDF850C065280CD063
:1023700006DC452809D046281DD047283DD13DE040
:10238000662818D067287ED138E00021112F01DBA4
:10239000112000E0781CCDE9000106A90EA8FFF786
:1023A000DDFCDDE90F010E9A03910021009207F197
:1023B000010A04914DE04FF000400097CDE9011073
:1023C00006A90EA8FFF7CAFCDDE90F0203920E9BD7
:1023D00011990022DDF80CA00093049211B9791C28
:1023E00000EB010AB7EB0A0004D4C0F1FF3007F19B
:1023F000010A0490AAEB0700019044E0012F00DAE3
:1024000001270021112F01DD112000E03846CDE920
:10241000000106A90EA8FFF7A1FCDDE90F010E9A45
:102420000391002104910092BA4621070CD403992C
:10243000514500DA8A46BAF1010F05DD009AAAF18A
:102440000101515C302908D0B84202DA10F1040FC2
:1024500006DA0121CDE9011015E0AAF10101E9E751
:10246000002805DC049901440491AAEB000102E074
:10247000411C514500DD8A460499401A401C0190D8
:102480004FF000400290200704D40198504501DB32
:10249000CDF8048000208DF84F0002980DF14F0711
:1024A000B0F1004F25D02B200E9002984FF002087B
:1024B00000280CDA404202902D200E9007E00A21FD
:1024C0000298FDF76DFE3031029007F8011DB8F15A
:1024D0000001A8F10108F2DC02980028EFD1791E72
:1024E0000E980870307800F0200040F0450007F8A2
:1024F000020D12A8C01B00F107081498007800B163
:10250000012000EB0A01019801EBE07105984144BC
:10251000401A401E0590E00306D45B462146179AF8
:10252000059800F05DF805441498007818B15A46F3
:10253000179990476D1CE00324D55B462146179AF6
:10254000059800F04DF805441CE00498002807DBCE
:10255000DDE90301884203DD0098405C179901E042
:10256000179930205A469047049805F10105401C00
:1025700004900198401E019004D12E205A461799CC
:1025800090476D1CBAF10001AAF1010ADDDC05E0FB
:1025900017F8010B5A46179990476D1CB8F10001C6
:1025A000A8F10108F4DC5B462146179A0598ABE6D2
:1025B0002D0000002B000000200000002DE9F0415C
:1025C000044600251E461746880404D405E0394613
:1025D0002020B0476D1C641EF9D52846BDE8F08167
:1025E0002DE9F041044600251E469046C80301D55A
:1025F000302700E02027880404D505E0414638460E
:10260000B0476D1C641EF9D52846BDE8F08103E093
:102610000721491EC9B2FCD2401EF9D27047000002
:1026200013B54FF47A73012269460248FEF7E6FFBC
:1026300000981CBD800000201CB5FEF77FF9FFF755
:1026400092FAFFF729F8FFF781F8FFF7A3F8FFF7F1
:10265000FFF81F4C04202070FFF7BAF818B120785B
:10266000411E2170F8D2FFF7B1F919480C30FFF77D
:102670003DF90028F9D1164D0C35E8782978AA786B
:1026800000EB01606978090401EB02210844FDF7C1
:102690006BFD60600646E8792979AA7900EB016054
:1026A0006979090401EB02210844FDF75DFDA06092
:1026B000FDF763FD05460F463046FDF75EFDCDE9AB
:1026C000005702460B4603A0FFF718FBCDE70000BA
:1026D0000000002025662C25660D0A0001B582B099
:1026E00010200090012301AA02A90348FEF710FE62
:1026F0009DF804000EBD0000280000200102020326
:102700000405060708090A0B0C0D0E0F1010000037
:102710000000000000000102030406070809000091
:10272000000001020304023AB1B101004C27000885
:1027300000000020280000003C1D0008742700084D
:1027400028000020A00400004C1D0008000000002C
:102750000000000000000000000000000000000079
:102760000100000010000000000000000024F40040
:042770000000000065
:04000005080000ED02
:00000001FF
